:020000040800F2
:10000000000001208D420108053000080930000879
:100010001D3000081F3000082130000800000000DB
:100020000000000000000000000000002330000875
:1000300025300008000000002730000829300008A3
:10004000DD420108DD420108DD420108DD42010810
:10005000DD420108DD420108453000084F3000084C
:10006000DD420108DD42010859300008DD42010887
:10007000DD420108DD420108DD420108DD420108E0
:10008000DD420108DD420108DD42010800000000F8
:1000900000000000000000000000000063300008C5
:1000A000DD4201081D260108EDEF0008DD420108D0
:1000B000DD420108DD420108DD420108DD420108A0
:1000C000DD420108DD420108DD420108DD42010890
:1000D000DD420108DD420108DD42010800000000A8
:1000E000DD420108DD420108DD4201080000000098
:1000F000000000000000000000000000DD420108D8
:1001000000000000DD420108DD420108DD42010877
:1001100000000000000000000000000000000000DF
:1001200031300008DD420108DD420108DD420108EE
:10013000DD42010800000000000000000000000097
:100140000000000000000000000000007530000802
:10015000DD420108DD420108DD420108DD420108FF
:10016000DD420108DD42010800000000000000003F
:10017000000000000000000000000000000000007F
:1001800000000000DD420108000000000000000047
:04019000DD42010843
:1001C0000348044B834202D0034B03B118477047E6
:1001D0008801002088010020000000000548064B2F
:1001E0001B1AD90F01EBA301491002D0034B03B135
:1001F0001847704788010020880100200000000097
:1002000010B5064C237843B9FFF7DAFF044B13B15E
:100210000448AFF300800123237010BD8801002043
:1002200000000000E042010808B5044B1BB104497E
:100230000448AFF30080BDE80840CFE700000000AD
:100240008C010020E04201080CB410B59CB01EAB3C
:10025000029106916FF0004104910791084953F80B
:10026000042B0591002402A901931B9400F08EF940
:10027000029B1C701CB0BDE8104002B0704700BF6C
:100280000802FFFF0EB430B59CB06FF000411FAB09
:10029000049107910A4953F8042B02900024069018
:1002A000084D0868019302A905951B9400F06EF9AA
:1002B000029B1C701CB0BDE8304003B0704700BF0B
:1002C000000000200802FFFF830710B5044610D18C
:1002D0000268A2F1013323EA020313F0803F08D140
:1002E00050F8042FA2F1013323EA020313F0803FF8
:1002F000F6D003781BB110F8013F002BFBD100F0C2
:1003000003F8204610BD00BF80EA0102844612F0C7
:10031000030F4FD111F0030F32D14DF8044D11F0FE
:10032000040F51F8043B0BD0A3F101329A4312F0B1
:10033000803F04BF4CF8043B51F8043B16D100BF8A
:1003400051F8044BA3F101329A4312F0803FA4F11B
:1003500001320BD14CF8043BA24312F0803F04BFA2
:1003600051F8043B4CF8044BEAD023460CF8013B0F
:1003700013F0FF0F4FEA3323F8D15DF8044B7047B9
:1003800011F0010F06D011F8012B0CF8012B002AF7
:1003900008BF704711F0020FBFD031F8022B12F0E6
:1003A000FF0F16BF2CF8022B8CF8002012F47F4FA1
:1003B000B3D1704711F8012B0CF8012B002AF9D1A9
:1003C000704700BF2DE9F0478F681D46AF420B68AC
:1003D0000C46164636D8B1F90CC01CF4906F0ED1FD
:1003E0003D46184631462A4600F0F0FBA368DF1B65
:1003F0002368A7602B4400202360BDE8F0874A698A
:10040000096902EB42025F1A02EBD2726B1C5210B6
:100410003B44934292BF914699461A461CF4806F22
:10042000804611D0114600F0F3FA824600B32169EC
:100430003A4600F09DFCA38923F4906343F08003C7
:10044000A38105E02F46CCE700F03CFD824658B181
:100450000AEB0703A9EB0707A760C4F810A0C4F8CC
:10046000149023602F46BCE72169404600F050FB02
:10047000A3890C2243F04003C8F800204FF0FF305E
:10048000A381BAE72DE9F04F9368176883B09246CD
:10049000002B74D04FF0000B8B680A6881460C4625
:1004A0005D4645E0B4F90C3013F4906F2CD0D4E9DC
:1004B0000401161A01EB410202EBD272711C5210B8
:1004C0002944914292BF904688460A465B0539D539
:1004D0001146484600F09CFA019000283DD0324673
:1004E000216900F045FCA289019B22F4906242F050
:1004F0008002A2819819A8EB0606A660C4F81480B1
:1005000023612060A8462E463246594600F05EFB25
:10051000DAF80810A3682268A3EB08033244491BE9
:10052000A3602260CAF8081049B3D7E900B50837BC
:1005300098461046002DF8D09D421E46B2D2A846DD
:100540002E46E1E70146484600F0BCFC0346002881
:10055000D0D12169484600F0DBFAA3890C2243F090
:100560004003C9F800204FF0FF30A3810022002390
:10057000CAF80820CAF8043003B0BDE8F08F0020A4
:100580000023CAF8043003B0BDE8F08F2DE9F04F26
:100590001C468B891D069DB088468146934603D52F
:1005A0000B69002B00F0F1800023099343F2200334
:1005B000ADF829309BF800307D4D03940126002BC7
:1005C00073D0DA4603E01AF8013F002B75D0252BD3
:1005D000F9D1BAEB0B0473D19AF80020002A64D049
:1005E00000234FF0FF32CDE905230AF1010A0493FD
:1005F00007938DF853301A9305E0049A06FA03F333
:100600001A430492A2465446052214F8011B2846B8
:1006100000F05EFBA346431B0028EED1049BD806E6
:1006200044BF20228DF8532019079AF8001044BFC8
:100630002B228DF853202A2950D1039A11680432B5
:10064000002903927CDB07919AF801102E295BD0D8
:10065000584C0322204600F03BFB38B1049B001BA2
:100660004022824013430BF1010B04931BF8011B42
:1006700051488DF82810062200F02AFB002865D08A
:100680004E4B002B55D003AA00924D4B424604A975
:100690004846AFF3008007467A1C06D0099B3B44CE
:1006A00009939BF80030002B8BD1B8F80C305B0617
:1006B0007AD409981DB0BDE8F08FBAEB0B04F4D0E2
:1006C00023465A4641464846FFF77CFE0130ECD0AF
:1006D000099B9AF80020234409937FE7A1F1300297
:1006E000092A88BFD346B1D8079B00E0013421789E
:1006F00003EB830302EB4303A1F13002092AF5D98E
:100700002E290793A346A3D19BF801102A2927D1AC
:10071000039B9BF802101A6805920433002A0BF120
:1007200002000393B8BF4FF0FF338346B8BF059371
:100730008EE7039B073323F0070308330393ADE7EA
:10074000494243F00203079104937DE703AA009214
:100750001B4B424604A9484600F078FC07469BE73D
:10076000A1F130020023092A05930BF1010B3FF69A
:100770006FAF1BF8011F03EB830302EB4303A1F1EF
:100780003002092AF5D9059362E7402100F040F9CB
:10079000C8F80000C8F8100018B14023C8F8143099
:1007A00002E70C23C9F800304FF0FF3082E700BFAA
:1007B000A44B0108AC4B0108B04B0108000000003D
:1007C000C503000870B50F4B0F4DAB42A3EB0506F8
:1007D00007D0B610002455F8043B01349847A642D0
:1007E000F9D813F07DFD094D094B5E1BAB424FEA72
:1007F000A60606D0002455F8043B01349847A642CB
:10080000F9D870BDA4750108A4750108A475010884
:10081000A8750108000000000000000000000000B2
:1008200000000000000000000000000000000000C8
:1008300000000000000000000000000000000000B8
:1008400030B490F800F020F007016FF0000C10F0C9
:10085000070491F820F040F048804FF000046FF05A
:100860000700D1E9002391F840F000F1080082FA76
:100870004CF2A4FA8CF283FA4CF3A2FA8CF34BBB41
:10088000D1E9022382FA4CF200F10800A4FA8CF2BA
:1008900083FA4CF3A2FA8CF3E3B9D1E9042382FA88
:1008A0004CF200F10800A4FA8CF283FA4CF3A2FA9D
:1008B0008CF37BB9D1E9062301F1200182FA4CF2D5
:1008C00000F10800A4FA8CF283FA4CF3A2FA8CF33C
:1008D000002BC6D0002A04BF04301A4612BAB2FA5E
:1008E00082F200EBD20030BC7047D1E9002304F063
:1008F0000305C4F100004FEAC50514F0040F91F898
:1009000040F00CFA05F562EA05021CBF63EA050334
:1009100062464FF00004AAE7830730B547D0541E63
:10092000002A3ED0CAB2034601E0013C39D303F8A5
:10093000012B9D07F9D1032C2CD9CDB205EB052550
:100940000F2C05EB054535D9A4F1100222F00F0C50
:1009500003F1100EE6444FEA121C1A46C2E9005594
:10096000C2E9025510327245F8D10CF1010214F0BF
:100970000C0F03EB021204F00F0C13D0ACF10403C4
:1009800023F003030433134442F8045B9342FBD186
:100990000CF003042CB1C9B21C4403F8011BA342A0
:1009A000FBD130BD64461346002CF4D1F9E7034671
:1009B0001446C0E71A46A446E0E700BF014B18689A
:1009C000704700BF0000002070B5104E3368054628
:1009D0000C46B3B12146284601F07AF8431C0CD0EE
:1009E000C41C24F00304A04205D0211A284601F0BB
:1009F0006FF8013001D0204670BD4FF0FF34204623
:100A000070BD194601F064F83060E3E7A4010020EE
:100A10002DE9F843CD1C25F0030508350C2D38BF12
:100A20000C25002D064618DBA94216D8DFF8DC801D
:100A300000F04EFCD8F80420A2B1144603E063682D
:100A400022467BB11C4623685B1BF8D40B2B1FD8B6
:100A50009442636854D053600CE00C233360002050
:100A6000BDE8F88329463046FFF7AEFF431C044635
:100A700019D00560304600F02DFC04F10B00231D59
:100A800020F00700C21A1CBF1B1AA350BDE8F88350
:100A900061199442256014BF5160C8F80410635175
:100AA00063684B60E6E7D8F804701FB33C467F6884
:100AB000002FFBD123683946304604EB030901F0CF
:100AC00007F8814516D12368ED1A29463046FFF70D
:100AD0007BFF01300ED02368D8F804202B4423601C
:100AE000536883B1A34203D01A465B689C42FBD192
:100AF0000023B0E70C233360304600F0EBFBAEE799
:100B0000C8F80430B6E7C8F80470B3E7A4010020C1
:100B1000002950D038B551F8043C0C1F002BB8BF49
:100B2000E418054600F0D4FB274A13682BB1A34212
:100B30000CD92168601883422CD063602846146069
:100B4000BDE8384000F0C6BBA3420FD81A465B6828
:100B5000002BF9D111685018844217D02CD3636050
:100B600054602846BDE8384000F0B4BB1168501806
:100B7000A04214D020D8216860188342EFD11868B1
:100B80005B680844C4E900035460EAE723680B4447
:100B90001360E6E718685B6808442060CDE72068CA
:100BA0000144501883421160DBD1D3E900040144B1
:100BB000C2E90014D5E770470C232B602846BDE836
:100BC000384000F087BB00BFA801002088420ED942
:100BD0008B1883420BD900EB020C002A6ED06246C0
:100BE00013F801CD02F801CD9942F9D170470F2ACF
:100BF0000FD8034602F1FF3C002A5FD00CF1010C34
:100C0000013B8C4411F8012B03F8012F6145F9D108
:100C1000704740EA01039B0751D1A2F1100370B560
:100C200001F1200C23F00F0501F1100E00F110046A
:100C3000AC441B095EF8105C44F8105C5EF80C5C78
:100C400044F80C5C5EF8085C44F8085C5EF8045CF0
:100C500044F8045C0EF1100EE64504F11004E9D1ED
:100C6000013312F00C0F01EB031102F00F0400EB43
:100C7000031328D0043C24F003064FEA940C1E44CE
:100C80001C1F8E465EF8045B44F8045FB442F9D141
:100C90000CF1010402F0030203EB840301EB840175
:100CA00002F1FF3C4AB10CF1010C013B8C4411F8FC
:100CB000012B03F8012F6145F9D170BD704702F196
:100CC000FF3C03469AE72246EAE700BF0000000027
:100CD00001F0FF01102A2BDB10F0070F08D010F8ED
:100CE000013B013A8B422DD010F0070F42B3F6D1F1
:100CF000F0B441EA012141EA014122F007047FF00A
:100D000000070023F0E80256083C85EA010586EA60
:100D1000010685FA47F5A3FA87F586FA47F6A5FA9C
:100D200087F68EB9EED1F0BC01F0FF0102F00702A8
:100D300032B110F8013B013A83EA010313B1F8D153
:100D40000020704701387047002D06BF3546033834
:100D5000073815F0010F07D1013015F4807F02BF6D
:100D6000013015F4C03F0130F0BC0138704700BFBE
:100D7000844641EA000313F003036DD1403A41D3A6
:100D800051F8043B40F8043B51F8043B40F8043B65
:100D900051F8043B40F8043B51F8043B40F8043B55
:100DA00051F8043B40F8043B51F8043B40F8043B45
:100DB00051F8043B40F8043B51F8043B40F8043B35
:100DC00051F8043B40F8043B51F8043B40F8043B25
:100DD00051F8043B40F8043B51F8043B40F8043B15
:100DE00051F8043B40F8043B51F8043B40F8043B05
:100DF00051F8043B40F8043B51F8043B40F8043BF5
:100E0000403ABDD2303211D351F8043B40F8043B94
:100E100051F8043B40F8043B51F8043B40F8043BD4
:100E200051F8043B40F8043B103AEDD20C3205D3A4
:100E300051F8043B40F8043B043AF9D2043208D09C
:100E4000D2071CBF11F8013B00F8013B01D30B880E
:100E500003806046704700BF082A13D38B078DD0EC
:100E600010F003038AD0C3F10403D21ADB071CBFBE
:100E700011F8013B00F8013B80D331F8023B20F828
:100E8000023B7BE7043AD9D3013A11F8013B00F861
:100E9000013BF9D20B7803704B7843708B788370E9
:100EA00060467047024B01461868FFF7B1BD00BFAE
:100EB00000000020024B01461868FFF729BE00BF62
:100EC000000000202DE9F041144641B30AB3064664
:100ED0000D4600F00FFE8442074602D8B4EB500FD7
:100EE00013D821463046FFF793FD804650B1BC42EF
:100EF0002246294628BF3A46FFF73AFF29463046A0
:100F0000FFF706FE4046BDE8F081A8464046BDE832
:100F1000F081A046FFF7FCFD4046BDE8F081BDE84A
:100F2000F0411146FFF774BD2DE9F84F92461F4678
:100F30000A698B68DDF828909A42B8BF1A46CAF849
:100F4000002091F843300C46064613B10132CAF82E
:100F50000020226891065FD5DAF800300233CAF823
:100F60000030226812F0060F11461DD1E168994247
:100F7000D8BF114618DD4FF0000804F1190B05E049
:100F8000E568DAF80030ED1A45450CDD01235A46D4
:100F900039463046C847013008F10108F0D14FF01A
:100FA000FF30BDE8F88F216894F84330003B18BF4C
:100FB00001238A060AD5E1185A1C302081F8430023
:100FC000224494F8451082F84310023304F143029E
:100FD00039463046C8470130E1D02368DAF800507E
:100FE000216903F00603042BD4E902201BD08A42B6
:100FF00020DD4FF00008521A90441A34002501E019
:10100000454517DA0123224639463046C8470130A4
:1010100005F10105F4D1C2E712F0060F0DD0003B37
:1010200018BF0123D2E7401B8A4220EAE078E2DCC5
:101030000028E2DC0020BDE8F88FE168DAF8003033
:101040009942D8BF114696DCAEE700BF2DE9F047C4
:10105000174684B00A7E0C9D0C460646984601F160
:10106000430C002A35D0A2F15803D9B2202969D8FF
:10107000202B67D8DFE813F0E60066006600660004
:101080006600660066006600660066006600AC00EA
:10109000700066006600660066007000660066000C
:1010A0006600660021008300C60066006600B60088
:1010B0006600830066006600EC002B6822686169A8
:1010C000181D286010061B6802D4520600F1E0804B
:1010D00019600023E1462361CDF800803B4603AA56
:1010E00021463046FFF720FF013020D023694A46D1
:1010F00039463046C047013019D02368E068DDF832
:101100000C909B0718D5484516DD002504F1190AF7
:1011100004E0E068A0EB0903AB420DDD0123524679
:1011200039463046C047013005F10105F1D14FF095
:10113000FF3004B0BDE8F0874845B8BF484604B06A
:10114000BDE8F08784F84220012004F14209002321
:10115000206184F84330BFE72A682368111D180610
:10116000296002D4590600F19580106801460028D4
:101170006268C0F2938054484FF00A0E15E0206870
:101180002B6810F0800F53F8041B02D1400648BFB3
:1011900089B26F2A4C482B6014BF4FF00A0E4FF0F3
:1011A000080E0023626884F84330002AA26051DBF5
:1011B000236823F00403236000294BD1002A7BD14C
:1011C000E146BEF1080F56D0ACEB0903236183E77B
:1011D0002B681A6804332B6004F1420984F842201A
:1011E0000120B4E72B686268191D2960D3F80090CC
:1011F00000214846FFF76CFD002863D0A0EB0900F2
:101200006060A4E7236843F02003236078222F481E
:1012100084F845202A6813F0800F52F8041B03D18C
:1012200013F0400F18BF89B22A60DA0744BF43F0B9
:101230002003236019B9236823F0200323604FF0B3
:10124000100EAEE7582384F845301F482368E1E7C5
:101250002368DBE77546E146B1FBF5F305FB131A9E
:101260000A46AA4210F80A1009F8011D1946F3D2DD
:10127000BEF1080FA8D12368DD07A5D562682369F0
:101280009A42A1DC302309F8013C09F1FF399BE7C0
:1012900019801EE7B2F90010084668E72D20002AE1
:1012A000A26084F8430002DB23F0040323600A25D4
:1012B00005484942AE46CEE7037884F8423004F14F
:1012C00042097EE7606842E7B84B0108CC4B010851
:1012D000704700BF704700BF000000000000000022
:1012E00002780B78012A28BF9A4240F0D8806DE935
:1012F000044540EA0104CDE902676FF0000C4FEAB3
:1013000044721AB380EA010414F0070F6BD100F0A5
:10131000070420F0070004F0030521F007014FEA5D
:10132000C505F0E8042314F0040FF1E804670CFA93
:1013300005F462EA040266EA04060BD063EA0403D9
:10134000624667EA0407664604E000BFF0E804234B
:10135000F1E8046782FA4CF582EA0604A4FA8CF4F8
:101360006CBB83FA4CF583EA0705A5FA8CF595B9B1
:1013700050E9022351E9026782FA4CF582EA060439
:10138000A4FA8CF483FA4CF583EA0705A5FA8CF5E8
:101390002543DBD09CB92DBAB5FA85F424F00704B7
:1013A00027FA04F1DDE9026723FA04F303F0FF00F2
:1013B00001F0FF01FDE80445A0EB0100704724BAED
:1013C000B4FA84F424F0070426FA04F1DDE9026794
:1013D00022FA04F202F0FF0001F0FF01FDE80445EB
:1013E000A0EB0100704714F0030F3CD110F0030490
:1013F00028D150F8082B51F8083B82FA4CF582EAC4
:101400000305A5FA8CF55DB950F8042C51F8043C9D
:1014100082FA4CF582EA0305A5FA8CF5002DE8D096
:101420002DBAB5FA85F424F0070423FA04F122FA60
:1014300004F202F0FF0001F0FF01FDE80445A0EB1B
:10144000010070474FEAC40420F0030050F8082B55
:1014500021F0030151F8083B0CFA04F462EA04029B
:1014600063EA0403C9E710F003041DD0A1EB0401F3
:1014700020F00300E40750F8042B06D012D28B783A
:101480005FFAA2F4E41A06D12BB1CB785FFAB2F47A
:10149000E41A00D133B920465DF8104B7047A2EB37
:1014A0000300704701F1040150F8042BCC0721F030
:1014B000030151F8043B48D824D222F07F4482FA39
:1014C0004CF594EA1325A5FA8CF50AD165B951F8C3
:1014D000043B84EA0204B4EB036F0ED150F8042BF2
:1014E000EBE74FEA132355E035F07F454DD10878FF
:1014F000FDE80445C0F1000070474FEA126203F0B6
:10150000FF0347E002EA1C4482FA4CF594EA1345D3
:10151000A5FA8CF50AD165B951F8043B84EA0204B6
:10152000B4EB034F0CD150F8042BEBE74FEA134315
:1015300030E015EA1C4528D10B884FEA124229E019
:101540004FEA124203EA1C4324E002F0FF0482FA4D
:101550004CF594EA1365A5FA8CF50AD165B951F8F2
:10156000043B84EA0204B4EB032F09D150F8042BA6
:10157000EBE74FEA13630DE015F0FF0F05D10B68A1
:101580004FEA122223F07F4304E04FF00000FDE811
:101590000445704712BA1BBA82FA4CF482EA03047B
:1015A000A4FA8CF5B5FA85F402FA04F203FA04F30E
:1015B0004FEA1260FDE80445A0EB1360704700BFDE
:1015C00008B410B5002A9DB0044636DB4FF4027310
:1015D000ADF814304FF000031B930291069120AB3D
:1015E00017D0013A4FF6FF7104920792ADF816102A
:1015F0001F9A019302A9FEF7C9FF421C01DA8B234F
:101600002360029B00221A701DB0BDE8104001B09B
:1016100070474FF6FF7104920792ADF816101F9AAB
:10162000019302A9FEF7B2FF431C01DA8B2323606A
:101630001DB0BDE8104001B070478B2303604FF030
:10164000FF30F5E70CB410B5214B00291C689CB0A5
:1016500038DB4FF000034FF402721B93ADF81420F7
:10166000029006901FAB18D001394FF6FF7204911B
:101670000791ADF8162002A91E9A01932046FEF7A5
:1016800085FF421C01DA8B232360029B00221A7023
:101690001CB0BDE8104002B070474FF6FF720491D5
:1016A0000791ADF8162002A91E9A01932046FEF775
:1016B0006DFF431C01DA8B2323601CB0BDE8104092
:1016C00002B070478B2323604FF0FF30F5E700BF77
:1016D000000000200EB400B582B003AB816853F85F
:1016E000042B019300F060F802B05DF804EB03B046
:1016F000704700BF0FB400B5074983B004AB08685A
:1017000053F8042B8168019300F04EF803B05DF8A4
:1017100004EB04B0704700BF000000209368013B59
:10172000002B936011DA10B49469A34209DB0A29F3
:1017300007D01368581C1060197008465DF8044BF8
:1017400070475DF8044B00F073B91368581C1060C3
:1017500019700846704700BF9BB1F8B513440646A0
:101760000F46541E5D1E01E0AC4208D014F8011F64
:101770003A463046FFF7D2FF431CF5D1F8BD0020B2
:10178000F8BD0020704700BF936810B514461BB920
:1017900018460023636010BD00F0B4F90023A36075
:1017A0000023636010BD00BF2DE9F04FA1B08B4650
:1017B00091461C46049018B1036A002B00F01C816E
:1017C000BBF80C30180740F19580DBF81030002B87
:1017D00000F090800023CA460D9343F22003ADF839
:1017E00039309AF80030864E07940127002B79D0C3
:1017F000D14604E019F8013F002B00F08580252B2D
:10180000F8D1B9EB0A0840F0828099F80030002B3B
:1018100068D000234FF0FF32CDE9092309F1010917
:1018200008930B938DF863301E9305E0089A07FA2E
:1018300003F31A430892A1464C46052214F8011BF3
:101840003046FFF745FAA246831B0028EED1089BDD
:10185000D90644BF20228DF8632099F800101A079A
:1018600044BF2B228DF863202A2966D1079A11687C
:10187000043200290792C0F29A800B9199F8011066
:101880002E2970D05F4C03222046FFF721FA38B191
:10189000089B001B4022824013430AF1010A08936F
:1018A0001AF8011B58488DF838100622FFF710FA75
:1018B000002800F08280554B002B69D007AA0092C7
:1018C000534B04985A4608A9AFF300800390039B3A
:1018D000013307D00D9B039A13440D939AF80030FF
:1018E000002B85D1BBF80C305B060AD40D9821B0D3
:1018F000BDE8F08F0498594600F08CFC00283FF4B6
:1019000069AF4FF0FF30F2E7B9EB0A08EAD00AF10D
:10191000FF35CDF81490A946049D01E0A0453ED9BD
:101920004C465A4619F8011F2846FFF7F7FE0234C5
:101930000130A4EB0A04F1D1D4E7A1F13002092A65
:1019400088BFCA469CD80B9B00E00134217803EB8A
:10195000830302EB4303A1F13002092AF5D92E29B2
:101960000B93A2468ED19AF801102A292FD1079BFA
:101970009AF802101A6809920433002A0AF1020048
:101980000793B8BF4FF0FF338246B8BF099379E79A
:10199000079B073323F00703083307939AE70D9952
:1019A000DDF81490414499F800300D912FE7494239
:1019B00043F002030B91089360E707AA0092144BCF
:1019C00004985A4608A9FFF741FB03907FE7A1F16D
:1019D00030020023092A09930AF1010A3FF652AFA7
:1019E0001AF8011F03EB830302EB4303A1F130025A
:1019F000092AF5D9099345E700F0EEFAE0E600BFC1
:101A0000A44B0108AC4B0108B04B010800000000DA
:101A10005917000810B4054C8446134620685DF839
:101A2000044B0A466146FFF7BFBE00BF000000201E
:101A3000F8B50D461446064610B1036A002B37D0A0
:101A4000A389A269A2601A0719D52369BBB12268CC
:101A50006169D31AEDB299422F4620DD0133A168A6
:101A60000139A160511C2160157062699A420DD044
:101A7000A389DB0701D50A2D08D03846F8BD2146D9
:101A8000304600F0C7FB38B92369E0E7214630460D
:101A900000F05CFB0028F0D04FF0FF37EDE7214667
:101AA000304600F053FB0028F6D122680123D6E728
:101AB00000F092FAC4E700BF10B4044C03460A4693
:101AC00020685DF8044B1946FFF7B2BF0000002004
:101AD00038B5074D0022044608462A6001F0F6FB9F
:101AE000431C00D038BD2B68002BFBD0236038BDD1
:101AF000E802002051F8043C181F002BBCBF0B5813
:101B0000C01870479368002B00F0F8802DE9F04F63
:101B1000B1F90CC01CF0080F83B0904681460C460A
:101B200031D00B697BB31CF00207D8F8006038D0C5
:101B30000027D4F828B0216ADFF8C4A23D465545F5
:101B40002B463A4628BF53464846C5B1D8470028D9
:101B500040F3CA80D8F808301B1A07442D1AC8F879
:101B60000830002B00F0B68055452B46D4F828B03D
:101B7000216A28BF53463A464846002DE6D1D6E9A9
:101B800000750836DBE72146484600F043FB002895
:101B900040F0AF80B4F90CC0D8F800601CF0020728
:101BA000C6D11CF0010A63D12368A16857461846C4
:101BB0008B46002F58D01CF4007F00F0B580B9424E
:101BC0000A4600F2E1801CF4906F2FD0216962690F
:101BD0005D1A02EB420202EBD2726B1C52103B44C4
:101BE000934292BF93469B461A461CF4806F00F0C6
:101BF000EA8011464846FEF70BFF002800F0F98006
:101C00002A4621690090FFF7B3F8A289009B22F4CD
:101C1000906242F08002A2815819ABEB0505C4F82E
:101C200014B02361A5602060BB463A46514600923D
:101C3000FEF7CCFFA1682368009AA1EB0B011A44C0
:101C40003D46A16022600027D8F808305B1BAA44FB
:101C5000C8F80830002B3DD02368A168B4F90CC047
:101C600018468B46002FA6D1D6E900A708369EE776
:101C70003846BB463D460097002D41D0002846D04F
:101C8000009A2068A168D4E90473AA4228BF2A46B2
:101C9000B84204D901EB030A524500F38580934210
:101CA00075DC216AA76A5A464846B847B0F1000A6F
:101CB0001ADD009BB3EB0A0300930FD00120D8F884
:101CC0000830A3EB0A03D344A5EB0A05C8F8083093
:101CD000002BD1D1002003B0BDE8F08F214648464B
:101CE00000F034FA0028EAD0B4F90C3043F0400395
:101CF000A3814FF0FF3003B0BDE8F08F00207047A4
:101D0000756833460836002DFAD0D3F800B02A465D
:101D10000A215846FEF7DCFF002867D00130A0EB0F
:101D20000B0300931A46ACE722699A4214D3626906
:101D3000BA4211D86FF00043BB4228BF3B46A56AA8
:101D400093FBF2F3216A02FB03F348465246A8478D
:101D5000051EC9DD7F1B77E7B94228BF39460D460E
:101D600018460A465146FEF731FFA1682368491B11
:101D70002B44A16023600029ECD12146484600F0A5
:101D8000E5F90028E6D0AFE7BB463A464EE75946AC
:101D90000192FEF71BFF019AA3689B1AA3602368B8
:101DA00013442360924684E759465246FEF70EFFDD
:101DB0002368534423602146484600F0C7F90028B1
:101DC0003FF477AF90E74846FFF77CF803460028DA
:101DD0007FF422AF21694846FEF79AFEB4F90C3031
:101DE0000C22C9F8002023F080037FE76A1C0092D0
:101DF00047E70C22B4F90C30C9F8002076E700BFA1
:101E000000FCFF7F00207047024A0349034800F0AE
:101E1000DFB900BF500000204D2100080400002061
:101E20000C4B4168994210B5044601D000F08EF980
:101E3000A168094B994202D0204600F087F9E16879
:101E4000064B994204D02046BDE8104000F07EB910
:101E500010BD00BFAC010020140200207C02002055
:101E6000002070472DE9F8432A4C2B49DFF8BC903D
:101E7000DFF8BC80294FC4F838110025042308225C
:101E8000294604F15C00264EE360C4E90055C4E92C
:101E90000455A5606566A561FEF73EFD214B6367AD
:101EA0000822294604F1C400C4E90849C4E90A87A4
:101EB000C4E91A55C4E91E552567C4F8CC50C4F8C6
:101EC00080502663FEF728FD174BC4F8DC30294606
:101ED00004F16803082204F59670C4F88830C4E958
:101EE0002398C4E92576C4E93455C4E93855C4F8C3
:101EF000D850C4F83451C4F8E850FEF70DFD04F191
:101F0000D003C4E93D98C4E93F76C4F8F030BDE899
:101F1000F88300BFAC010020091E000879240008E6
:101F20009D2400080900010012000200112400088D
:101F300039240008F8B5254BD3F838310646002B74
:101F40003CD0234FD7E90134013B04D51DE05A1C96
:101F500004F1680419D0B4F90C50013B002DF6D1FE
:101F60001C4BE360C4E90155C4E90455656625606E
:101F7000A5610822294604F15C00FEF7CDFCC4E906
:101F80000D55C4E912552046F8BD3D680DB12F46E8
:101F9000D8E74FF4D6713046FEF73AFD044680B1DB
:101FA0000423C0E900530C302946A0604FF4D072DE
:101FB0002546FEF7B1FC3C602F46C3E7FFF752FF12
:101FC000BFE70C2338603360DDE700BFAC010020C1
:101FD000500000200100FFFF036A03B17047044B6B
:101FE000044AD3F838310262002BF7D13AE700BF38
:101FF000AC010020211E0008704700BF704700BFE1
:10200000024A0349002000F0E3B800BF500000205E
:10201000051E0008024A0349002000F0D9B800BF9D
:1020200050000020611E0008B1F90C302DE9F0418C
:102030001E070C4680463DD44A68002A56DDE56AF4
:10204000002D34D00022D8F80060C8F8002013F426
:102050008052216A57D101234046A847451C0246B9
:1020600066D0B4F90C30E56A216A580705D5636873
:10207000D21A636B0BB1236CD21A00234046A847D7
:10208000431C42D00023636023692360A389DF04DB
:1020900000D56065616BC8F8006041B104F144038C
:1020A000994202D04046FEF733FD002363630020CF
:1020B000BDE8F0810E69002EF9D09B070D6808BFBE
:1020C0004B690E6018BF0023AD1B8B600BE02B46E5
:1020D0003246216AA76A4046B847B0F1000CA5EB2A
:1020E0000C05664406DD002DF1DCE0E70A6C002AF1
:1020F000A5DCDCE7B4F90C3043F04003A3814FF0DA
:10210000FF30BDE8F081626DAFE7D8F80010B4F998
:102110000C301D29F0D80C4ACA40D507ECD52269ED
:10212000226000226260DA04B4D50029B1D0B1E7A0
:10213000D8F80030002B94D01D2B01D0162BD9D10C
:10214000C8F80060B3E700BF010040200B69B3B1DD
:1021500010B5044682B008B1036A5BB1B1F90C3026
:1021600013B9002002B010BD204602B0BDE81040F7
:10217000FFF75ABF0191FFF72FFF0199EEE700200B
:10218000704700BFB8B138B50D4A036915680446F9
:102190002BB10DB12B6A53B1B4F90C300BB900203F
:1021A00038BD21462846BDE83840FFF73DBF2846E8
:1021B000FFF712FFF0E7034A0349044800F008B8AC
:1021C00000000020500000204D21000804000020E5
:1021D0002DE9F8430746884616464FF00009D6E930
:1021E0000154013D10D4A389012B08D9B4F90E3054
:1021F00001332146384602D0C04749EA0009013D73
:102200006B1C04F16804EED13668002EE7D1484615
:10221000BDE8F88338B52F4B1B6805460C4613B153
:102220001A6A002A4BD0B4F90C3018071CD5226961
:1022300022B313F0010107D0616900204942A06078
:10224000A1613AB1002038BD980758BF6169A1600B
:10225000002AF7D1190658BF1046F4D543F04003C1
:10226000A3814FF0FF3038BDD9062CD55A0712D4C0
:10227000226943F00803A381002ADAD103F4207114
:10228000B1F5007FD5D02146284600F025F8B4F9F5
:102290000C302269CDE7616B51B104F144029142E7
:1022A00004D02846FEF734FCB4F90C3000226263F7
:1022B00022690021C4E9002123F02403D9E718464C
:1022C000FFF78AFEAFE7092243F040032A60A381AB
:1022D000C7E700BF0000002070B5B1F90C300C4614
:1022E000990796B007D504F147030122C4E90432E7
:1022F000236016B070BDB4F90E100029054629DB25
:102300006A4600F0F7F8002822DB4FF48061284687
:10231000019EFEF77DFB88B3A389206043F0800314
:1023200006F47046A381B6F5005F4FF48063C4E9FC
:102330000403DED1B4F90E10284600F057F8002847
:10234000D7D0A38923F0030343F00103A381D0E78F
:10235000B4F90C3013F0800F14BF40264FF48066A0
:1023600031462846FEF754FB40B1A389206043F074
:102370008003C4E90406A38116B070BDB4F90C3023
:102380009A05B6D423F0030304F1470243F0020395
:102390000121C4E90421A3812260AAE770B50C469B
:1023A000B1F90E10002996B015461E460FDB6A469D
:1023B00000F0A0F800280ADB019B03F47043A3F5AA
:1023C0000053B3FA83F34FF480625B0908E0A289FB
:1023D00012F0800F4FF0000314BF40224FF48062D0
:1023E000002033602A6016B070BD00BF38B5074DBD
:1023F0000022044608462A6000F064FF431C00D017
:1024000038BD2B68002BFBD0236038BDE8020020CC
:1024100010B50C46B1F90E1000F056F8002803DB99
:10242000636D0344636510BDA38923F48053A381C6
:1024300010BD00BF002070472DE9F0410C46B1F9F6
:102440000C101F46CB05054616460BD421F48051CF
:10245000A1813B46B4F90E1032462846BDE8F04152
:1024600000F074B8B4F90E100223002200F058F8FE
:10247000B4F90C10EAE700BF10B50C46B1F90E1024
:1024800000F04EF8B4F90C30421C0EBF23F4805318
:1024900043F480536065A38110BD00BFB1F90E10F5
:1024A00000F000B838B5074D0022044608462A60FF
:1024B00000F000FF431C00D038BD2B68002BFBD080
:1024C000236038BDE802002038B50C46084D84462C
:1024D000114620461A4600232B60644600F0DAFEBF
:1024E000431C00D038BD2B68002BFBD0236038BDC7
:1024F000E802002070B50C46084D03460026204631
:1025000011461C462E6000F0D8FE431C00D070BD62
:102510002B68002BFBD0236070BD00BFE8020020B9
:1025200038B50C46084D8446114620461A4600230D
:102530002B60644600F0C8FE431C00D038BD2B68F9
:10254000002BFBD0236038BDE802002038B50C46D4
:10255000084D8446114620461A4600232B606446E7
:1025600000F088FE431C00D038BD2B68002BFBD048
:10257000236038BDE802002081F0004102E000BF86
:1025800083F0004330B54FEA41044FEA430594EA33
:10259000050F08BF90EA020F1FBF54EA000C55EA6E
:1025A000020C7FEA645C7FEA655C00F0E2804FEA3F
:1025B0005454D4EB5555B8BF6D420CDD2C4480EA21
:1025C000020281EA030382EA000083EA010180EA51
:1025D000020281EA0303362D88BF30BD11F0004F9F
:1025E0004FEA01314FF4801C4CEA113102D04042D5
:1025F00061EB410113F0004F4FEA03334CEA133310
:1026000002D0524263EB430394EA050F00F0A78027
:10261000A4F10104D5F1200E0DDB02FA0EFC22FA22
:1026200005F2801841F1000103FA0EF2801843FA16
:1026300005F359410EE0A5F120050EF1200E012A07
:1026400003FA0EFC28BF4CF0020C43FA05F3C01845
:1026500051EBE37101F0004507D54FF0000EDCF1BE
:10266000000C7EEB00006EEB0101B1F5801F1BD367
:10267000B1F5001F0CD349085FEA30004FEA3C0C6B
:1026800004F101044FEA445212F5800F80F09A8061
:10269000BCF1004F08BF5FEA500C50F1000041EB65
:1026A000045141EA050130BD5FEA4C0C404141EB69
:1026B0000101013C28BFB1F5801FE9D291F0000F64
:1026C00004BF01460020B1FA81F308BF2033A3F113
:1026D0000B03B3F120020CDA0C3208DD02F1140C0A
:1026E000C2F10C0201FA0CF021FA02F10CE002F145
:1026F0001402D8BFC2F1200C01FA02F120FA0CFC3E
:10270000DCBF41EA0C019040E41AA2BF01EB045186
:10271000294330BD6FEA04041F3C1CDA0C340EDC84
:1027200004F11404C4F1200220FA04F001FA02F3C7
:1027300040EA030021FA04F345EA030130BDC4F185
:102740000C04C4F1200220FA02F001FA04F340EA7A
:102750000300294630BD21FA04F0294630BD94F02B
:10276000000F83F4801306BF81F480110134013D12
:102770004EE77FEA645C18BF7FEA655C29D094EA83
:10278000050F08BF90EA020F05D054EA000C04BF01
:102790001946104630BD91EA030F1EBF00210020EC
:1027A00030BD5FEA545C05D14000494128BF41F08B
:1027B000004130BD14F580043CBF01F5801130BDEF
:1027C00001F0004545F0FE4141F470014FF000007A
:1027D00030BD7FEA645C1ABF194610467FEA655C2B
:1027E0001CBF0B46024650EA013406BF52EA0335CD
:1027F00091EA030F41F4002130BD00BF90F0000FBB
:1028000004BF0021704730B54FF4806404F13204F6
:102810004FF000054FF0000150E700BF90F0000FAF
:1028200004BF0021704730B54FF4806404F13204D6
:1028300010F0004548BF40424FF000013EE700BFA6
:1028400042004FEAE2014FEA31014FEA02701FBF36
:1028500012F07F4393F07F4F81F06051704732F068
:102860007F4208BF704793F07F4F04BF41F40021BF
:10287000704730B54FF4607401F0004521F000411D
:102880001CE700BF50EA010208BF704730B54FF0A7
:1028900000050AE050EA010208BF704730B511F0A8
:1028A000004502D5404261EB41014FF4806404F1E0
:1028B00032045FEA915C3FF4D8AE4FF003025FEA66
:1028C000DC0C18BF03325FEADC0C18BF033202EBEA
:1028D000DC02C2F1200300FA03FC20FA02F001FA44
:1028E00003FE40EA0E0021FA02F11444BDE600BFE7
:1028F00070B54FF0FF0C4CF4E06C1CEA11541DBF96
:102900001CEA135594EA0C0F95EA0C0F00F0DEF860
:102910002C4481EA030621EA4C5123EA4C5350EA45
:10292000013518BF52EA033541F4801143F4801396
:1029300038D0A0FB02CE4FF00005E1FB02E506F027
:102940000042E0FB03E54FF00006E1FB03569CF07C
:10295000000F18BF4EF0010EA4F1FF04B6F5007F82
:1029600064F5407404D25FEA4E0E6D4146EB0606F4
:1029700042EAC62141EA55514FEAC52040EA5E507D
:102980004FEACE2EB4F1FD0C88BFBCF5E06F1ED827
:10299000BEF1004F08BF5FEA500E50F1000041EB5E
:1029A000045170BD06F0004646EA010140EA02000B
:1029B00081EA0301B4EB5C04C2BFD4EB0C0541EA2D
:1029C000045170BD41F480114FF0000E013C00F342
:1029D000AB8014F1360FDEBF002001F0004170BD66
:1029E000C4F10004203C35DA0C341BDC04F114047F
:1029F000C4F1200500FA05F320FA04F001FA05F20B
:102A000040EA020001F0004221F0004110EBD370D7
:102A100021FA04F642EB06015EEA430E08BF20EA03
:102A2000D37070BDC4F10C04C4F1200500FA04F3A6
:102A300020FA05F001FA04F240EA020001F0004138
:102A400010EBD37041F100015EEA430E08BF20EAAB
:102A5000D37070BDC4F1200500FA05F24EEA020EF3
:102A600020FA04F301FA05F243EA020321FA04F022
:102A700001F0004121FA04F220EA020000EBD370D9
:102A80005EEA430E08BF20EAD37070BD94F0000FD9
:102A90000FD101F00046400041EB010111F4801F0D
:102AA00008BF013CF7D041EA060195F0000F18BFBE
:102AB000704703F00046520043EB030313F4801FFA
:102AC00008BF013DF7D043EA0603704794EA0C0FB4
:102AD0000CEA135518BF95EA0C0F0CD050EA4106CA
:102AE00018BF52EA4306D1D181EA030101F0004147
:102AF0004FF0000070BD50EA410606BF104619466F
:102B000052EA430619D094EA0C0F02D150EA01367A
:102B100013D195EA0C0F05D152EA03361CBF1046BB
:102B200019460AD181EA030101F0004141F0FE415A
:102B300041F470014FF0000070BD41F0FE4141F4DE
:102B4000780170BD70B54FF0FF0C4CF4E06C1CEADE
:102B500011541DBF1CEA135594EA0C0F95EA0C0F93
:102B600000F0A7F8A4EB050481EA030E52EA03354E
:102B70004FEA013100F088804FEA03334FF080556F
:102B800045EA131343EA12634FEA022245EA11159C
:102B900045EA10654FEA00260EF000419D4208BF4D
:102BA000964244F1FD0404F5407402D25B084FEAFA
:102BB0003202B61A65EB03055B084FEA32024FF4A6
:102BC00080104FF4002CB6EB020E75EB030E22BF03
:102BD000B61A754640EA0C005B084FEA3202B6EBC3
:102BE000020E75EB030E22BFB61A754640EA5C0072
:102BF0005B084FEA3202B6EB020E75EB030E22BF02
:102C0000B61A754640EA9C005B084FEA3202B6EB02
:102C1000020E75EB030E22BFB61A754640EADC00C1
:102C200055EA060E18D04FEA051545EA16754FEA23
:102C300006164FEAC30343EA52734FEAC2025FEA41
:102C40001C1CC0D111F4801F0BD141EA00014FF0D0
:102C500000004FF0004CB6E711F4801F04BF0143A1
:102C60000020B4F1FD0C88BFBCF5E06F3FF6AFAEBD
:102C7000B5EB030C04BFB6EB020C5FEA500C50F14D
:102C8000000041EB045170BD0EF0004E4EEA1131D0
:102C900014EB5C04C2BFD4EB0C0541EA045170BDD7
:102CA00041F480114FF0000E013C90E645EA060E1B
:102CB0008DE60CEA135594EA0C0F08BF95EA0C0F49
:102CC0003FF43BAF94EA0C0F0AD150EA01347FF491
:102CD00034AF95EA0C0F7FF425AF104619462CE768
:102CE00095EA0C0F06D152EA03353FF4FDAE1046CB
:102CF000194622E750EA410618BF52EA43067FF41C
:102D0000C5AE50EA41047FF40DAF52EA43057FF4AB
:102D1000EBAE12E753B94AB9002908BF00281CBF1F
:102D20004FF0FF314FF0FF3000F06AB9ADF1080C01
:102D30006DE904CE00F006F8DDF804E0DDE90223D9
:102D400004B070472DE9F047089D0E4604460F4633
:102D5000002B4AD194468C45B2FA82F260D942B136
:102D6000C2F12003974020FA03F30CFA02FC1F4340
:102D700094404FEA1C4E1FFA8CF6B7FBFEF1230C71
:102D80000EFB117743EA074301FB06F098420AD98C
:102D90001CEB030301F1FF3780F01581984240F2EC
:102DA0001281023963441B1AA4B2B3FBFEF00EFB7E
:102DB000103344EA034400FB06F6A6420AD91CEB92
:102DC000040400F1FF3380F00081A64240F2FD8050
:102DD0006444023840EA0140A41B00211DB1D440E4
:102DE0000023C5E90043BDE8F0878B4205D90DB14A
:102DF000C5E9000100210846F5E7B3FA83F100298F
:102E000046D1B34202D3824200F2F580841A66EBC7
:102E1000030201201746002DE5D0C5E90047E2E78F
:102E2000002A40F09380A1EB0C034FEA1C471FFAE5
:102E30008CFE0121B3FBF7F607FB1630230C43EAA7
:102E400000430EFB06F0984208D91CEB030306F181
:102E5000FF3802D2984200F2D08046461B1AA4B234
:102E6000B3FBF7F007FB103344EA03440EFB00FE0C
:102E7000A64508D91CEB040400F1FF3302D2A64595
:102E800000F2B6801846A4EB0E0440EA0640A5E71F
:102E9000C1F120078B4022FA07FC4CEA030C06FA2A
:102EA00001FE20FA07F426FA07F344EA0E0400FABA
:102EB00001F84FEA1C404FEA1449B3FBF0FE1FFA39
:102EC0008CF600FB1E3349EA03430EFB06F99945D5
:102ED00002FA01F20BD91CEB03030EF1FF3A80F06A
:102EE0008580994540F28280AEF1020E6344A3EBE7
:102EF0000909A4B2B9FBF0F300FB139944EA0944B1
:102F000003FB06F6A64208D91CEB040403F1FF30CC
:102F100068D2A64266D9023B644443EA0E40A41B31
:102F2000A0FB02E6B4427346B14652D34FD05DB126
:102F3000B8EB030264EB090404FA07F722FA01F381
:102F40001F43CC40C5E9007400214CE7C2F12001C9
:102F500020FA01F30CFA02FC26FA01F19640334301
:102F60004FEA1C471FFA8CFEB1FBF7F007FB101667
:102F7000190C41EA064100FB0EF68E4204FA02F4F7
:102F800008D91CEB010100F1FF382DD28E422BD95C
:102F900002386144891B9BB2B1FBF7F607FB16119F
:102FA00043EA014306FB0EF1994208D91CEB0303E7
:102FB00006F1FF3814D2994212D9023E63445B1ADB
:102FC00046EA004136E73946EDE6184602E7F045A5
:102FD000ADD2BEEB020366EB0C060138B146A6E7A4
:102FE0004646ECE7034698E74046D3E7D6467EE7F9
:102FF0006444023847E708460DE7023E63442DE784
:10300000704700BFFEE7000008B502490248FEF71E
:1030100071FBFEE72AED00E0F8420108FEE7FEE75B
:10302000FEE770477047704708B502F00BFF08BD18
:1030300008B5034802F060FD0BF0E2FD08BD00BFDB
:10304000642F002008B5012002F0FEFB08BD08B582
:10305000022002F0F9FB08BD08B5102002F0F4FBD5
:1030600008BD08B5202002F0EFFB802002F0ECFB49
:1030700008BD000008B5024801F076F808BD00BFA1
:103080006427002082B0002100910B4B5A6C42F45F
:1030900080425A645A6C02F480420092009A019174
:1030A0001A6C42F080521A641B6C03F08053019337
:1030B000019B02B0704700BF0038024070B588B075
:1030C000002303930493059306930793026803F187
:1030D000804303F590339A4201D008B070BD044696
:1030E0000025009503F58C335A6C42F480725A64C3
:1030F0005A6C02F480720092009A01951A6B42F0A9
:1031000001021A631A6B02F001020192019A029500
:103110001A6B42F002021A631B6B03F00203029364
:10312000029BB22303930326049603A9134802F0DB
:103130001FFA012303930496059503A9104802F092
:1031400017FA1048104B036045608560C5604FF466
:10315000806303614FF4805343614FF48043836184
:10316000C5610562456202F0F9FB18B9054BA3631E
:103170009C63B2E707F0CEFFF8E700BF0000024013
:1031800000040240642F00201064024002680B4BD0
:103190009A4200D0704710B50446094A536C23F494
:1031A00080735364B221074802F0C6FA0121064831
:1031B00002F0C2FAA06B02F037FC10BD0020014003
:1031C00000380240000002400004024000B589B00F
:1031D000002303930493059306930793026803F176
:1031E000804303F588339A4202D009B05DF804FBAE
:1031F0000021019103F594335A6C42F010025A6495
:103200005A6C02F010020192019A02911A6B42F07C
:1032100002021A631B6B03F002030293029B40231A
:103220000393122304930123059303230693072397
:10323000079303A9014802F09BF9D6E70004024076
:10324000034AD2F8883043F47003C2F888307047DC
:1032500000ED00E000B583B001904FF6FF7301224E
:1032600001A9034803F041FA019803B05DF804FB9B
:10327000202F002070B50C461646002504E014F8F7
:10328000010BFFF7E7FF0135B542F8DB304670BDB3
:103290000020704770B50C461646002506E0FFF783
:1032A000F7FF214601F8010B01350C46B542F6DB6C
:1032B000304670BD4FF0FF3070474FF400534B6005
:1032C00000207047012070470020704708B5034672
:1032D0000C4A126852B10B4A106803440A490B4A5F
:1032E000521A934206D8074A136008BD054A084996
:1032F0001160F0E7FDF762FB0C2303604FF0FF3035
:10330000F3E700BFEC0200200008000000000120ED
:103310005899002008B50349034806F0C1F8034B4B
:10332000187008BD84230020F84B01088823002072
:10333000002070470020704708B50146034807F099
:1033400063FA08B1002008BD0120FCE78C230020AF
:1033500010B590B0044600930B4601460D4807F0A7
:103360008BFA08B910B010BD03AA2146094807F02E
:103370005EFA9DF81930282B07D03A2B07D0042B82
:1033800001D00120EEE70320ECE70320EAE7032069
:10339000E8E700BF8C23002030B58FB00C461546FF
:1033A000032924D8DFE801F002050E1808460FB003
:1033B00030BD01AA0146124807F039FAC8B9029B8C
:1033C0002B60F4E701AA01460D4807F030FA90B9E6
:1033D000BDF80C302B60EAE701AA0146084807F067
:1033E00026FA50B9BDF80C305B0A2B60DFE70420E9
:1033F000DDE72046DBE70120D9E70120D7E700BF62
:103400008C23002010B590B0044600930B46014673
:10341000104807F07CFA08B910B010BD03AA214685
:103420000C4807F004FA9DF81930272B0ED005D967
:10343000282B0DD03A2B07D00120EDE7042B01D02B
:103440000120E9E70320E7E70320E5E70220E3E7BF
:103450000320E1E78C23002008B5042912D00529B8
:103460000AD002290DD1094B02221A7007F05EFF23
:10347000074807F09DFF04E0044B03221A7007F091
:1034800077FF08BD014B01221A70FAE7892300205B
:103490000C43010808B501220B490C4806F0E7F976
:1034A00048B90B49094806F001FA38B9074806F04F
:1034B00042FA30B908BD07F02DFEF2E707F02AFE08
:1034C000F4E707F027FEF5E7593400088C230020C5
:1034D0006800002008B5024806F037FA08BD00BFB2
:1034E0008C23002030B589B0002303930493059307
:1034F000069307930368B3F1A04F01D009B030BD24
:1035000000250195164C236B43F001032363236BC5
:1035100003F001030193019B4FF4C0530393022373
:103520000493032306930A23079303A90D4802F08B
:103530001FF8636B43F0800363630295636C43F48D
:1035400080436364636C03F480430293029B2A46C6
:103550002946432002F004FC432002F011FCCDE791
:10356000003802400000024008B5D0F8000306F021
:103570002AFB08BD08B5D0F8000306F035FB08BDEE
:1035800008B5D0F8000306F039FB08BD704708B550
:10359000D0F8000306F020FB08BD08B5D0F8000302
:1035A00006F01EFB08BD000090F8CC33012B01D0C3
:1035B0000020704710B504460F48C0F80043C4F817
:1035C000D0034FF0A0430360082383600123C3604E
:1035D0000023036102228261C36100F05CF940B9FB
:1035E000054800F0A2FE0146204606F0E9FA002058
:1035F00010BD07F08FFDF3E76427002008B5D0F871
:10360000D00300F097FE012804D0022804D020B196
:10361000012002E0012000E0022008BD08B5D0F83A
:10362000D00300F07DFE08BD08B5D0F8D00300F04F
:1036300071FE08BD08B5C82002F016FC002008BDC8
:10364000D0F8D0332C2000FB013090F83B0030B193
:103650002C2000FB013181F85420002070472C20E1
:1036600000FB013181F85520F7E7D0F8D0332C2248
:1036700002FB013292F83B202AB12C2202FB0131DD
:1036800091F8540070472C2202FB013191F855004B
:10369000704708B502F0E8FB08BD022805D8DFE84E
:1036A00000F005040200012070470220704708B5B1
:1036B000D0F8D00300F002FEFFF7EFFF08BD08B519
:1036C000D0F8D00300F00FFEFFF7E7FF08BD08B504
:1036D000D0F8D00300F019FEFFF7DFFF08BD10B5EA
:1036E00084B0D0F8D003BDF8204002949DF81C406F
:1036F00001949DF81840009400F074F8FFF7CDFF96
:1037000004B010BD08B5D0F8D00300F0B2F8FFF750
:10371000C4FF08BD10B584B0D0F8D0039DF8244094
:103720000394BDF820400294079C01949DF8184032
:10373000009400F002F9FFF7B0FF04B010BD0000E4
:10374000F8B50668346A04F00F07C4F34343C4F3C2
:103750000A14022B00D0F8BD0546002CFBD02C2308
:1037600003FB0703596C0029F5D02C2303FB070347
:103770001A6D2244DB6C9A4206D92C2303FB070501
:10378000042385F86030E6E72246304600F095FED7
:103790002C2303FB07535A6C22445A641A6D2244AB
:1037A0001A6506EB4716D6F81025B3F84030A34249
:1037B000D1D10B4B1340002BCDD0D6F8003523F0E0
:1037C000804343F00043C6F800352C2303FB075326
:1037D00093F8542082F0010283F85420BBE700BF25
:1037E0000000F81FF0B585B004469DF828509DF8FC
:1037F0002C60BDF8307090F8F802012837D0012015
:1038000084F8F8022C2000FB01404FF0000C80F8F7
:103810003DC080F83830A0F8407080F8391080F84A
:103820003F6002F07F0C80F83AC012F0800F16D192
:103830002C2000FB01404FF0000C80F83BC02C20F6
:1038400000FB014080F83C500297019600952068EB
:1038500000F077FF002384F8F83205B0F0BD2C208B
:1038600000FB01404FF0010C80F83BC0E7E702206D
:10387000F3E790F8F832012B0BD010B50446012382
:1038800080F8F832006800F0EFFF002084F8F802BA
:1038900010BD0220704700284DD070B58AB0044694
:1038A000056890F8F932002B40D0032384F8F932F0
:1038B000EB6B13F4807F01D100232361206800F0BB
:1038C000B0FDA4465CF8106BEE46BCE80F00AEE815
:1038D0000F00BCE80F00AEE80F009CE803008EE884
:1038E0000300251D95E80E00304600F04FFD012134
:1038F000206800F00DFEA4465CF8106BEE46BCE8B4
:103900000F00AEE80F00BCE80F00AEE80F009CE827
:1039100003008EE8030095E80E00304600F02AFE12
:10392000012384F8F93200200AB070BD80F8F83223
:10393000FFF7D8FDB9E70120704770B59DF810502A
:10394000BDF818604FF02C0C0CFB010C8CF83B20E0
:103950008CF83F307DB964464FF0030C84F842C0C8
:103960009DF81CC084F83DC0032B00F28180DFE885
:1039700003F00A7929512C2404FB01044FF0020CB6
:1039800084F842C0F0E7012D72D1002A70D12EB91F
:103990002C2303FB0103012283F855202C2303FB76
:1039A000010393F8553033B92C2303FB01030022A4
:1039B00083F842205CE02C2303FB0103022283F8FE
:1039C000422055E092B92C2303FB010393F85530B4
:1039D0002BB92C2303FB010383F8422048E02C235E
:1039E00003FB0103022283F8422041E02C2303FB66
:1039F000010393F8543033B92C2303FB0103002255
:103A000083F8422034E02C2303FB0103022283F8D5
:103A100042202DE092B92C2303FB010393F855308B
:103A20002BB92C2303FB010383F8422020E02C2335
:103A300003FB0103022283F8422019E02C2303FB3D
:103A4000010393F8543033B92C2303FB0103002204
:103A500083F842200CE02C2303FB0103022283F8AD
:103A6000422005E02C2303FB0103002283F84220BF
:103A70002C2301FB03F3C218059C5464D664002474
:103A800082F86040146582F8391082F8614003F1D1
:103A90003801027C0144006800F06AFF70BD30B557
:103AA00083B004460568D5F840340193D5F8403416
:103AB0000093009B23F02E030093019B13F0020F51
:103AC00007D0019B13F0010F25D1009B43F00203A7
:103AD0000093019B13F0080F10D0009B43F00803E4
:103AE0000093019B13F0040F2DD0A369022B15D076
:103AF000E368012B22D02046FFF749FD019B13F01C
:103B0000200F03D0009B43F020030093009BC5F8D7
:103B1000403403B030BDFFF72DFDD6E7019B03F421
:103B2000C023B3F5802F04D00121206800F098FD58
:103B3000E1E70221206800F093FDDCE74EF6602209
:103B4000C5F80424D7E72046FFF727FDD6E7F8B5E8
:103B500005460E46076807EB411707F5A064A36802
:103B600013F0040F2AD00423A360E36843F0020398
:103B7000E360A36813F4007F7DD1A36813F0010F05
:103B800000F0D2802B6943B12C2303FB06539A6CBF
:103B90002169C1F31201521A1A652C2303FB065343
:103BA000012283F861200021D965A26093F83F309B
:103BB000032B76D8DFE803F06B936B82A36813F4D2
:103BC000807F06D1A36813F0200F13D02023A360B9
:103BD000CFE74FF48073A3602C2303FB010307227C
:103BE00083F86120E36843F00203E360006800F0BB
:103BF0003BFEBEE7A36813F0080F17D1A36813F4C8
:103C0000806F25D1A36813F0800FB2D0E36843F032
:103C10000203E3602C2303FB0103062283F86120E7
:103C2000006800F021FE8023A360A2E7E36843F070
:103C30000203E3602C2303FB0103052283F86120C8
:103C40001023A3600823A360006800F00DFE90E736
:103C5000E36843F00203E3602C2303FB0103082223
:103C600083F861201023A3604FF48063A360006891
:103C700000F0FAFD7DE7E36843F00203E3603146BC
:103C8000286800F0F1FD4FF40073A360F8BDE3680D
:103C900043F00203E3603146286800F0E5FD10239D
:103CA000A3602B69012B2AD02C2303FB065393F826
:103CB000542082F0010283F85420E7E7D7F800355A
:103CC00043F00053C7F800352C2303FB06530122B1
:103CD00083F8602031462846FFF758FCE1E72C23A3
:103CE00003FB0653012283F8602093F854105140DF
:103CF00083F8541031462846FFF748FCD1E72C23BF
:103D000003FB06539A6CB3F84030B2FBF3F313F0A5
:103D1000010FBBD02C2303FB065393F8542082F0F1
:103D2000010283F85420B1E7A36813F0020F61D0B9
:103D3000E36823F00203E3602C2303FB065393F8AC
:103D40006130013B072B0BD8DFE803F0040A3B0A84
:103D5000161D4A1D2C2303FB0653012283F8602005
:103D60000223A3602C2303FB065393F86020314603
:103D70002846FFF70BFC89E72C2303FB065305229B
:103D800083F86020ECE72C2202FB0652D36D01334E
:103D9000D365022B06D913460022DA65042283F884
:103DA0006020DDE72C2303FB0653022283F860200A
:103DB000D7F8003523F0804343F00043C7F80035BF
:103DC000CEE72C2303FB0653022283F86020D7F8AA
:103DD000003523F0804343F00043C7F80035BFE7C8
:103DE0002C2303FB0653DA6D0132DA65042283F8D3
:103DF0006020B5E7A36813F0100F3FF447AF2C2302
:103E000003FB065393F83F30032B0CD00BB1022B6E
:103E100006D12C2303FB06530022DA652B6983B1FC
:103E20001023A36032E72C2303FB06530022DA653C
:103E3000E36843F00203E3603146286800F014FDB4
:103E4000EEE72C2303FB0653032283F86120E3688B
:103E500043F00203E3603146286800F005FDDFE728
:103E600070B5036803EB411303F5A064A26812F078
:103E7000040F06D00423A360E36843F00203E36069
:103E800070BD05460E46A26812F0200F18D0202300
:103E9000A3602C2303FB010393F83D30012BEFD1EA
:103EA0002C2303FB0103002283F83D20022283F828
:103EB0006020E3681343E360006800F0D5FCDFE7AF
:103EC000A26812F4007F24D1A26812F0010F2BD057
:103ED0002C2303FB01030022DA65A36813F0400FD3
:103EE00007D02C2303FB0103012283F83D2040234C
:103EF000A360E36843F00203E3603146286800F002
:103F0000B3FC0122A2602C2303FB065383F861203B
:103F1000B6E7E36843F00203E360006800F0A4FC46
:103F20004FF40073A360ABE7A26812F0400F29D1F1
:103F3000A26812F0080F3AD1A26812F0100F46D012
:103F40002C2303FB01030022DA65032283F861209E
:103F500093F83D305BB92C2303FB010393F83C300D
:103F60002BB92C2303FB0103012283F83D20E368D6
:103F700043F00203E3603146286800F075FC10232B
:103F8000A3607DE72C2303FB0103042283F8612057
:103F9000012283F83D200022DA65E36843F0020342
:103FA000E360006800F060FC4023A36068E708233A
:103FB000A360E36843F00203E360006800F054FC90
:103FC0002C2303FB0653052283F8612058E7A268DF
:103FD00012F0800F29D0036983B12C2202FB010269
:103FE000D36D0133D365022B16D82C2303FB0103B9
:103FF000022283F860208023A36041E72C2303FB87
:104000000103062283F86120E36843F00203E360C2
:10401000006800F029FCEEE713460022DA6504226E
:1040200083F86020FFF7B2FAE5E7A26812F4806F28
:1040300016D1A26812F0020F3FF422AFE26822F01C
:104040000202E2602C2202FB010292F86120013A96
:10405000072A52D8DFE802F017514B5D646B516BB1
:10406000E36843F00203E360006800F0FDFB102307
:10407000A3604FF48063A3602C2303FB0653082244
:1040800083F86120FCE62C2303FB0603012283F85E
:10409000602093F83F30023BDBB293422DD8016998
:1040A00041B92C2303FB060393F8552082F001024B
:1040B00083F85520012920D12C2303FB0653DB6C08
:1040C000DBB12C2202FB0652B2F840201344013B24
:1040D000B3FBF2F313F0010F0FD02C2303FB0653B5
:1040E00093F8552082F0010283F8552005E02C2337
:1040F00003FB0603022283F860200223A3602C2323
:1041000003FB065393F8602031462846FFF73EFA3A
:10411000B6E62C2303FB0603022283F86020ECE7BB
:104120002C2303FB0603052283F86020E5E72C21FE
:1041300001FB0601CA6D0132CA65022A05D90022B7
:10414000CA65042281F86020D7E72C2202FB060210
:10415000022182F86010D3F8002522F0804242F05C
:104160000042C3F80025C8E7F8B5044605682846AC
:1041700000F0CAF9012800D0F8BD206800F0C0F9AD
:104180000028F9D0206800F0BBF910F4001F03D01C
:1041900023684FF400125A61206800F0B1F910F45E
:1041A000801F03D023684FF480125A61206800F00A
:1041B000A7F910F0806F03D023684FF080625A6136
:1041C000206800F09DF910F0020F02D0236802224F
:1041D0005A61206800F094F910F0005F08D023685D
:1041E0004FF000525A61D5F8403413F0010F1DD042
:1041F000206800F085F910F0807F26D1206800F05B
:104200007FF910F0080F24D1206800F079F910F040
:10421000100F25D1206800F073F910F0007FABD0AB
:10422000206800F01CFB074600262CE010212846E1
:1042300000F0FEF8284600F013F90121206800F094
:104240000FFA2046FFF79CF9D2E72046FFF727FC3C
:10425000D4E72046FFF788F9236808225A61D3E79C
:104260002268936923F0100393612046FFF768FAF0
:104270002268936943F010039361CBE7F1B22046C3
:10428000FFF7EEFD0136A368B34212D906F00F0323
:1042900027FA03F313F0010FF4D005EB4613D3F81C
:1042A000003513F4004FE9D0F1B22046FFF74FFC80
:1042B000E8E723684FF000725A615DE790F8F83242
:1042C000012B0ED010B50446012180F8F8120068C9
:1042D00000F004FA206800F09EF8002084F8F8024C
:1042E00010BD0220704790F8F832012B0BD010B5AA
:1042F0000446012380F8F832006800F0EDFB00204E
:1043000084F8F80210BD0220704708B5006800F07C
:10431000C6F908BD2C2303FB010090F8600070472C
:104320002C2303FB0100006D704708B5006800F006
:1043300003FA08BD08B5006800F0F3F908BD0000F5
:1043400082B000230193019B013301930E4A9342F3
:1043500014D80369002BF6DA00230193036943F0B4
:1043600001030361019B01330193074A934208D87B
:10437000036913F0010FF5D1002000E0032002B023
:1043800070470320FBE700BF400D030084B010B569
:10439000044603A880E80E00089B012B1FD1A36BE5
:1043A00023F48033A363E36823F4840323F04003FE
:1043B000E360E36823F44013E3600F9B012B09D013
:1043C0002046FFF7BDFF069B012B1BD0BDE8104028
:1043D00004B07047E36843F48013E360F0E7E368F8
:1043E00043F04003E3602046FFF7AAFF0C9B23B98C
:1043F000A36B43F48033A363E5E7A36B23F480331B
:10440000A363E0E7A36843F00603A360A36843F057
:104410002003A360DAE7836843F001038360002090
:104420007047836823F00103836000207047000019
:1044300082B000230193890141F020010161019BB9
:1044400001330193054A934205D8036913F0200F05
:10445000F5D1002000E0032002B07047400D0300BA
:1044600082B00023019310230361019B0133019368
:10447000054A934205D8036913F0100FF5D10020C7
:1044800000E0032002B07047400D030010B59DF816
:10449000084084B903334FEA930E4FF0000C08E054
:1044A00000EB023303F5805351F8044B1C600CF110
:1044B000010CF445F4D3002010BD10B58446084625
:1044C0004FEA920E02F00302002305E00CF5805142
:1044D000096840F8041B01337345F7D37AB10CF532
:1044E000805CDCF800400021CBB2DB0024FA03F34F
:1044F00000F8013B0131013A92B2002AF4D110BD1B
:104500004269806910407047406900F001007047BF
:1045100038B50546C36823F0C043C360012913D0F2
:1045200019BBC36843F08043C3600024012001F03D
:104530009BFC01342846FFF7E7FF08B1312CF5D981
:10454000322C14D0002038BDC36843F00053C36040
:104550000024012001F088FC01342846FFF7D4FF35
:104560000128EDD0312CF4D9EAE70120EBE7012056
:10457000E9E7000084B010B5044603A880E80E0007
:104580000023C4F8003EA36B43F40013A363A36BA2
:1045900023F40023A363A36B23F48023A363E36BBF
:1045A00013F4807F10D0059B012B06D0D4F8003483
:1045B00023F00403C4F800340CE0D4F8003443F0D2
:1045C0000403C4F8003405E0D4F8003423F00403F5
:1045D000C4F8003410212046FFF72AFF2046FFF7D9
:1045E0003FFF002209E004EB42134FF0FF31C3F814
:1045F00008150021C3F80C150132049B9342F2D830
:104600000023A3614FF0FF336361E36B13F4807FFA
:1046100017D04FF40073636203F18073A3620D4BF4
:10462000C4F80031069B1BB9A36943F01003A361D2
:10463000A269094B1343A3610020BDE8104004B0F8
:1046400070478023636203F5C003A362034BC4F881
:104650000031E7E70003E000080020A3E00040008D
:1046600000F5806CD0F8003423F00303C0F8003468
:10467000D0F8003401F003021343C0F800340129DC
:1046800003D0022906D0002070474BF68033CCF8C7
:104690000430F8E741F27073CCF80430F3E730B53A
:1046A00083B0044600250195D0F840340193019B66
:1046B00023F02E030193019B43F48073C0F8403430
:1046C000642001F0D1FB019B23F48073C4F84034D3
:1046D0000A2001F0C9FB284603B030BD82B0002398
:1046E0000193D0F840340193019B23F02E030193F2
:1046F000019B13F4805F01D101290CD0019B13F4BD
:10470000805F05D021B9019B23F48053C0F8403469
:10471000002002B07047019B43F48053C0F840343E
:10472000ECE782B000230193D0F840340193019864
:10473000C0F3414002B0704700F58060806880B2ED
:1047400070472DE9F84391461C469DF8245000EB34
:10475000411606F5A0634FF0FF329A60032D69D829
:10476000DFE805F0025A021840F29D42DA6019F0C3
:10477000800F09D1C26B12F4807F5DD0DA6842F0FD
:104780006002DA6000270CE0DA6842F48072DA60D6
:10479000002706E040F29D62DA6019F0800F35D103
:1047A0000027D0F8183401F00F0101228A4013438A
:1047B000C0F81834836943F00073836119F0800FE7
:1047C0003CD14FF00008FFF7ACFF9DF82030022BE2
:1047D00037D00022A30503F0FE534FEAC92909F49C
:1047E000F04943EA0903A90401F440210B43BDF851
:1047F0002810C1F30A010B4343EA08031343C6F828
:104800000035032D24D03846BDE8F883DA6842F439
:104810008072DA600027C4E740F22522DA6019F0DE
:10482000800F01D10027BCE7DA6842F4C072DA6079
:104830000027B6E70127B4E70027B2E74FF40048A6
:10484000C1E7022802D04FF40032C3E70022C1E7DB
:10485000D6F8003543F00053C6F80035D3E700F52D
:104860008060406980B2704730B400EB411101F5BF
:10487000A062D1F80035C3F38143D1F800458568C3
:1048800015F0200F02D0E40F002C55D033B3022BCB
:1048900024D0D1F8003543F08043C1F80035D0F87A
:1048A000103413F47F034AD1D1F8000520F0004002
:1048B000C1F80005D1F8000540F00040C1F800053E
:1048C000D1F8000520F40040C1F800050133B3F52C
:1048D0007A7F31D811680029F8DB2DE0D1F8003556
:1048E00043F08043C1F80035836813F0200F23D1D3
:1048F000C36A13F47F0319D1D1F8000520F00040FA
:10490000C1F80005D1F8000540F00040C1F80005ED
:10491000D1F8000520F40040C1F800050133B3F5DB
:104920007A7F09D811680029F8DB05E0D1F8003555
:1049300043F00043C1F80035002030BC7047D1F887
:10494000003543F00043C1F80035F5E700EB4110B6
:10495000064AC0F81025D0F8003523F0804343F014
:104960000043C0F800350020704700BF00000880F9
:1049700030B585B04B78C46B14F4807F07D00C79C8
:104980002CB9012A16D012B94C79012C1FD04C69D0
:104990000CB30D8904EB050C0CF1FF3CBCFBF5FCE2
:1049A0001FFA8CFCBCF5807F17D92D020D614FF4E6
:1049B000807C12E0CC790CB1022CE4D100EB4314E2
:1049C000D4F80C5525F07005C4F80C55DBE7497890
:1049D000FFF7BCFF6FE04FF0010CCD78002D51D0F8
:1049E0000C8904FB0CF40C610C69C4F31204394DFE
:1049F00005EACC4C44EA0C0491F80AC04FEA4C7C1E
:104A00000CF0C04C00EB431344EA0C04C3F810450F
:104A100012B1CC68C3F8144500F58065AC6814F099
:104A2000010F0CBF4FF0010C4FF0000CD3F8004504
:104A300024F00054C3F80045D3F8004544EA4C7410
:104A4000C3F80045D3F800450394039C24F0804448
:104A50000394CC78C4B1039C44F400440394039CB5
:104A600044F000440394039CC3F800451ABBCB7880
:104A70000BBB4B69FBB1CA79032A15D8DFE802F0FA
:104A8000091E091E0C61AFE7039C24F40044039443
:104A9000E5E70333C26A92B2C3F38F039A4203D2AB
:104AA000836943F020038361002300938B8A4A7853
:104AB000C968FFF7EBFC002005B030BD03332A695D
:104AC00092B2C3F38F039A42EED2836943F08063BC
:104AD0008361E9E70000F81F10B50446FFF7A1FC69
:104AE00010212046FFF7A4FC2046FFF7B9FC002266
:104AF0000AE004EB4211D1F8003523F0802343F0A3
:104B00008043C1F8003501320F2AF2D90020034654
:104B100000E001300F2813D804EB401C0CF5A06115
:104B2000DCF8002522F4004242F04042CCF8002597
:104B30000133B3F57A7FECD80A68002AF8DBE8E79E
:104B40004FF0FF33C4F8143463612046FFF763FC71
:104B5000002010BD002800F0E08170B582B004464E
:104B6000036813F0010F3BD09F4B9B6803F00C03CD
:104B7000042B2CD09C4B9B6803F00C03082B21D0FA
:104B80006368B3F5803F4FD0B3F5A02F52D0964B5A
:104B90001A6822F480321A601A6822F480221A609D
:104BA0006368002B50D001F059F905468E4B1B6805
:104BB00013F4003F14D101F051F9401B6428F5D9DA
:104BC0000320B1E1884B5B6813F4800FD8D0864B8B
:104BD0001B6813F4003F03D06368002B00F09F8133
:104BE000236813F0020F54D07F4B9B6813F00C0F17
:104BF0003ED07D4B9B6803F00C03082B33D0E36859
:104C0000002B68D0794B01221A6001F027F9054684
:104C1000754B1B6813F0020F54D101F01FF9401BB4
:104C20000228F5D903207FE16F4A136843F48033EB
:104C30001360B5E76C4B1A6842F480221A601A6858
:104C400042F480321A60ABE701F008F90546664B82
:104C50001B6813F4003FC3D001F000F9401B642827
:104C6000F5D9032060E1604B5B6813F4800FC6D177
:104C70005D4B1B6813F0020F03D0E368012B40F07B
:104C80005081594A136823F0F803216943EAC103AC
:104C90001360236813F0080F42D063696BB3534B62
:104CA0000122C3F8802E01F0D9F805464E4B5B6F08
:104CB00013F0020F34D101F0D1F8401B0228F5D9CE
:104CC000032031E1484A136823F0F803216943EADD
:104CD000C1031360DDE7454B00221A6001F0BEF806
:104CE0000546414B1B6813F0020FD2D001F0B6F815
:104CF000401B0228F5D9032016E13C4B0022C3F8E3
:104D0000802E01F0ABF80546374B5B6F13F0020FB6
:104D100006D001F0A3F8401B0228F5D9032003E1D7
:104D2000236813F0040F77D02F4B1B6C13F0805FB8
:104D300033D1002301932C4B1A6C42F080521A6439
:104D40001B6C03F080530193019B0125284B1B68CA
:104D500013F4807F23D0A368012B34D0052B38D0E7
:104D6000214B1A6F22F001021A671A6F22F0040217
:104D70001A67A368002B3DD001F070F806461A4B65
:104D80001B6F13F0020F46D101F068F8801B41F24F
:104D900088339842F3D90320C6E00025D6E7144AA9
:104DA000136843F48073136001F058F80646104B03
:104DB0001B6813F4807FCED101F050F8801B0228CD
:104DC000F5D90320B0E0084A136F43F001031367DD
:104DD000CFE7054B1A6F42F004021A671A6F42F0D0
:104DE00001021A67C5E700BF0038024000004742D1
:104DF0000070004001F032F80646524B1B6F13F072
:104E0000020F08D001F02AF8801B41F28833984243
:104E1000F3D9032088E0EDB9A369002B00F083806B
:104E2000484A926802F00C02082A51D0022B17D08F
:104E3000454B00221A6601F011F80446414B1B68ED
:104E400013F0007F42D001F009F8001B0228F5D9C9
:104E5000032069E03B4A136C23F080531364DBE7C3
:104E6000394B00221A6600F0F9FF0546354B1B68E6
:104E700013F0007F06D000F0F1FF401B0228F5D9A7
:104E8000032051E0E369226A1343626A43EA821312
:104E9000A26A5208013A43EA0243E26A43EA026321
:104EA000284A5360284B01221A6600F0D7FF0446B7
:104EB000244B1B6813F0007F06D100F0CFFF001BCE
:104EC0000228F5D903202FE000202DE000202BE060
:104ED000012B2BD01B4B5B6803F48001E2699142EC
:104EE00026D103F03F02216A8A4223D1616A47F644
:104EF000C0721A40B2EB811F1ED103F44031A26A86
:104F00005208013AB1EB024F18D103F07063E26A24
:104F1000B3EB026F14D1002006E00120704701209E
:104F200002E0012000E0002002B070BD0120FBE79C
:104F30000120F9E70120F7E70120F5E70120F3E779
:104F40000120F1E7003802400000474208B5264B37
:104F50009B6803F00C03042B41D0082B41D1224B5A
:104F60005A6802F03F025B6813F4800F12D01E4BA8
:104F70005968C1F388111D480023A1FB0001FDF70A
:104F8000C9FE194B5B68C3F3014301335B00B0FBFF
:104F9000F3F008BD144B5868C0F388104FEA401C6A
:104FA000BCEB000C6EEB0E0E4FEA8E1343EA9C63D3
:104FB0004FEA8C11B1EB0C0163EB0E03DB0043EA0B
:104FC0005173C90011EB000C43F100039902002357
:104FD0004FEA8C2041EA9C51FDF79CFED1E7034843
:104FE000D7E70348D5E700BF0038024040787D018D
:104FF0000024F400002800F09B8070B50D460446A4
:105000004F4B1B6803F007038B4208D2CBB24C4ACC
:105010001370136803F007038B4240F08B80236802
:1050200013F0020F17D013F0040F04D0454A936811
:1050300043F4E0539360236813F0080F04D0414A0F
:10504000936843F4604393603E4A936823F0F0030F
:10505000A1680B439360236813F0010F32D063689B
:10506000012B21D09A1E012A25D9364A126812F046
:10507000020F61D033498A6822F0030213438B6028
:1050800000F0ECFE06462F4B9B6803F00C036268B1
:10509000B3EB820F16D000F0E1FE801B41F28833A3
:1050A0009842F0D9032042E0264A126812F4003FE9
:1050B000E0D101203BE0234A126812F0007FD9D1F1
:1050C000012034E01E4B1B6803F00703AB4207D9F5
:1050D000EAB21B4B1A701B6803F00703AB422DD1D9
:1050E000236813F0040F06D0164A936823F4E053A4
:1050F000E1680B439360236813F0080F07D0114A4F
:10510000936823F46043216943EAC1039360FFF786
:105110001DFF0C4B9B68C3F303130B4AD35CD840B1
:105120000A4B18600A4B186800F04CFE002070BD56
:10513000012070470120FAE70120F8E70120F6E797
:10514000003C024000380240E84B01085C000020AF
:1051500064000020014B1868704700BF5C0000200D
:1051600008B5FFF7F7FF044B9B68C3F38223034A9C
:10517000D35CD84008BD00BF00380240E04B0108B6
:1051800008B5FFF7E7FF044B9B68C3F34233034ABC
:10519000D35CD84008BD00BF00380240E04B010896
:1051A00010B40A490C6924F440740C610C6944F48D
:1051B00040740C610C6944F001040C610260BFF39F
:1051C0006F8F43605DF8044B704700BF003C0240A6
:1051D000074B1A6922F440721A611A6942F400728C
:1051E0001A611A6942F001021A610160704700BF3A
:1051F000003C0240074B1A6922F440721A611A6996
:1052000042F480721A611A6942F001021A61018047
:10521000704700BF003C0240064B1A6922F44072FE
:105220001A611A691A611A6942F001021A61017061
:10523000704700BF003C0240274BDB6813F0100FA3
:1052400007D0264AD36943F01003D361224B1022C2
:10525000DA60214BDB6813F0200F07D01F4AD369B7
:1052600043F00803D3611C4B2022DA601A4BDB6841
:1052700013F0400F07D0194AD36943F00403D361F8
:10528000154B4022DA60144BDB6813F0800F07D017
:10529000124AD36943F00203D3610F4B8022DA60D4
:1052A0000D4BDB6813F4807F08D00C4AD36943F0C0
:1052B0000103D361084B4FF48072DA60064BDB6860
:1052C00013F0020F07D0054AD36943F02003D361DE
:1052D000014B0222DA607047003C0240682A00203D
:1052E000094B1B69002B01DB00207047064B074A66
:1052F0005A6002F188325A601B69002B01DB0020E2
:1053000070470120704700BF003C02402301674501
:10531000034A136943F0004313610020704700BF44
:10532000003C0240014BD869704700BF682A00204A
:1053300038B50446144B0022DA6100F08FFD0546B3
:10534000124BDB6813F4803F0AD0B4F1FF3FF7D073
:1053500024B100F083FD401BA042F1D903200DE0F1
:105360000A4BDB6813F0010F02D0084B0122DA6010
:10537000064BDB6813F4F97F01D1002038BDFFF73D
:105380005BFF0120FAE700BF682A0020003C0240D2
:10539000F8B516461B4A127E012A30D004460D4647
:1053A0001F46184B01221A764CF25030FFF7C0FF0F
:1053B00090B9ACB1012C18D0022C1BD032463B4620
:1053C0002846FFF7EDFE4CF25030FFF7B1FF0E4AD2
:1053D000136923F0010313610A4B00221A76F8BD0A
:1053E000F1B22846FFF718FFEDE7B1B22846FFF704
:1053F00001FFE8E731462846FFF7EAFEE3E702202F
:10540000EDE700BF682A0020003C0240074B1A6904
:1054100022F440721A611A6942F004021A611A6990
:1054200042EA002242F480321A617047003C024096
:10543000012905D0022906D039B14FF4407104E0AA
:105440004FF4807101E04FF400710B4B1A6922F4A4
:1054500040721A611A690A431A611A6922F0F80245
:105460001A611A6942EAC00040F0020018611A6924
:1054700042F480321A617047003C0240164B1B68B0
:1054800013F4007F10D0144B1A6822F400721A60D3
:105490001A6842F400621A601A6822F400621A6004
:1054A0001A6842F400721A600B4B1B6813F4806F89
:1054B00010D0094B1A6822F480621A601A6842F40C
:1054C00080521A601A6822F480521A601A6842F4F4
:1054D00080621A60704700BF003C0240F8B5224B62
:1054E0001B7E012B3ED004460E461F4B01221A762E
:1054F0004CF25030FFF71CFF074670BB4FF0FF33F4
:1055000033602368012B16D0A568E368A2681344B2
:10551000AB4220D9217C2846FFF78AFF4CF250305D
:10552000FFF706FF114A136923F0FA0313610746D8
:1055300080B90135E9E76168207CFFF767FF4CF22D
:105540005030FFF7F5FE0746084A136923F00403BD
:10555000136100E03560FFF791FF034B00221A76DC
:105560003846F8BD0227FBE7682A0020003C0240CD
:1055700000230F2B00F2D78070B582B065E08568FC
:105580004FEA430E032404FA0EF425EA0405CC681E
:1055900004FA0EF42C438460446824EA02044A6846
:1055A000C2F300129A40224342605CE0DC080834F7
:1055B00050F8242003F00705AD004FF00F0E0EFA4F
:1055C00005FE22EA0E0E0A69AA4042EA0E0240F8DF
:1055D00024205CE0042200E0002202FA0EF22A43BA
:1055E0000234514D45F82420504A14686FEA0C02E9
:1055F00024EA0C054E6816F4803F01D04CEA0405FD
:105600004A4C2560646802EA04054E6816F4003FBF
:1056100001D04CEA0405454C6560A46802EA040523
:105620004E6816F4801F01D04CEA04053F4CA5607B
:10563000E46822404D6815F4001F01D04CEA0402D2
:105640003A4CE26001330F2B6BD801229A400C6870
:1056500004EA020C32EA0404F4D14C6804F00304B6
:10566000013C012C8BD94A6802F00302032A09D0BD
:10567000C4685D000322AA4024EA02048A68AA40A2
:105680002243C2604A6802F00302022A8ED00468F4
:105690004FEA430E032202FA0EF224EA02044A6899
:1056A00002F0030202FA0EF2224302604A6812F488
:1056B000403FC7D0002201921D4A546C44F48044FC
:1056C0005464526C02F480420192019A9C08A51C19
:1056D000154A52F8255003F0030E4FEA8E0E0F22A2
:1056E00002FA0EF225EA0205124A90423FF474AF24
:1056F00002F5806290420ED002F5806290420CD09A
:1057000002F5806290420AD002F5806290423FF436
:1057100061AF072261E701225FE702225DE7032212
:105720005BE702B070BD704700380140003C0140AB
:10573000003802400000024000230F2B7CD8F0B557
:105740002DE0042500E0002505FA0CF5A54257D010
:1057500004685D004FF0030C0CFA05FC24EA0C040D
:1057600004604FEAD30E0EF1080E50F82E4003F0FD
:105770000706B6000F25B54024EA050440F82E4080
:10578000C46824EA0C04C460446824EA020242604B
:10579000826822EA0C02826001330F2B4BD801226F
:1057A0009A4002EA010632EA0104F5D14FEA930E6B
:1057B0000EF10205214C54F8254003F0030C4FEA8A
:1057C0008C0C0F2505FA0CF73C401D4DA842BAD0B1
:1057D00005F58065A8420DD005F58065A8420BD07F
:1057E00005F58065A84209D005F58065A842A8D0D6
:1057F0000725A9E70125A7E70225A5E70325A3E7D4
:10580000104C256825EA06052560656825EA060529
:105810006560A56825EA0605A560E56825EA060530
:10582000E560064E0EF1020456F8245025EA0705FD
:1058300046F824508CE7F0BD704700BF00380140A7
:1058400000000240003C014008B5054B5B69034283
:1058500000D108BD024B58610CF046FEF9E700BFCD
:10586000003C014030B405682C6824F480242C608E
:10587000046863608368402B05D0036899600368FF
:10588000DA6030BC704703689A600368D960F8E753
:1058900010B40368D9B210390A4AA2FB01421209B6
:1058A000094CA25CC2655F2907D96FF30903043371
:1058B0008365806D5DF8044B70476FF30903836562
:1058C000F7E700BFABAAAAAA0C4C0108836A826959
:1058D00092B9012B0AD0022B02D00BB100207047E5
:1058E000C36A13F0807F28D100207047C36AB3F1E8
:1058F000C07F24D000207047B2F5005F09D0022B92
:1059000025D9032B25D1C36A13F0807F23D1002032
:105910007047032B03D8DFE803F01404140A0020B7
:105920007047C36A13F0807F0DD100207047C36AAF
:10593000B3F1C07F09D000207047012070470120DB
:1059400070470120704701207047012070470120F7
:1059500070470020704701207047000070B5044672
:1059600000F07CFA002C5BD00546022384F8353029
:10597000002384F834302268136823F00103136095
:1059800023681A6812F0010F0AD000F067FA431B6F
:10599000052BF5D920236365032084F8350070BDFD
:1059A0001A68204911406268A0680243E068024317
:1059B0002069024360690243A0690243E06902432F
:1059C000206A02430A43616A04291ED01A602668CD
:1059D000756925F00705636A1D43042B07D1A36A87
:1059E0001D43E36A1BB12046FFF770FF90B9756154
:1059F0002046FFF74DFFE26D3F2393408360002078
:105A00006065012384F83530C9E7E16A206B014302
:105A10000A43DBE740236365012084F83500BEE7D5
:105A20000120BCE73F8010F000282DD038B5054696
:105A300090F83500C0B2022825D02A68136823F0F8
:105A4000010313602B6800241C602B685C602B68CA
:105A50009C602B68DC602B681C612B6821225A61DA
:105A60002846FFF715FFEC632C646C64AC64EC64AF
:105A70002C65EA6D3F23934083606C6585F8354063
:105A800085F83440204638BD0120704738B50446BB
:105A9000856D90F8340001282BD0012084F8340063
:105AA00094F83500C0B2012804D0002384F83430C3
:105AB000022038BD022084F83500002060652046B1
:105AC000FFF7D0FEE26D3F239340AB60226813687E
:105AD00043F016031360236C23B12268136843F06C
:105AE000080313602268136843F001031360002069
:105AF000DFE70220DDE70000F0B583B004460023B5
