:020000040800F2
:1000000078BF0020AD020008DD5700084555000804
:10001000D9570008351D0008A78900080000000016
:10002000000000000000000000000000F35700087E
:10003000B51E000800000000F1570008F557000841
:10004000C7020008C7020008C7020008C70200086C
:10005000C7020008C7020008B91E0008C31E000836
:10006000C7020008C7020008CD1E0008C70200082A
:10007000C7020008C7020008C7020008C70200083C
:10008000C7020008C7020008C702000800000000FD
:10009000000000000000000000000000D71E000863
:1000A000C70200083958000811580008C7020008A4
:1000B000C7020008C7020008C7020008C7020008FC
:1000C000C7020008C7020008C7020008C7020008EC
:1000D000C7020008C7020008C702000800000000AD
:1000E000C7020008C7020008C7020008000000009D
:1000F000000000000000000000000000C70200082F
:1001000000000000C7020008C7020008C70200087C
:1001100000000000000000000000000000000000DF
:10012000391D0008C7020008C7020008C7020008FE
:10013000C7020008000000000000000000000000EE
:10014000000000000000000000000000E15700086F
:10015000C7020008C7020008C7020008C70200085B
:10016000C7020008C70200080000000000000000ED
:10017000000000000000000000000000000000007F
:1001800000000000C702000800000000000000009E
:10019000C702000800F002F800F079F80AA090E821
:1001A000000C82448344AAF10107DA4501D100F032
:1001B0006EF8AFF2090EBAE80F0013F0010F18BF86
:1001C000FB1A43F001031847B8BA0100D8BA01007E
:1001D0000A444FF0000C10F8013B13F0070408BF6D
:1001E00010F8014B1D1108BF10F8015B641E05D00B
:1001F00010F8016B641E01F8016BF9D113F0080FC0
:100200001EBF10F8014BAD1C0C1B09D16D1E58BF51
:1002100001F801CBFAD505E014F8016B01F8016B88
:100220006D1EF9D59142D6D37047000000230024FB
:1002300000250026103A28BF78C1FBD8520728BFF6
:1002400030C148BF0B607047662919F08F8364295D
:1002500000F0A481752900F0A181782900F0DA81ED
:10026000732900F0F086002070471FB519F079FB64
:100270009DE8030000F012FC00F000FF04000020E5
:10028000002119F023F9E0601FBD10B510BD01F089
:1002900012F81146FFF7E9FF18F070FD01F030F891
:1002A00003B4FFF7F2FF03BC16F00FF809488047CC
:1002B00009480047FEE7FEE7FEE7FEE7FEE7FEE748
:1002C000FEE7FEE7FEE7FEE704480549054A064B60
:1002D00070470000FD57000895010008789700203E
:1002E00078BF002078B7002078B70020704770B53D
:1002F000064600F0B7FB056806F10B0020F0070486
:10030000B4429CBF002070BD2B466A68BAB1106829
:10031000A04210D304F1080188423CBF50685860E5
:1003200007D35168101941601168091B01605860BA
:100330001460101D70BD13465268002AE7D1214693
:10034000284600F097FB0028DED170BD70B504464A
:10035000051F00F087FB0068002C14BF446870BDC7
:10036000002C18BFAC423CBF20466468F8D301683B
:100370000A18AA4218BF456003D12A6805461144ED
:10038000016028684119A1421CBF6C6070BD6168A2
:10039000696021680844286070BD53EA020C00F0CF
:1003A00069802DE9F04B4FF00006002B1FBFB3FA18
:1003B00083F503FA05F424FA05F65E4012BF1643EE
:1003C000B2FA82F502FA05F4C5F120051EBF22FA41
:1003D00005FC44EA0C04203556EA044C4FEA144468
:1003E00018BF641C4FF000084FF00009904271EBF9
:1003F000030C39D3002919BFB1FA81F701FA07F6C6
:10040000B0FA80F700FA07F6C7F120071EBF20FAFE
:1004100007FC46EA0C062037B6FBF4FCA7EB050701
:10042000103F07F01F0BCBF120060CFA0BFB2CFA48
:1004300006F644BFB3460026202FA4BF5E464FF009
:10044000000B5BEA060C08BF4FF0010B19EB0B0920
:10045000ABFB027C48EB0608C01B06FB02CC0BFB87
:1004600003CC71EB0C01C1E70B46024641464846FE
:10047000BDE8F08B13B54FF000004FF00001AFF373
:100480000080BDE81C4070470FB4044910B503AAB2
:10049000029800F0DDFD10BC5DF814FB2800002080
:1004A0000FB41CB5074B06AA7B446946009005981B
:1004B00000F097FD0020694600F0A6FD1CBC5DF829
:1004C00014FB00005D0B00000FB41CB50C0007AA64
:1004D000009001D02044401E074B7B4469460190A8
:1004E000069800F07EFD002C03D06946002000F045
:1004F0008BFD1CBC5DF814FB350B000070B5044689
:1005000085690068C10601D5302600E02026C007B5
:1005100007D070BDD4E9012130469047206A401CC5
:1005200020626D1EF6D570BD70B5044685690078F1
:10053000C00707D170BDD4E9012120209047206A6F
:10054000401C20626D1EF6D570BD70B50C46054688
:10055000012A05D02878800600D5EA69002302E048
:10056000012305E05B1C934202D2E05C0028F9D134
:10057000A869E618C01AA861286A184428622846A3
:10058000FFF7BCFF04E0D5E9012114F8010B904707
:10059000B442F8D32846FFF7C7FF70BD2DE9F041FC
:1005A0000646002410687529314616A510D0AFF311
:1005B0000080002802DA404213A507E031688A076C
:1005C00001D512A502E0490704D511A5012401E0D7
:1005D000AFF3008000210A2206F1240709E0B0FBF6
:1005E000F2FCB0FBF2F302FB1C00303078541846EA
:1005F000491C0028F3D123462A463046BDE8F04185
:1006000000F082BA000000002D0000002B00000066
:100610002000000070B504460D4621461068AFF377
:1006200000802188090502D50F4A7A4402E00E4A6B
:100630007A440E32002104F1240305E000F00F0695
:100640000009965D5E54491C0028F7D120780023EC
:10065000000704D5702D02D009B1022311322046C3
:10066000BDE8704000F050BA7EB501002DE9F05FA2
:10067000894604464FF0000ADFF874B1FB44C0F825
:1006800020A02046E1688847002874D0252806D09D
:10069000D4E901219047206A401C2062F1E700263E
:1006A0005F462046E16888472028054607DB312D54
:1006B00005D2781910F8200C08B10643F1E7B0070D
:1006C00001D526F00406C4F81CA00027C4F818A021
:1006D0002A2D09D0284615F0F1FD38B304EB870820
:1006E000303DC8F8185019E059F8041B204604EBB7
:1006F00087029161E1688847012F054618D1E069BA
:10070000002820DA26F020061DE0D8F8180000EBBB
:10071000800005EB40003038C8F818002046E1683A
:100720008847054615F0CAFD0028EED1012F0AD0F2
:100730002E2D08D12046E16888477F1C0546022FF0
:1007400046F02006C4DBA069002803DA404246F0E8
:100750000106A061F00701D026F010066C2D0BD029
:10076000682D09D04C2D39D06A2D35D0742D35D057
:100770007A2D33D016E038E0E1682F4620468847CE
:10078000B842054609D16C2F26D04FF48060E1684D
:10079000064320468847054604E06C2F1AD04FF4E4
:1007A000807006430DB3A5F14100192802D8203509
:1007B00046F400664A462946204626604E46FFF724
:1007C00043FD80B101280BD0F61D26F0070000F193
:1007D000080956E74020E4E78020D8E70020D6E764
:1007E00006F104094DE7284652E7206ABDE8F09F6C
:1007F00054B5010010B5431C02E010F8011B71B1A3
:100800008107FAD14FF0013202C88C1A8C4314EAE6
:10081000C211F9D0C01A0A0603D0C01E10BDC01AFA
:1008200010BD0A0401D0801E10BD0902FCD0401E7C
:1008300010BD421E12F8013F002BFBD111F8013B05
:10084000002B02F8013BF9D17047032A40F23080B7
:1008500010F0030C00F0158011F8013BBCF1020F01
:10086000624498BF11F801CB00F8013B38BF11F882
:10087000013BA2F1040298BF00F801CB38BF00F899
:10088000013B11F0030300F02580083AC0F0088016
:1008900051F8043B083A51F804CBA0E80810F5E7FA
:1008A000121D5CBF51F8043B40F8043BAFF30080DD
:1008B000D20724BF11F8013B11F801CB48BF11F852
:1008C000012B24BF00F8013B00F801CB48BF00F822
:1008D000012B704710B5203AC0F00B80B1E81850DA
:1008E000203AA0E81850B1E81850A0E81850BFF41A
:1008F000F5AF5FEA027C24BFB1E81850A0E81850B9
:1009000044BF18C918C0BDE810405FEA827C24BF0C
:1009100051F8043B40F8043B08BF7047D20728BF9A
:1009200031F8023B48BF11F8012B28BF20F8023BE9
:1009300048BF00F8012B704702F0FF0343EA03228F
:1009400042EA024200F002B84FF000020429C0F06F
:10095000128010F0030C00F01B80CCF1040CBCF1F1
:10096000020F18BF00F8012BA8BF20F8022BA1EB43
:100970000C0100F00DB85FEAC17C24BF00F8012B28
:1009800000F8012B48BF00F8012B70474FF0000220
:1009900000B5134694469646203922BFA0E80C5075
:1009A000A0E80C50B1F12001BFF4F7AF090728BF50
:1009B000A0E80C5048BF0CC05DF804EB890028BFCC
:1009C00040F8042B08BF704748BF20F8022B11F0F5
:1009D000804F18BF00F8012B704700004FF0013C1A
:1009E00050F8042B51F8043B9A4221D1A2EB0C039E
:1009F000934313EACC1317D150F8042B51F8043B5E
:100A00009A4215D1A2EB0C03934313EACC130BD1FA
:100A100050F8042B51F8043B9A4209D1A2EB0C0385
:100A2000934313EACC13DBD04FF00000704700BFB4
:100A3000D01A01BAB1FA81F101F0180122FA01F0DD
:100A4000CB40C1F12001DBB2C0B2C01A2CFA01F3D5
:100A5000D11A914311EAC311E6D17047704770472C
:100A600070470000004870471C970020704770478F
:100A70007047704738B504460A4600206946AFF310
:100A80000080002808BF38BD02460099204600F0CB
:100A9000F9FA012038BD012000F006BCF8B5AFF32B
:100AA0000080054600200C46102000BF0646A8190D
:100AB000A0420DD9324669460020AFF300800700FE
:100AC00008BF00F0F1FB0098A04218BF0546C4190A
:100AD000FFF7C8FF05600746F01D20F00700461924
:100AE000284600F00AF8B44208BFF8BDA21B314600
:100AF0003868BDE8F84000F0C5BA00210160C0E9DF
:100B000001107047102070472DE9F0470D469946B7
:100B10009246044600F124080168880604D5E0697D
:100B200021F01001216000E00120A84201DD471BF7
:100B300000E00027A1697A1902EB0900081AA061F8
:100B40002078C00602D42046FFF7D8FC002608E033
:100B5000D4E901211AF806009047206A401C761C4F
:100B600020624E45F4DB2078C0060AD52046FFF708
:100B7000C5FC06E0D4E9012130209047206A401CE2
:100B80002062381EA7F10107F4DC07E0D4E9012157
:100B900018F805009047206A401C2062281EA5F125
:100BA0000105F3DC2046FFF7BFFC2078000602D5E4
:100BB0000220BDE8F0870120FBE770472DE9FF4FD9
:100BC0000C461E464FF0FF378BB0D2E90001DDF82E
:100BD00060800A908A46C1F30A5505B93D46002156
:100BE00008464FF00000BAF1000F00F4400005DAAB
:100BF00000EB80004FF4400101EA50004FEA9059A9
:100C0000B9F1010F00DDB9460A9850EA4A000ED04A
:100C100044F61050A5F2FF3545432F14B8F1000FEC
:100C20001ED07542291E1EDDC9F100021CE0B8F17C
:100C3000010F4FF0000001D0302103E0F24305E046
:100C40002154401CB042FBDB3046002200212154DD
:100C50000B99C1F80880C1E900200FB0BDE8F08F02
:100C6000BD1B6D1CDEE74A4600DA694206A800F0AB
:100C7000A9FA06AB93E8070003AB83E807005046E8
:100C80000A9900F08CFB8DE80700A0F500501F3892
:100C900000900398002D0ADD42F21F014A460844E5
:100CA000002303A90390684600F0F5FD09E0A0F5D4
:100CB00000504A461F38002303A90390684600F0FD
:100CC000FFFD8DE807000004000C03D04FF0FF305B
:100CD000410800E01046B8F1000F03D00022009256
:100CE00015461EE0751E05D400F0E6F93032625557
:100CF0006D1EF9D5B3460122084302D000227F1CA5
:100D000004E02078302801D100227F1E002A0997B4
:100D100084D01DE0112D07DA00F0CEF93032625593
:100D20006D1C50EA0102F5D1084302D00098C8B109
:100D30000EE00021681E05E0235C625C63542254CF
:100D4000401E491C8142F7DBAB46A81B401E0990A0
:100D5000002004F80B000B98099AC0F80880C0E93D
:100D6000002B7AE711264FF0000857E72DE9F04FE6
:100D700088460446D21D22F0070191B0D1E9000156
:100D8000CDE90A0115F066FA02460B98C00F01D0B2
:100D90002D2007E02068810701D52B2002E02021CB
:100DA00001EAC000032A099001D0072A05DB0346A7
:100DB0004146204600F0C6F90BE12078800601D5B7
:100DC000E06900E00620B8F1650F814606D0B8F171
:100DD000660F18D0B8F1670F70D131E00020B9F17B
:100DE000110F009001DB112301E009F101030AAAB0
:100DF00001A90CA8FFF7E2FEDDE90C70002609F15D
:100E00000105834647E001204B4600904FF0004724
:100E10000AAA01A90CA8FFF7D1FEDDE90DB00C99D3
:100E20005D46002610B909F101000D18B9EB050067
:100E300003D4C0F1FF3609F10105A5EB09002BE051
:100E4000B9F1010F01DA4FF001090020B9F1110FDA
:100E50000090484601DD112300E003460AAA01A9DB
:100E60000CA8FFF7ABFEDDE90C704D46002683466B
:100E7000207800070AD4AB4500DA5D4601A8012DB1
:100E800004DD411911F8011C302907D04F4502DA61
:100E900017F1040F04DA012082460FE06D1EEEE721
:100EA000002F02DCED1B3E4403E0781CA84200DD6D
:100EB0007D1CB81B00F1010A4FF0004720780007A5
:100EC00003D4AA4501DB4FF0FF3A0021B7F1004FF0
:100ED0000DF143088DF8431024D002202B23002F5E
:100EE00001DA7F422D230A21021EA0F1010000DC5D
:100EF0005FB197FBF1FC97FBF1F201FB1C7C1746FD
:100F00000CF1300C08F801CDEEE7A8F101000370F8
:100F10002188090501D5452100E06521A0F10108DE
:100F200000F8011C09980FA9A1EB0807FF1D00B1EB
:100F30000120411901EBEA70A1693844081A401EEA
:100F4000A0612078C00602D42046FFF7D7FA09989E
:100F500028B1D4E901219047206A401C2062207802
:100F6000C00622D52046FFF7C9FA1EE0002E04DB9A
:100F7000B34502DD01A8805D00E03020D4E9012105
:100F80009047206A401C2062761CAAF101005FEAAB
:100F9000000A0AD100F072F8C0680168405CD4E928
:100FA00001219047206A401C2062281EA5F10105FE
:100FB000DCDC07E0D4E9012118F8010B9047206A36
:100FC000401C2062381EA7F10107F3DC2046FFF722
:100FD000ABFA032011B041E601694A1C02610878AE
:100FE000704700B58FB0CDE9013100210591054969
:100FF0007944CDE9031011466846FFF737FB0FB07F
:1010000000BD0000E5FFFFFF0A6802F8010B0A605F
:101010007047D1E900239A4202D2531C0B60107032
:10102000704710B5436913B1AFF3008001E0FFF7DB
:101030008CFA012010BD127800F124010A70002200
:101040004A700122EDE711684FF0FF32E9E7000036
:10105000074B70B50D467B44FFF7C3FF0446284697
:1010600016F0C7FE10B14FF0FF3070BD204670BDC6
:101070007D750100004870471497002000487047B4
:1010800034970020034640688C46002818BF8842E9
:101090003CBF03464068F8D318681844884207D01C
:1010A0000CF1030020F00700001D411A521A0146FE
:1010B000081D0A60FFF74AB930B5B0F10A024FEADD
:1010C000900E71F100034EEA817EB0EB0E0061EBF1
:1010D00091014FEA101E4EEA017E10EB0E0041EB2B
:1010E00011114FEA102E4EEA016E10EB0E0041EB8B
:1010F00011214FEA104E4EEA014E10EB0E0041EB6B
:101100001141401841F100014FEAD00040EA41701E
:101110004FEAD10110EB80054FEA810444EA907454
:1011200044EB01046D1944EB0404521BA3414FF03E
:10113000000348BF0A3200D530BD401C41F1000118
:1011400030BD00002DE9F0411F460446032601682A
:10115000072A01F4006004DB08B116A505E016A516
:1011600003E008B115A500E015A521F010002060EE
:10117000A069C01EA0610FB1401EA0612046FFF70C
:10118000BDF94FB1D4E9012138469047206A401C8F
:101190002062C01C206206E0206AFAE7D4E901213F
:1011A00015F8010B9047761EF8D22046FFF7BCF9E0
:1011B000BDE8F0814E414E006E616E00494E460022
:1011C000696E66002DE9F047814616468AB03548BB
:1011D00078440DC88DE80D0032487844801C03AC7B
:1011E0000DC884E80D0041F69B300844372190FB80
:1011F000F1F290FBF1F5A5F1800501FB12041B3C17
:1012000002D56442012000E00020DFF898A080466B
:101210000027FA44AAF1BE0A0EE0E0070AD03246DF
:10122000684607EB470101230AEB810100F048FB08
:101230008DE8070064107F1C002CEED1194F7F440D
:10124000AE3F19E0E80715D007EB04100DF1180ABE
:1012500090E80E008AE80E00C068F04201D19819AB
:1012600008903246012306A903A800F029FB03AB2E
:1012700083E807006D10641C002DE3D14FF00103DB
:1012800032466946B8F1000F03A802D000F003FB14
:1012900001E000F015FBC9E90001C9F808200AB017
:1012A000BDE8F08790AA010010B500F037F8BDE85E
:1012B000104000F02EB87546FFF7DCFEAE46050084
:1012C0006946534620F00700854618B020B5FEF762
:1012D000FBFFBDE820404FF000064FF000074FF045
:1012E00000084FF0000B21F00701AC46ACE8C00944
:1012F000ACE8C009ACE8C009ACE8C0098D4670474D
:1013000010B50446AFF300802046BDE81040FEF75C
:10131000C7BF002801D014F0D8BF704710B501280E
:1013200005D0002103A000F021F8012010BD09A183
:10133000F8E7000053494752544D454D3A204F7548
:1013400074206F662068656170206D656D6F7279BD
:10135000000000003A2048656170206D656D6F7275
:101360007920636F727275707465640070B505469C
:101370000C460A2000E06D1C14F0AAFF35B1287855
:101380000028F8D102E0641C14F0A2FF14B1207808
:101390000028F8D1BDE870400A2014F099BF5FEA38
:1013A000400C08BF91F0000F4FEA8C234FEAC12296
:1013B00043EA51514FEA1C5018BF00F5F0404FEA84
:1013C000300018BF41F000415FEA6C5C00F02980FA
:1013D000BCF1FF3F08BF40F080407047130C06BFD0
:1013E00012044FF0100C4FF0000C130E04BF120249
:1013F0000CF1080C130F04BF12010CF1040C930F35
:1014000004BF92000CF1020CD30F04BF52000CF188
:10141000010C11464FF00002A0F11F00A0EB0C00E0
:10142000704711F0004F08BF704731F000413FF4A2
:10143000D5AF0B0C06BF09044FF0100C4FF0000C99
:101440000B0E04BF09020CF1080C0B0F04BF0901BD
:101450000CF1040C8B0F04BF89000CF1020CCB0FB4
:1014600004BF49000CF1010CCCF12003A0EB0C00EF
:1014700022FA03F302FA0CF241EA030100F101003F
:10148000704720F07F4C80EA030023F07F47ACEBED
:10149000070303F57C5300F0004003F1FF032DE93F
:1014A00080494FEA154B09B44FEA144325EA0B4E25
:1014B00024EA03480FF2042606EB132749083E7876
:1014C0005FEA320203FB0667C7F5000707FB06F673
:1014D0004FEA54374FEAD64606F1020607FB066C80
:1014E000CCF1005C4FEA1C472CEA074C07FB06F4E2
:1014F0000CFB06F504EB15464FEA961634BF0020A8
:101500004FF000404FEAD13706FB07FC4FEA1C4C76
:101510000CFB0BF7D21B03FB0CF761EB07010CFB79
:101520000EF7B0EB074072EB17420CFB08F734BF25
:10153000A2EB0742B2EB074261EB17414FEA0C44C2
:101540004FEA910706FB07FC4FEA1C4C0CFB0BF71C
:10155000B0EBC74072EB573203FB0CF734BFA2EB82
:10156000C742B2EBC74261EB57310CFB0EF7B0EB51
:10157000C70072EB57720CFB08F734BFA2EBC7022F
:10158000B2EBC70261EB5771039F4FEA816141EAF9
:10159000921104EBCC044FEAD1374FEA826206FB8A
:1015A00007FC42EA90124FEA80604FEA1C4C0CFBA9
:1015B0000BF7D21B03FB0CF761EB07010CFB0EF7DB
:1015C000B0EB074072EB17420CFB08F734BFA2EBFD
:1015D0000742B2EB074261EB17414FEA8C554FEAE5
:1015E000910704EB9C2406FB07FC4FEA1C4C0CFB08
:1015F0000BF7B0EBC74072EB573203FB0CF734BF6D
:10160000A2EBC742B2EBC74261EB57310CFB0EF7BE
:10161000B0EBC70072EB57720CFB08F734BFA2EBBC
:10162000C702B2EBC70261EB577115EB4C254FEACD
:10163000816141EA92114FEA82624FEAD13742EA70
:10164000901206FB07FC44F100044FEA80604FEA69
:101650001C4C0CFB0BF7D21B03FB0CF761EB0701D7
:101660000CFB0EF7B0EB074072EB17420CFB08F7D0
:1016700034BFA2EB0742B2EB074261EB174115EB17
:101680001C154FEA813141EA92414FEA823242EA27
:1016900090424FEA80304FEA0C7644F1000448EA69
:1016A00003434EEA0B484FF0000EB2EB080C71EB0F
:1016B000030724BF624639464EEB0E0E4FF0000B77
:1016C0000018524149414BEB0B0BB2EB080C71EB8C
:1016D00003077BF1000B24BF624639464EEB0E0E2A
:1016E0004FF0000B0018524149414BEB0B0BB2EB92
:1016F000080C71EB03077BF1000B24BF62463946EF
:101700004EEB0E0E51EA020718BF46F0010616EB2B
:101710000E7655F1000254F1000103D5BDE88901B0
:10172000BDE80088BDE88901BDE80048B61952410E
:1017300041EB0101A3F10103704780807F7E7D7C36
:101740007B7A7978777676757473727171706F6E53
:101750006E6D6C6C6B6A6A696868676666656464FE
:10176000636362616160605F5F5E5E5D5D5C5C5B88
:101770005B5A5A59595858575756565555555454F7
:10178000535352525251515050504F4F4F4E4E4D55
:101790004D4D4C4C4C4B4B4B4A4A4A4949494848A1
:1017A00048474747474646464545454444444443E1
:1017B00043434342424242414141002B9C4630D484
:1017C00077002BD01CB54FEA370703B44FF0100059
:1017D0004FF01001BAF1000F06D0BCF1000FDCBFD2
:1017E00040F0080040F008014FF000000FBCBDE8D9
:1017F00010400BF1010BBBF1010F08BF5FEA1707A7
:1018000022BF12F1010211F101014FF0004143F139
:10181000000300F0004043EA00007047F9D3570886
:10182000D0E746EA064613F1400F4FEA16461FDDA1
:1018300013F1200FDFBF16430A46002120335B421D
:10184000BED0C3F1200746EA064602FA07F74FEA80
:10185000164646EA0706C3F1200722FA03F201FA08
:1018600007F721FA03F14FF0000342EA0702A7E766
:1018700046EA020646EA06464FEA164646EA0106E8
:10188000BCBF46EA0646360C4FF000034FF000029C
:101890004FF0000194E72DE9804C9A46934670B4CE
:1018A00091E8380007C831EA400C48BF34EA430CDD
:1018B00003D5FFF7E6FDFFF780FFF0BCBDE8008C25
:1018C0002DE9804C9A46934670B491E8380007C8D9
:1018D00010F0804F08BF13F0804F03D100F005F8DF
:1018E000FFF76BFFF0BCBDE8008C20F07F4780EA7B
:1018F000030023F07F4C07EB0C03A3F57C5300F0AF
:101900000040A3F1FE0392F0000F00F0B38095F0C9
:10191000000F00F077802DE901494FEA11404FEAAE
:10192000144621EA004800FB06FC24EA064708FBAF
:1019300006F607FB08F800FB07F718EB06484CEB28
:10194000164C4FEA124B18EB07484FEA15464CEB82
:10195000174022EA0B4E0BFB06FC25EA06470EFB5E
:1019600006F607FB0EFE0BFB07F71EEB064E4CEBD5
:10197000164C4FF000061EEB074E4CEB174B18EBC6
:101980000B0840F1000018EB0E0B58EB000840F17B
:1019900000008F1A4FF000013CBFC943661B14BF03
:1019A000B5EB040C00213CBFC943F61B4FEA1744BA
:1019B0004EEA8E0E27EA04454FEA1C4704FB0762F5
:1019C0002CEA074C05FB07F70CFB05F604FB0CFCA7
:1019D00016EB074642EB174216EB0C4642EB1C4255
:1019E0001BEB060658EB0202414146EA9E0601D572
:1019F000BDE80189B619524141EB0101A3F1010390
:101A0000BDE801894FEA14454FEA114724EA05462B
:101A100021EA074C05FB07F406FB07F70CFB06F170
:101A200005FB0CFC11EB074144EB17444FEA12474E
:101A300011EB0C4144EB1C4422EA074C05FB07F276
:101A400006FB07F70CFB06F605FB0CFC16EB07463E
:101A500042EB174216EB0C4642EB1C456A1854F158
:101A6000000148BF7047B619524141EB0101A3F193
:101A70000103704795F0000F37D04FEA11424FEA4B
:101A8000144721EA024624EA074C02FB07F106FB51
:101A900007F70CFB06F402FB0CFC14EB074441EBCC
:101AA00017414FEA154714EB0C4441EB1C4125EA62
:101AB000074C02FB07F506FB07F70CFB06F602FBDB
:101AC0000CFC16EB074645EB174516EB0C4645EBB1
:101AD0001C42121951F1000148BF7047B61952411A
:101AE00041EB0101A3F1010370474FEA14454FEAAE
:101AF000114724EA054621EA074C05FB07F106FBDE
:101B000007F70CFB06F24FF0000605FB0CFC12EB8E
:101B1000074241EB174112EB0C4251EB1C4148BF0D
:101B20007047921841EB0101A3F10103704770B5B2
:101B30000546AC6B206C00F0500050BB206C40F4AC
:101B4000007020642068806800F04050E8B9207E72
:101B5000D8B92068C06A00F4700020B1206880689D
:101B600000F4806088B92068406820F02000216877
:101B70004860206C20F480702064206C00F4805059
:101B800018B9206C40F001002064204600F0F6FBFC
:101B90000BE0206C00F0100018B1204600F012FCA1
:101BA00003E0A06BC16C2846884770BD70B5054640
:101BB000AC6B40202064606C40F004006064204600
:101BC00000F000FC70BD70B50446A56B284600F01F
:101BD000D6FB70BD55494A6822F440324A604A68D3
:101BE00043681A434A600268526822F480720368AC
:101BF0005A6002685368026943EA022203685A6025
:101C00000268526822F0407203685A6002685268A3
:101C100083681A4303685A600268926822F400627B
:101C200003689A6002689268C3681A4303689A60FE
:101C30003F4B826A9A4218D00268926822F0706222
:101C400003689A6002689268836A1A4303689A601C
:101C50000268926822F0405203689A6002689268B3
:101C6000C36A1A4303689A600BE00268926822F024
:101C7000706203689A600268926822F040520368BA
:101C80009A600268926822F0020203689A60026811
:101C90009368027E43EA420203689A602022125C43
:101CA000A2B10268526842F4006203685A60026896
:101CB000526822F4604203685A6002685368426ABC
:101CC000521E43EA423203685A6005E002685268D5
:101CD00022F4006203685A600268D26A22F4700239
:101CE0000368DA620268D36A828B521E43EA0252A8
:101CF0000368DA620268926822F4007203689A60EC
:101D00000268936890F8302043EA422203689A60A0
:101D10000268926822F4806203689A60026893689D
:101D2000426943EA822203689A60704700230140B7
:101D30000100000F00BFFEE710B5034800F092FD60
:101D40000EF078FA10BD0000C003002001460878AC
:101D500010381823B0FBF3F20848805CC865032AEA
:101D600005D908686FF30900001D886503E008685D
:101D70006FF309008865886D70470000709901084D
:101D8000014600208A6A8B69CBB932B1012A0DD095
:101D9000022A03D0032A10D10EE000BFCB6A03F061
:101DA0008073B3F1807F00D1012007E0CB6AB3F1EB
:101DB000C07F00D1012001E000E000BF34E08B696A
:101DC000B3F5005F1AD132B1012A07D0022A03D03D
:101DD000032A11D10AE000BF01200EE0CB6A03F014
:101DE0008073B3F1807F00D1012006E0CB6AB3F1AC
:101DF000C07F00D1012000E000BF15E032B1012A10
:101E000005D0022A04D0032A0CD103E000BF00BF92
:101E1000012008E0CB6A03F08073B3F1807F00D12A
:101E2000012000E000BF00BF704730B5046824689F
:101E300024F4802405682C60046863608468402C66
:101E400004D10468A2600468E16003E00468A16052
:101E50000468E26030BD0146002200BF05E00023B7
:101E600001F5617040F82230521C0F2AF7D300228E
:101E700004E0002301F58E708354521CB2F5007FFC
:101E8000F7D3002008704870012088700020C1F846
:101E9000C40301230B7640238B7100234B7681F81A
:101EA0001C33012381F81D33002381F81F3381F88F
:101EB0001E3370477047704710B5012001F0BAF823
:101EC00010BD10B5022001F0B5F810BD10B51020FE
:101ED00001F0B0F810BD10B5202001F0ABF8802063
:101EE00001F0A8F810BD72B600BFFEE730B5044699
:101EF0000D4600222946204600F002F830BD0000C1
:101F0000F0B50346012500241148407A01281CDA67
:101F100000200F4E767A0E4FB8553846467A001D8F
:101F200040F82630001F467A083082553E46707AC7
:101F3000461C7E72044604F1300008703A20487056
:101F40002F2088700020C87000252846F0BD0000B2
:101F50007C30002010B5002201B909E0012901D12F
:101F60000A0205E0022901D10A0201E04FF44072A1
:101F70000E4B1B6823F440730C4C236023461B68F4
:101F80001343236023461B6823F0F8032360234692
:101F90001B68022444EAC0042343044C2360234604
:101FA0001B6843F48033236010BD0000103C0240E6
:101FB0001C48006800F40070B0B11A48006820F4B2
:101FC00000701849086000BF0846006840F40060CF
:101FD00008600846006820F40060086000BF0846FA
:101FE000006840F4007008600E48006800F48060EB
:101FF000B0B10C48006820F480600A49086000BF56
:102000000846006840F4805008600846006820F4E4
:102010008050086000BF0846006840F48060086097
:1020200070470000003C0240074A126822F44072E8
:10203000054B1A601A4612681A601A46126842F076
:1020400001021A6001707047103C024010B50D4942
:10205000096821F440710B4C21602146096841F464
:10206000407121602146096841F001012160026050
:1020700000BF00BF00BFBFF36F8F00BF00BF00BF36
:10208000436010BD103C0240084A126822F44072BE
:10209000064B1A601A46126842F480721A601A4699
:1020A000126842F001021A6001807047103C024041
:1020B000084A126822F44072064B1A601A461268E7
:1020C00042F400721A601A46126842F001021A6065
:1020D00001607047103C02402A48006800F0100080
:1020E00040B12948C06940F010002749C86110205C
:1020F000244908602348006800F0200040B12248CD
:10210000C06940F008002049C86120201D490860CE
:102110001C48006800F0400040B11B48C06940F016
:1021200004001949C8614020164908601548006834
:1021300000F0800040B11448C06940F0020012492C
:10214000C86180200F4908600E48006800F4807064
:1021500048B10D48C06940F001000B49C8614FF417
:102160008070084908600748006800F0020040B12C
:102170000548C06940F020000349C86102200149B8
:10218000086070470C3C02406404002070B50446AF
:10219000002500201449C86101F03EF8054609E019
:1021A000601C38B124B101F037F8401BA04201D9BE
:1021B000032070BD0D48006800F480300028EFD186
:1021C0000A48006800F0010010B1012007490860CA
:1021D0000648006800F4F97018B1FFF77DFF012090
:1021E000E7E70020E5E70000640400200C3C024023
:1021F00038B502460020009000BF92F83C0001284C
:1022000001D1022038BD012082F83C0000BF0868DF
:10221000092816D91068C0680C780A3C04EB4405FC
:102220000724AC40A0431468E0600C780A3C04EB3F
:1022300044048868A0401468E46820431468E0609F
:1022400013E0106800690C7804EB44050724AC40E7
:10225000A043146820610C7804EB44048868A04013
:10226000146824692043146820614868072817D23D
:102270001068406B0C79641E04EB84051F24AC408D
:10228000A04314686063088880B20C79641E04EB74
:102290008404A0401468646B20431468606331E0D8
:1022A00048680D2817D21068006B0C79E41F04EB06
:1022B00084051F24AC40A04314682063088880B2C2
:1022C0000C79E41F04EB8404A0401468246B2043C1
:1022D0001468206316E01068C06A0C790D3C04EBAA
:1022E00084051F24AC40A0431468E062088880B2D3
:1022F0000C790D3C04EB8404A0401468E46A20438C
:102300001468E062194B1A4C1068A04206D10868A4
:10231000122803D1586840F480005860144C1068AB
:10232000A0421CD10868102802D00868112816D1D4
:10233000586840F400005860086810280FD10D4814
:1023400000680D4CB0FBF4F000EB80004000009002
:1023500002E00098401E009000980028F9D100BFCC
:10236000002082F83C0000BF00BF4BE70023014083
:10237000002001403C00002040420F0070477047A1
:1023800070B5044600250CB9012070BD206C40F0EA
:10239000020020642068806820F0010021688860C5
:1023A0002068806800F0010028B9204600F040F85D
:1023B00000206064206400BF002084F83C0000BF5F
:1023C0002846E2E77047000070B5044600250CB9C6
:1023D000012070BD1549A06A884200D000BF206C62
:1023E00030B9204600F044F80020606484F83C00D6
:1023F000206C00F0100088B9206C20F4885040F068
:10240000020020642046FFF7E5FB00206064206C9A
:1024100020F0020040F00100206400E0012500BF30
:10242000002084F83C0000BF2846D2E70100000FDE
:1024300010B504460A492068884210D1094800684E
:1024400020F4807007490860B221074800F0CAFCF8
:102450000121064800F0C6FCA06B00F0CBF910BDCE
:1024600000200140443802400000024000040240C5
:1024700010B586B00446142101A8FEF787FA344946
:102480002068884262D100BF002000903148006877
:1024900040F480702F4908600846006800F480709E
:1024A000009000BF00BF00BF0020009029481438F2
:1024B000006840F0010027491439086008460068A8
:1024C00000F00100009000BF00BF00BF002000909E
:1024D0000846006840F0020008600846006800F006
:1024E0000200009000BF00BFB220019003200290C4
:1024F0000020039001A9184800F0AAFD01200190D6
:10250000032002900020039001A9144800F0A0FDD0
:102510001348144908600020486000211148816078
:10252000C1604FF48061016189004161890081616E
:102530000021C1610162416200F0B4FA08B1FFF705
:10254000D2FC00BF0748A063846300BF06B010BD83
:1025500000200140443802400000024000040240D4
:1025600010640240C003002008B50146002000901E
:1025700000BF91F83C00012801D1022008BD0120D4
:1025800081F83C0000BF0868806800F00100A0B935
:102590000868806840F001000B6898603348006864
:1025A000334BB0FBF3F000EB4000009002E00098EA
:1025B000401E009000980028F9D10868806800F05B
:1025C0000100002848D0086C40F20163984340F4B1
:1025D000807008640868406800F4806028B1086C66
:1025E00020F4005040F480500864086C00F48050DF
:1025F000B0F5805F04D1486C20F00600486401E02B
:102600000020486400BF002081F83C0000BF194A48
:102610006FF022000B681860506800F01F0058B976
:102620000868806800F04050F0B90868806840F0A1
:1026300080400B68986017E00F4B0868984213D1F0
:102640000868806800F0405070B90868806840F001
:1026500080400B68986007E0086C40F01000086448
:10266000486C40F001004864002087E73C000020EF
:1026700040420F000023014000200140F8B504460D
:102680000D4616460020009000BF94F83C0001283B
:1026900001D10220F8BD012084F83C0000BF206871
:1026A000806800F00100A0B92068806840F0010057
:1026B00021688860484800684849B0FBF1F000EBA9
:1026C0004000009002E00098401E00900098002812
:1026D000F9D12068806800F48070B0F5807F05D162
:1026E0002068806820F48070216888602068806895
:1026F00000F00100002865D0206C40F201618843A1
:1027000040F4807020642068406800F4806028B144
:10271000206C20F4005040F480502064206C00F4C1
:102720008050B0F5805F04D1606C20F006006064DA
:1027300001E00020606400BF002084F83C0000BF7E
:10274000274F2848A16BC8632748A16B0864274816
:10275000A16BC8646FF0220021680860206840689F
:1027600040F08060216848602068806840F4807094
:1027700021688860226802F14C0133462A46A06B2A
:1027800000F006FA786800F01F0058B920688068E9
:1027900000F04050F0B92068806840F08040216827
:1027A000886017E012492068884213D12068806849
:1027B00000F0405070B92068806840F08040216887
:1027C000886007E0206C40F010002064606C40F0EE
:1027D0000100606400205DE73C00002040420F00E3
:1027E000002301402F1B0008C71B0008AD1B000879
:1027F0000020014070B504460CB9012070BD94F86A
:102800003500022800D1F9E72068006820F00100B7
:1028100021680860002021680860216848602168FC
:1028200088602168C86021680861212021684861AA
:102830002046FFF78BFA05460020E06320646064C1
:10284000A064E064206594F85C103F208840A86094
:102850000020606584F8350000BF84F8340000BFB4
:1028600000BFCBE7F8B50446002000908C48006814
:102870004FF41651B0FBF1F7A56D2E6894F85C107B
:1028800008208840304098B12068006800F00400BB
:1028900070B12068006820F004002168086094F896
:1028A0005C1008208840A860606D40F00100606501
:1028B00094F85C1001208840304068B1206840697D
:1028C00000F0800040B194F85C1001208840A860BE
:1028D000606D40F00200606594F85C100420884050
:1028E000304068B12068006800F0020040B194F800
:1028F0005C1004208840A860606D40F004006065B2
:1029000094F85C1010208840304078B3206800684C
:1029100000F0080050B394F85C1010208840A860C4
:102920002068006800F4802080B12068006800F40E
:10293000002028B9206CC8B12046216C884715E0DA
:10294000A06C98B12046A16C88470FE02068006811
:1029500000F4807028B92068006820F00800216821
:102960000860206C10B12046216C884794F85C10F8
:10297000202088403040002865D02068006800F0A2
:10298000100000285FD094F85C1020208840A860D8
:1029900094F83500052828D12068006820F016003A
:1029A000216808602068406920F080002168486143
:1029B000206C08B9A06C28B12068006820F00800DD
:1029C0002168086094F85C103F208840A8600120CE
:1029D00084F8350000BF002084F8340000BF206D6B
:1029E00010B12046216D8847F8BD2068006800F4CA
:1029F000802080B12068006800F4002028B9606C55
:102A000010B12046616C88471DE0E06BD8B12046CC
:102A1000E16B884717E02068006800F4807068B9AF
:102A20002068006820F0100021680860012084F808
:102A3000350000BF002084F8340000BFE06B10B107
:102A40002046E16B8847606D38B3606D00F001008F
:102A5000F0B1052084F835002068006820F00100FE
:102A60002168086000BF0098401C0090B84200D95F
:102A700005E02068006800F001000028F3D100BFE5
:102A8000012084F8350000BF002084F8340000BF26
:102A9000E06C10B12046E16C884700BFA4E700005D
:102AA0003C0000202DE9F0410446002500F0B4FB75
:102AB000074614B90120BDE8F081606A00B100BF8B
:102AC000022084F8350000BF002084F8340000BFE5
:102AD0002068006820F00100216808600AE000F02A
:102AE0009BFBC01B052805D920206065032084F8C6
:102AF0003500E0E72068006800F001000028EED112
:102B00002068056821480540D4E901010843E168CF
:102B100008432169084361690843A1690843E169E1
:102B20000843216A08430543606A042803D1D4E9B5
:102B30000B0108430543206805602068456925F0BE
:102B40000705606A0543606A04280DD1A06A054341
:102B5000E06A48B12046FFF713F928B140206065CC
:102B6000012084F83500A6E7206845612046FFF77C
:102B7000EDF8064694F85C103F208840B0600020D5
:102B80006065012084F83500002094E73F8010F054
:102B90002DE9F04704460D4616461F464FF0000843
:102BA000D4F8589000BF94F83400012802D10220D4
:102BB000BDE8F087012084F8340000BF94F83500A8
:102BC000012825D1022084F83500002060653B46AD
:102BD000324629462046FFF728F994F85C103F203A
:102BE0008840C9F808002068006840F01600216895
:102BF0000860206C28B12068006840F00800216857
:102C000008602068006840F001002168086006E064
:102C100000BF002084F8340000BF4FF00208404697
:102C2000C6E7000070B5044600F0F6FA06462546F1
:102C3000681C10B104480078054400BF00F0ECFAAD
:102C4000801BA842FAD370BD380000202DE9F04166
:102C500004460E460127002500BF2548007E0128B6
:102C600002D10220BDE8F08101202149087600BF91
:102C70004CF25030FFF78AFA0746002F31D1401E40
:102C80003060206801280FD1207C61680DF0D8F9F0
:102C90004CF25030FFF77AFA07461648006820F0E9
:102CA0000400144908601AE0A56812E0217C284657
:102CB000FFF750F94CF25030FFF768FA07460D481D
:102CC000006820F0FA000B4908600FB1356005E09C
:102CD0006D1CD4E902100844A842E7D800BFFFF7F2
:102CE00067F900BF00200249087600BF3846B9E7FF
:102CF00064040020103C02400148C0697047000095
:102D0000640400200348006840F000400149086066
:102D100000207047103C02402DE9F04106460F4666
:102D200014461D464FF0010800BF1F48007E0128D1
:102D300002D10220BDE8F08101201B49087600BFC6
:102D40004CF25030FFF722FA8046B8F1000F23D141
:102D500026B9E1B23846FFF767F912E0012E04D137
:102D6000A1B23846FFF790F90BE0022E04D12146BC
:102D70003846FFF79DF904E022462B463846FFF718
:102D800065F94CF25030FFF701FA804607480068B9
:102D900020F001000549086000BF002002490876C4
:102DA00000BF4046C6E7000064040020103C02401B
:102DB00000200949096801F0004159B10749064A54
:102DC0000C3A1160064911600349096801F000419D
:102DD00001B1012070470000103C0240230167450B
:102DE000AB89EFCDF0B50C46002500220023002171
:102DF00081E0012606FA01F504EA0502AA4279D12A
:102E00003F4E8F0856F827308E07370F0F26BE40EB
:102E100033403C4EB04201D1002614E03A4EB0425D
:102E200001D101260FE0394EB04201D102260AE05D
:102E3000374EB04201D1032605E0364EB04201D1F3
:102E4000042600E007268F073F0FBE409E4222D196
:102E5000314E36689643304F3E603E1D366896438D
:102E60003F1D3E603E1D366896433F1D3E603E1D41
:102E7000366896433F1D3E608E07370F0F2606FAD1
:102E800007F31F4E8F0856F827609E431C4F4FEAEA
:102E9000910C47F82C6006684FEA410C032707FAAB
:102EA0000CF7BE430660CF0800F1200656F82760F5
:102EB0004F074FEAD76C0F2707FA0CF7BE434FEACC
:102EC000D10C00F1200747F82C60C6684FEA410C8E
:102ED000032707FA0CF7BE43C660466801278F40F8
:102EE000BE43466086684FEA410C032707FA0CF799
:102EF000BE438660491C1029FFF47BAFF0BD000083
:102F0000083801400000024000040240000802406E
:102F1000000C024000100240003C014010B5044685
:102F2000102C35D004DC012C5AD0022C6CD11BE0C3
:102F3000202C41D0802C67D1344800783449087067
:102F400080223449344812F0B7F930B1012008F03A
:102F500039FA01203149887305E0002008F032FA7F
:102F600000202E4988734FE02D48007828490870CA
:102F700002222849284812F09FF918B10121274858
:102F8000C17302E000212548C17308F0D3FB3BE088
:102F9000244800781E49087010221E491E4812F06D
:102FA0008BF918B101211D48017402E000211B4872
:102FB000017408F0BFFB27E01B4800781449087033
:102FC00020221449144812F077F918B1012113484E
:102FD000417402E000211148417408F0ABFB13E09A
:102FE000124800780A490870012211490A4812F073
:102FF00063F918B101210948817402E000210748F2
:10300000817408F097FB00BF00BF10BDD401002001
:10301000400200200000024070000020C831002063
:10302000D8010020DC010020E0010020E4010020A4
:103030000004024010B5044604480068204020B156
:10304000024804602046FFF769FF10BD143C0140B0
:10305000F8B502460B460025002400200021C6E0FA
:10306000012606FA01F51E6806EA0504AC4274D191
:103070001E7906F00306012E04D01E7906F0030621
:10308000022E13D190684F000326BE40B0434F007C
:10309000DE68BE4030439060506801268E40B043E9
:1030A0001E79C6F300168E40304350601E7906F03C
:1030B0000306032E09D0D0684F000326BE40B0435C
:1030C0004F009E68BE403043D0601E7906F0030674
:1030D000022E13D1CF0802F1200656F827004E0722
:1030E000F70E0F26BE40B0434F07FF0E1E69BE40CD
:1030F0003043CF0802F1200646F8270010684F0041
:103100000326BE40B0431E7906F003064F00BE40C2
:10311000304310605E6806F44036002E66D000BF73
:1031200000260096344E366846F48046324F3E60A4
:103130003E46366806F48046009600BF00BF2F4E1C
:103140008F0856F827008E07370F0F26BE40B04372
:103150002B4EB24202D1002615E047E0294EB24282
:1031600001D101260FE0284EB24201D102260AE029
:10317000264EB24201D1032605E0254EB24201D1CE
:10318000042600E007268F073F0FBE4030431B4E4A
:103190008F0846F827001F4E3068A0435E6806F48B
:1031A000803606B120431B4E3060361D3068A04388
:1031B0005E6806F4003606B12043164E361D3060B8
:1031C000361D3068A0435E6806F4801606B12043C1
:1031D000104E08363060361D3068A0435E6806F435
:1031E000001606B120430B4E0C363060491C1029E6
:1031F000FFF436AFF8BD0000443802400838014003
:10320000000002400004024000080240000C02409E
:1032100000100240003C0140014800687047000077
:103220003000002010B50446D4F8000303F0B0F8D5
:1032300010BD10B50446D4F8000303F0B4F810BD77
:1032400010B50446206804F05FFF10BD10B50446B9
:10325000206804F060FF10BD024601EB410000EB66
:10326000C10302F1380000EB830090F8280070479A
:10327000024601EB410000EBC10302F1380000EB14
:1032800083008069704770B504460D46002600BF74
:1032900094F8F802012801D1022070BD012084F8C1
:1032A000F80200BF2946206804F046FF00BF002056
:1032B00084F8F80200BF3046EFE72DE9FE4F0446E0
:1032C0000D4616461F46DDE90D9ADDF8308000BF39
:1032D00094F8F802012802D10220BDE8FE8F0120F7
:1032E00084F8F80200BF002105EB450000EBC502A1
:1032F00004F1380000EB8200417105EB450000EB62
:10330000C50104F1380000F8217005EB450000EB21
:10331000C50104F1380000EB8100A0F808A005EB1E
:10332000450000EBC50104F1380000EB8100457059
:1033300005EB450000EBC50104F1380000EB81000E
:1033400080F8079006F07F0105EB450000EBC50211
:1033500004F1380000EB8200817006F080008028C4
:103360000AD1012105EB450000EBC50204F138004C
:1033700000EB8200C17009E0002105EB450000EB85
:10338000C50204F1380000EB8200C17005EB450076
:1033900000EBC50104F1380000EB810080F80480E7
:1033A0008DE800073B4632462946206804F09CFF22
:1033B000834600BF002084F8F80200BF58468CE71F
:1033C00070472DE9F05F04460D4616461F46DDE9BD
:1033D0000C9BDDE90A8A05EB450000EBC50104F111
:1033E000380000EB8100C67005EB450000EBC5011D
:1033F00004F1380000EB8100C771B8F1000F14D15F
:10340000032105EB450000EBC50204F1380000EB99
:103410008200817205EB450000EBC50104F1380024
:1034200000EB810080F805B009E0022105EB4500C2
:1034300000EBC50204F1380000EB8200817237B165
:10344000012F76D0022F33D0032F73D173E0B8F160
:10345000010F2CD106BBB9F1000F09D1012105EBF9
:10346000450000EBC50204F1380000EB8200417713
:1034700005EB450000EBC50104F1380000EB8100CD
:10348000407F50B9002105EB450000EBC50204F177
:10349000380000EB8200817209E0022105EB450053
:1034A00000EBC50204F1380000EB820081728FE06E
:1034B000FEB905EB450000EBC50104F1380000EB57
:1034C0008100407F50B9002105EB450000EBC502AB
:1034D00004F1380000EB8200817229E0022105EB43
:1034E000450000EBC50204F1380000EB8200817258
:1034F0001EE005EB450000EBC50104F1380000EBD0
:103500008100007F50B9002105EB450000EBC502AA
:1035100004F1380000EB8200817209E0022105EB22
:10352000450000EBC50204F1380000EB8200817217
:103530004EE041E04BE0FEB905EB450000EBC50174
:1035400004F1380000EB8100407F50B9002105EB09
:10355000450000EBC50204F1380000EB82008172E7
:1035600029E0022105EB450000EBC50204F138001B
:1035700000EB820081721EE005EB450000EBC50107
:1035800004F1380000EB8100007F50B9002105EB09
:10359000450000EBC50204F1380000EB82008172A7
:1035A00009E0022105EB450000EBC50204F13800FB
:1035B00000EB820081720BE0002105EB450000EB7F
:1035C000C50204F1380000EB8200817200E000BF08
:1035D00000BF05EB450000EBC50104F1380000EB2E
:1035E0008100C0F80CA005EB450000EBC50104F11B
:1035F000380000EB8100C0F81490002105EB450075
:1036000000EBC50204F1380000EB820080F82810BE
:1036100005EB450000EBC50204F1380000EB820029
:10362000816105EB450000EBC50104F1380000EBBA
:1036300081004570002105EB450000EBC50204F157
:10364000380000EB820080F82910227C05EB45034E
:1036500003EBC50C04F1380303EB8C01206804F084
:103660001DFFBDE8F09F2DE9F04104462768B846EC
:10367000206804F05CFD01287DD1206805F090F8F9
:1036800008B9BDE8F081206805F08AF800F4001060
:10369000B0F5001F03D14FF4001021684861206885
:1036A00005F07EF800F48010B0F5801F03D14FF4D0
:1036B000801021684861206805F072F800F0806091
:1036C000B0F1806F03D14FF08060216848612068BD
:1036D00005F066F800F00200022801D12168486177
:1036E000206805F05DF800F00050B0F1005F16D1E1
:1036F0004FF0005021684861D8F8400400F0010004
:1037000068B91021384604F0E5FC384604F0CAFCDC
:103710000121206805F022F82046FFF78AFD206885
:1037200005F03EF800F08070B0F1807F02D12046B5
:1037300001F0EBFD206805F033F800F008000828E0
:1037400005D1204600F0EEF8082021684861206885
:1037500005F026F8C0F3001080B12068806920F0E1
:10376000100021688861204601F02AFE20688069E7
:1037700040F0100000E030E021688861206805F02A
:103780000FF800F00070B0F1007F26D1206804F03F
:103790007DFE0646002519E005F00F010120884056
:1037A000304090B108F5A06000EB4510006800F4CF
:1037B0000040B0F5004F04D1E9B2204600F051FEC0
:1037C00003E0E9B2204601F0FDF96D1CA068A842B3
:1037D000E2D84FF000702168486100BF51E730B572
:1037E0008BB0044614B901200BB030BD256894F8A5
:1037F000F90228B9002084F8F802204600F02AF8DF
:10380000032084F8F902E86B00F4807008B9002105
:103810002161206804F0F0FB282204F110016846C1
:10382000FDF758F894E80F0004F07AFB01212068B6
:1038300005F009F8282204F110016846FDF74AF85E
:1038400094E80F0004F012FF012084F8F902002030
:10385000CAE7000010B586B00446142101A8FDF7A0
:1038600095F82068B0F1A04F42D100BF0020009031
:103870002048006840F001001E49086008460068C2
:1038800000F00100009000BF00BF4FF4C050019055
:103890000220029000200390032004900A2005904B
:1038A00001A91548FFF7D4FB00BF1248001D0068AE
:1038B00040F080000F49091D086000BF0020009003
:1038C0000C481430006840F480400A491431086004
:1038D0000846006800F48040009000BF00BF00BFB1
:1038E00000221146432000F015F9432000F002F9B0
:1038F00006B010BD303802400000024010B504464A
:10390000D4F8000302F018FE10BD10B50446D4F838
:10391000000302F015FE10BD10B50446206804F047
:1039200074FF10BD10B50446D4F8000302F0ACFDDE
:1039300010BD10B5044600BF94F8F802012801D16B
:10394000022010BD012084F8F80200BF0121206888
:1039500004F07CFB206804F09EFB00BF002084F88C
:10396000F80200BF00BFECE710B5044600BF94F8B2
:10397000F802012801D1022010BD012084F8F802CC
:1039800000BF206804F093FF00BF002084F8F80215
:1039900000BF00BFF0E710B504460CB9012010BD10
:1039A00094F83D0028B9002084F83C00204600F03F
:1039B000ABFC242084F83D002068C06820F400504F
:1039C0002168C860204601F049FF2068006920F4A2
:1039D0009040216808612068406920F02200216839
:1039E00048612068406940F008002168486120680B
:1039F000C06840F400502168C86000202064202086
:103A000084F83D0084F83E000020C8E703480068C1
:103A100003490978084401490860704730000020D4
:103A20003800002010B50D48006840F400700B49C4
:103A300008600846006840F4806008600846006836
:103A400040F480700860032000F0A2F80F2000F01E
:103A500007F800F02BF8002010BD0000003C0240E9
:103A600070B504460E4800784FF47A71B1FBF0F05F
:103A70000C490968B1FBF0F5284600F02BFC08B1B1
:103A8000012070BD102C07D200222146501E00F0EC
:103A900041F80548046001E00120F2E70020F0E76A
:103AA000380000203C0000203400002008B500BF92
:103AB000002000900E48006840F480400C490860E7
:103AC0000846006800F48040009000BF00BF00BFBF
:103AD00000200090081F006840F08050091F086017
:103AE0000846006800F08050009000BF00BF08BD8D
:103AF0004438024001460846002809DB00F01F0355
:103B000001229A4043099B0003F1E023C3F80021FE
:103B100000BF70472DE9F05F80460D46164600272E
:103B200012F0B0FB074639462A46334601F007003B
:103B3000C0F1070ABAF1040F02D94FF0040A01E0FC
:103B4000C0F1070AD14600F1040ABAF1070F02D208
:103B50004FF0000A01E0A0F1030AD4464FF0010A39
:103B60000AFA09FAAAF1010A0AEA020A0AFA0CFA9E
:103B70004FF0010B0BFA0CFBABF1010B0BEA030B43
:103B80004AEA0B042146404612F084FBBDE8F09F50
:103B900000BF00F00702064B19684FF6FF031940FB
:103BA000044B0B4343EA0221014B196000BF7047ED
:103BB0000CED00E00000FA0570B504460D460CB9A6
:103BC000012070BD5848006800F00700A84209D2E3
:103BD00055490D700846006800F00700A84201D062
:103BE0000120EEE7207800F0020002281DD12078A5
:103BF00000F00400042805D14C48006840F4E0506F
:103C00004A490860207800F00800082805D1474894
:103C1000006840F46040454908604448006820F06E
:103C2000F000A168084341490860207800F00100D5
:103C3000A8B36068012807D13C4808380068C0F381
:103C40004040B8B90120BCE76068022802D0606833
:103C5000032807D1354808380068C0F3406048B9E8
:103C60000120AEE7314808380068C0F3400008B9C9
:103C70000120A6E72D48006820F003006168084392
:103C80002A490860FFF7C8FA064609E0FFF7C4FAB8
:103C9000801B41F28831884202D9032091E707E076
:103CA0002248006800F00C006168B0EB810FEDD194
:103CB0001D48006800F00700A84209D91A490D7094
:103CC0000846006800F00700A84201D0012078E70C
:103CD000207800F00400042807D11448006820F47C
:103CE000E050E168084311490860207800F00800BE
:103CF000082808D10D48006820F46040216940EA96
:103D0000C1000A49086000F03FF808490968C1F39A
:103D10000311074A515CC84006490860064800681C
:103D2000FFF79EFE00204CE7003C024008380240AE
:103D3000789901083C000020340000200148006808
:103D4000704700003C00002000B5FFF7F7FF044972
:103D50000968C1F38221034A515CC84000BD0000DC
:103D6000083802408899010800B5FFF7E7FF0449C9
:103D70000968C1F34231034A515CC84000BD0000EC
:103D800008380240889901082DE9F04700240025F1
:103D90000026A1462548006800F00C0020B1042848
:103DA00005D008283AD105E0DFF8849039E0DFF843
:103DB000849036E01D48001F006800F03F041B4857
:103DC000001F006800F4800078B11A481749091FE5
:103DD0000968C1F38811A0FB017001462246002347
:103DE0003846FCF7DAFA05460EE011480F49091F7C
:103DF0000968C1F38811A0FB017001462246002327
:103E00003846FCF7CAFA05460848001F0068C0F3A8
:103E10000140401C4600B5FBF6F902E0DFF81090C7
:103E200000BF00BF4846BDE8F087000008380240E8
:103E30000024F40040787D01F8B504460CB9012057
:103E4000F8BD207800F00100002874D0F94800681F
:103E500000F00C0004280DD0F648006800F00C00BB
:103E6000082813D1F348001F006800F48000B0F563
:103E7000800F0BD1EF4808380068C0F3404000289D
:103E800059D06068002856D10120D9E700BF60688A
:103E9000B0F5803F08D1E7480838006840F480302A
:103EA000E449083908601EE06068B0F5A02F0DD124
:103EB000E0480838006840F48020DE49083908608E
:103EC0000846006840F4803008600CE0D9480838A3
:103ED000006820F48030D749083908600846006837
:103EE00020F48020086000BF606890B1FFF794F96B
:103EF000054606E0FFF790F9401B642801D903202E
:103F00009EE7CC4808380068C0F340400028F1D054
:103F100011E0FFF781F9054606E0FFF77DF9401B48
:103F2000642801D903208BE7C24808380068C0F331
:103F300040400028F1D1207800F0020002285FD133
:103F4000BC48006800F00C0058B1BA48006800F0A6
:103F50000C0008281CD1B748001F006800F480003E
:103F6000B0B9B44808380068C0F3400020B1E06838
:103F7000012801D0012063E7AE480838006820F02E
:103F8000F800216940EAC100AA490839086037E011
:103F9000E06800B30120A8490860FFF73DF9054635
:103FA00006E0FFF739F9401B022801D9032047E753
:103FB000A04808380068C0F340000028F1D09D48B0
:103FC0000838006820F0F800216940EAC1009949EA
:103FD0000839086014E0002097490860FFF71CF9D1
:103FE000054606E0FFF718F9401B022801D9032017
:103FF00026E7904808380068C0F340000028F1D157
:10400000207800F0080008282CD16069A8B10120B0
:104010008A490860FFF700F9054606E0FFF7FCF85B
:10402000401B022801D903200AE782486C3000684F
:10403000C0F340000028F1D014E000207F49086060
:10404000FFF7EAF8054606E0FFF7E6F8401B02280E
:1040500001D90320F4E677486C300068C0F34000D3
:104060000028F1D1207800F00400042870D1002746
:1040700070483830006800F0805090B900BF0020D0
:1040800000906C483830006840F080506949383101
:1040900008600846006800F08050009000BF00BF34
:1040A00001276748006800F48070B0B96448006870
:1040B00040F4807062490860FFF7AEF8054606E0FC
:1040C000FFF7AAF8401B022801D90320B8E65C4894
:1040D000006800F480700028F2D000BFA0680128BA
:1040E00008D154486830006840F0010051496831F7
:1040F00008601DE0A06805280DD14E4868300068B2
:1041000040F004004B49683108600846006840F000
:10411000010008600CE047486830006820F00100AA
:104120004449683108600846006820F004000860CF
:1041300000BFA068A8B1FFF76FF8054609E0FFF7D8
:104140006BF8401B41F28831884202D9032077E6A0
:1041500026E0384868300068C0F340000028EED000
:1041600013E0FFF759F8054608E0FFF755F8401B44
:1041700041F28831884201D9032061E62D48683038
:104180000068C0F340000028EFD1012F07D1294873
:104190003830006820F0805026493831086000BF70
:1041A000A069002845D02348006800F00C000828CA
:1041B0005DD0A069022845D100201F490866FFF79D
:1041C0002BF8054606E0FFF727F8401B022801D927
:1041D000032035E6174808380068C0F3406000281F
:1041E000F1D1D4E907010843616A40EA8111012253
:1041F000A06AC2EB500041EA00412C20005D41EA78
:1042000000600C49091F086001200B490866FFF790
:1042100003F8054606E0FEF7FFFF401B022801D920
:1042200003200DE6034808380068C0F3406000280A
:10423000F1D049E00838024000004742800E474272
:1042400000700040002021490866FEF7E5FF0546A2
:1042500006E0FEF7E1FF401B022801D90320EFE54D
:104260001B480068C0F340600028F2D12CE0A06930
:10427000012800D1E4E51648001D0668A069012860
:1042800020D006F48001E06981421BD106F03F0195
:10429000206A814216D147F6C0703040616AB0EBA7
:1042A000811F0FD106F440310122A06AC2EB5000F9
:1042B000B1EB004F06D106F070612C20005DB1EB30
:1042C000006F01D00120BBE50020B9E500004742A6
:1042D0000038024070B504462546681EB0F1807F64
:1042E00001D301200FE0681E4FF0E02148610F214B
:1042F0004FF0FF3011F0CEFF00204FF0E021886139
:1043000007200861002070BD10B586B00446142156
:1043100001A8FCF73BFB1B49206888422FD100BF56
:10432000002000901848006840F01000164908600E
:104330000846006800F01000009000BF00BF00BFFA
:104340000020009010481438006840F002000E4928
:10435000143908600846006800F00200009000BFB1
:1043600000BF402001901220029001200390032002
:1043700004900720059001A90448FEF769FE06B0E5
:1043800010BD00000010014044380240000402400B
:104390002DE9F84F04460E46174699464FF0000A9D
:1043A00094F83D0020285AD106B117B90120BDE884
:1043B000F88F00BF94F83C00012801D10220F6E7F5
:1043C000012084F83C0000BF00202064212084F8F4
:1043D0003D00FEF721FF8246A784E784A068B0F580
:1043E000805F04D1206910B90025B04602E035464F
:1043F0004FF0000800BF002084F83C0000BF1BE025
:104400005346002280212046CDF8009001F03CFB6D
:1044100008B10320CBE745B9B8F80000C0F30800A5
:104420002168486008F1020803E0287821684860A4
:104430006D1CE08C401EE084E08C0028E0D15346E7
:10444000002240212046CDF8009001F01DFB08B16C
:104450000320ACE7202084F83D000020A7E70220DD
:10446000A5E72DE9F04705468846D5F800904E4669
:10447000444606F5A06000EB4410806800F004009C
:10448000042812D1042106F5A06000EB44108160DD
:1044900006F5A06000EB4410C06840F0020106F58C
:1044A000A06000EB4410C160C9E006F5A06000EB1D
:1044B0004410806800F48070B0F5807F22D14FF402
:1044C000807106F5A06000EB44108160072104EBC9
:1044D000440000EBC40205F1380000EB820080F8D4
:1044E000291006F5A06000EB4410C06840F00201FE
:1044F00006F5A06000EB4410C160E1B2286803F04B
:104500001BFE9CE006F5A06000EB4410806800F004
:104510002000202806D1202106F5A06000EB4410E1
:1045200081608CE006F5A06000EB4410806800F02C
:104530000800082827D106F5A06000EB4410C068E9
:1045400040F0020106F5A06000EB4410C1600521B7
:1045500004EB440000EBC40205F1380000EB8200DC
:1045600080F82910102106F5A06000EB441081604E
:10457000082106F5A06000EB44108160E1B22868D4
:1045800003F0DAFD5BE006F5A06000EB4410806804
:1045900000F48060B0F5806F27D106F5A06000EBD5
:1045A0004410C06840F0020106F5A06000EB441022
:1045B000C160082104EB440000EBC40205F138009F
:1045C00000EB820080F82910102106F5A06000EBB6
:1045D00044108160890106F5A06000EB4410816001
:1045E000E1B2286803F0A8FD29E006F5A06000EB21
:1045F0004410806800F08000802820D106F5A0607B
:1046000000EB4410C06840F0020106F5A06000EB2A
:104610004410C160062104EB440000EBC40205F124
:10462000380000EB820080F82910E1B2286803F01E
:1046300083FD802106F5A06000EB4410816006F543
:10464000A06000EB4410806800F40070B0F5007FBB
:1046500017D106F5A06000EB4410C06840F00201DD
:1046600006F5A06000EB4410C160E1B2286803F0D9
:1046700063FD4FF4007106F5A06000EB441081600B
:104680009EE206F5A06000EB4410806800F0010097
:1046900000287DD02869C8B104EB440000EBC401B8
:1046A00005F1380000EB8100016906F5A06000EB20
:1046B00044100069C0F31200091A04EB440000EB37
:1046C000C40205F1380000EB82008161012104EB96
:1046D000440000EBC40205F1380000EB820080F8D2
:1046E0002910002104EB440000EBC40205F138005E
:1046F00000EB82004162012106F5A06000EB44104E
:10470000816004EB440000EBC40105F1380000EBCC
:104710008100C07950B104EB440000EBC40105F105
:10472000380000EB8100C079022816D106F5A060A0
:1047300000EB4410C06840F0020106F5A06000EBF9
:104740004410C160E1B2286803F0F6FC102106F5C0
:10475000A06000EB441081606AE004EB440000EBD1
:10476000C40105F1380000EB8100C079032827D18E
:1047700006F5A06000EB4410006840F0005106F51B
:10478000A06000EB44100160012104EB440000E054
:1047900093E000EBC40205F1380000EB820080F8E2
:1047A000281004EB440000EBC40305F1380000EBD3
:1047B000830090F82820E1B22846FEF701FE37E09A
:1047C00004EB440000EBC40105F1380000EB81006C
:1047D000C07901282CD1012104EB440000EBC40274
:1047E00005F1380000EB820080F8281004EB44004B
:1047F00000EBC40105F1380000EB8100007F80F080
:10480000010104EB440000EBC40205F1380000EBA9
:104810008200017704EB440000EBC40305F138008B
:1048200000EB830090F82820E1B22846FEF7C8FD8F
:10483000286901282CD104EB440000EBC40105F1E8
:10484000380000EB8100016904EB440000EBC40276
:1048500005F1380000EB82000089B1FBF0F000F0B8
:104860000100002813D004EB440000EBC40105F163
:10487000380000EB8100007F80F0010104EB440070
:1048800000EBC40205F1380000EB8200017797E1EC
:1048900004EB440000EBC40105F1380000EB81009B
:1048A000007F80F0010104EB440000EBC40205F13D
:1048B000380000EB8200017782E106F5A06000EB92
:1048C0004410806800F0020002287DD106F5A06047
:1048D00000EB4410C06820F0020106F5A06000EB78
:1048E0004410C16004EB440000EBC40105F1380042
:1048F00000EB810090F8290001280BD1012104EB85
:10490000440000EBC40205F1380000EB820080F89F
:104910002810CFE004EB440000EBC40105F138009F
:1049200000EB810090F8290005280BD1052104EB4C
:10493000440000EBC40205F1380000EB820080F86F
:104940002810B7E004EB440000EBC40105F1380087
:1049500000EB810090F8290006280BD004EB4400FE
:1049600000EBC40105F1380000EB810090F829004C
:1049700008284FD104EB440000EBC40105F13800D6
:1049800000EB8100406A401C04EB440101EBC402CF
:1049900005F1380101EB8201486204EB440000EBB1
:1049A000C40105F1380000EB8100406A022817D9E4
:1049B000002104EB440000EBC40205F1380000EBD9
:1049C00082004162042100E089E004EB440000EB36
:1049D000C40205F1380000EB820080F8281069E07D
:1049E000022104EB440000EBC40205F1380000EBA7
:1049F000820080F8281006F5A06000EB44100768DC
:104A000027F0804747F0004706F5A06000EB441010
:104A100007604FE004EB440000EBC40105F13800EF
:104A200000EB810090F82900032819D1022104EB42
:104A3000440000EBC40205F1380000EB820080F86E
:104A4000281006F5A06000EB4410076827F08047A7
:104A500047F0004706F5A06000EB4410076029E02E
:104A600004EB440000EBC40105F1380000EB8100C9
:104A700090F8290007281DD104EB440000EBC40185
:104A800005F1380000EB8100406A401C04EB440152
:104A900001EBC40205F1380101EB820148620421F7
:104AA00004EB440000EBC40205F1380000EB820087
:104AB00080F82810022106F5A06000EB4410816008
:104AC00004EB440000EBC40305F1380000EB830065
:104AD00090F82820E1B22846FEF772FC70E006F557
:104AE000A06000EB4410806800F01000102867D12F
:104AF00004EB440000EBC40105F1380000EB810039
:104B0000C07903281AD1002104EB440000EBC40251
:104B100005F1380000EB8200416206F5A06000EB71
:104B20004410C06840F0020106F5A06000EB44109C
:104B3000C160E1B2286803F0FFFA3BE004EB4400F7
:104B400000EBC40105F1380000EB8100C07950B1E1
:104B500004EB440000EBC40105F1380000EB8100D8
:104B6000C079022826D1002104EB440000EBC402E6
:104B700005F1380000EB820041622869D0B90321B9
:104B800004EB440000EBC40205F1380000EB8200A6
:104B900080F8291006F5A06000EB4410C06840F0D2
:104BA000020106F5A06000EB4410C160E1B2286884
:104BB00003F0C2FA102106F5A06000EB44108160FA
:104BC000BDE8F0872DE9F04705460F46D5F800907F
:104BD0004E463C4606F5A06000EB4410806800F0AD
:104BE0000400042812D1042106F5A06000EB441053
:104BF000816006F5A06000EB4410C06840F002013F
:104C000006F5A06000EB4410C1607CE306F5A060EF
:104C100000EB4410806800F02000202836D12021CD
:104C200006F5A06000EB4410816004EB440000EB4B
:104C3000C40105F1380000EB810040790128E4D17E
:104C4000002104EB440000EBC40205F1380000EB46
:104C500082004171022104EB440000EBC40205F123
:104C6000380000EB820080F8281006F5A06000EB09
:104C70004410C06840F0020106F5A06000EB44104B
:104C8000C160E1B2286803F057FA3CE306F5A06082
:104C900000EB4410806800F40070B0F5007F17D17D
:104CA00006F5A06000EB4410C06840F0020106F574
:104CB000A06000EB4410C160E1B2286803F03CFA48
:104CC0004FF4007106F5A06000EB441081601AE318
:104CD00006F5A06000EB4410806800F00100E8B326
:104CE000002104EB440000EBC40205F1380000EBA6
:104CF0008200416206F5A06000EB4410806800F07D
:104D0000400040280FD1012104EB440000EBC40215
:104D100005F1380000EB82004171402106F5A060EA
:104D200000EB4410816006F5A06000EB4410C06801
:104D300040F0020106F5A06000EB4410C160E1B252
:104D4000286803F0F9F9012106F5A06000EB441092
:104D5000816004EB440000EBC40200E006E005F1D2
:104D6000380000EB820080F82910CCE206F5A06044
:104D700000EB4410806800F04000402835D1042149
:104D800004EB440000EBC40205F1380000EB8200A4
:104D900080F82910012104EB440000EBC40205F166
:104DA000380000EB82004171002104EB440000EB6D
:104DB000C40205F1380000EB8200416206F5A060F4
:104DC00000EB4410C06840F0020106F5A06000EB63
:104DD0004410C160E1B2286803F0AEF9402106F545
:104DE000A06000EB441081608DE206F5A06000EB4E
:104DF0004410806800F00800082821D1082106F539
:104E0000A06000EB4410816006F5A06000EB441048
:104E1000C06840F0020106F5A06000EB4410C160DC
:104E2000E1B2286803F088F9052104EB440000EBA7
:104E3000C40205F1380000EB820080F8291062E21C
:104E400006F5A06000EB4410806800F01000102808
:104E500049D1002104EB440000EBC40205F1380005
:104E600000EB82004162032104EB440000EBC4022A
:104E700005F1380000EB820080F8291004EB4400B3
:104E800000EBC40105F1380000EB8100407998B9CE
:104E900004EB440000EBC40105F1380000EB810095
:104EA000007948B9012104EB440000EBC40205F18C
:104EB000380000EB8200417106F5A06000EB441061
:104EC000C06840F0020106F5A06000EB4410C1602C
:104ED000E1B2286803F030F9102106F5A06000EB7C
:104EE000441081600FE206F5A06000EB441080687A
:104EF00000F08000802872D12869D8B9062104EB1F
:104F0000440000EBC40205F1380000EB820080F899
:104F1000291006F5A06000EB4410C06840F00201C3
:104F200006F5A06000EB4410C160E1B2286803F010
:104F300003F94CE004EB440000EBC40105F1380038
:104F400000EB8100406A401C04EB440101EBC40209
:104F500005F1380101EB8201486204EB440000EBEB
:104F6000C40105F1380000EB8100406A022823D912
:104F7000002104EB440000EBC40205F1380000EB13
:104F800082004162042104EB440000EBC40205F1FD
:104F9000380000EB820080F8281004EB440000EB9E
:104FA000C40305F1380000EB830090F82820E1B23B
:104FB0002846FEF705FA0AE0022104EB440000EB64
:104FC000C40205F1380000EB820080F8281080212F
:104FD00006F5A06000EB4410816094E1FFE706F560
:104FE000A06000EB4410806800F48060B0F5806F32
:104FF00027D106F5A06000EB4410C06840F0020124
:1050000006F5A06000EB4410C160E1B2286803F02F
:1050100093F8102106F5A06000EB4410816089012F
:1050200006F5A06000EB44108160082104EB440009
:1050300000EBC40205F1380000EB820080F8291073
:1050400061E106F5A06000EB4410806800F002000A
:105050000228C2D106F5A06000EB4410C06820F021
:10506000020106F5A06000EB4410C16004EB4400AF
:1050700000EBC40105F1380000EB810090F8290035
:1050800001287DD1012104EB440000EBC40205F1AD
:10509000380000EB820080F8281004EB440000EB9D
:1050A000C40105F1380000EB8100C07902280AD064
:1050B00004EB440000EBC40105F1380000EB810073
:1050C000C07903285AD1286998B904EB440000EB51
:1050D000C40105F1380000EB8100407F80F0010140
:1050E00004EB440000EBC40205F1380000EB820041
:1050F00041772869012841D104EB440000EBC40149
:1051000005F1380000EB81004069002836D004EB3F
:10511000440000EBC40105F1380000EB8100416957
:1051200004EB440000EBC40205F1380000EB820000
:1051300000890844401E04EB440101EBC40205F160
:10514000380101EB82010989B0FBF1FA0AF0010094
:10515000002813D004EB440000EBC40105F1380033
:1051600000EB8100407F80F0010104EB440000EB84
:10517000C40205F1380000EB82004177AFE0FFE7A1
:1051800004EB440000EBC40105F1380000EB8100A2
:1051900090F8290003280BD1022104EB440000EB16
:1051A000C40205F1380000EB820080F8281096E078
:1051B00004EB440000EBC40105F1380000EB810072
:1051C00090F8290004280BD1022104EB440000EBE5
:1051D000C40205F1380000EB820080F828107EE060
:1051E00004EB440000EBC40105F1380000EB810042
:1051F00090F8290005280BD1052104EB440000EBB1
:10520000C40205F1380000EB820080F8281066E047
:1052100004EB440000EBC40105F1380000EB810011
:1052200090F8290006280BD004EB440000EBC401E1
:1052300005F1380000EB810090F8290008284ED1D4
:1052400004EB440000EBC40105F1380000EB8100E1
:10525000406A401C04EB440101EBC40205F1380133
:1052600001EB8201486204EB440000EBC40105F14C
:10527000380000EB8100406A022815D9002104EBB8
:10528000440000EBC40205F1380000EB82004162EB
:10529000042104EB440000EBC40205F1380000EBEC
:1052A000820080F828101AE0022104EB440000EB91
:1052B000C40205F1380000EB820080F8281006F5E2
:1052C000A06000EB4410D0F8008028F0804848F03F
:1052D000004806F5A06000EB4410C0F800800221F1
:1052E00006F5A06000EB4410816004EB440000EB85
:1052F000C40305F1380000EB830090F82820E1B2E8
:105300002846FEF75DF8BDE8F0877CB504462668C0
:105310003546D5F840040190D5F840040090009837
:1053200020F02E000090019800F0020002280AD11F
:10533000019800F0010010B12046FDF773FF0098BE
:1053400040F002000090019800F0080008282AD1DF
:10535000009840F008000090019800F00400042834
:105360001ED1A06902280FD1019800F4C020B0F529
:10537000802F04D10221206803F0F0F90CE0012114
:10538000206803F0EBF907E0E068012804D14EF64D
:10539000602140F2044041512046FEF7B6FA02E097
:1053A0002046FEF7ABFA019800F02000202803D138
:1053B000009840F0200000900098C5F840047CBDA3
:1053C0002DE9F84F0546D5F800B05F462868D0F8BB
:1053D000208008F00F04C8F343400090C8F30A1679
:1053E0000098022806D003287DD005287CD0072805
:1053F0007BD1A3E0002E79D004EB440000EBC40184
:1054000005F1380000EB8100C06800286ED004EB85
:10541000440000EBC40105F1380000EB8100806915
:10542000811904EB440000EBC40205F1380000EBE5
:1054300082004069814272D8B2B204EB440303EBAC
:10544000C40C05F1380303EB8C03D968286803F01A
:10545000ACF904EB440000EBC40105F1380000EBAB
:105460008100C068811904EB440000EBC40205F11F
:10547000380000EB8200C16004EB440000EBC40183
:1054800005F1380000EB81008069811904EB4400CC
:1054900000EBC40205F1380000EB8200816107F5E2
:1054A000A06000EB44100069C0F3C94A04EB44005B
:1054B00000EBC40105F1380000EB81000089B04227
:1054C00038D1BAF1000F35D007F5A06000EB4410D9
:1054D000D0F8009029F0804949F0004907F5A06014
:1054E00000EB441003E028E025E025E022E0C0F8CE
:1054F000009004EB440000EBC40105F1380000EB20
:105500008100007F80F0010104EB440000EBC40245
:1055100005F1380000EB820001770BE0FFE7042182
:1055200004EB440000EBC40205F1380000EB8200FC
:1055300080F8281003E002E000BF00BF00BF00BFFA
:10554000BDE8F88F024903A0FAF79EFF00BFFEE70F
:105550002AED00E00A206661756C742068616E6453
:105560006C657220202578001FB500200090019006
:10557000029003902E48FCF703FF2E482C49086048
:105580004FF4803048600021294881600121016189
:105590000021017680F82010C16227498162002134
:1055A000C1600521C161002180F8301001214161F5
:1055B000FCF70AFF08B1FCF796FC072000900120D9
:1055C00001900320029069461948FCF711FE08B1CA
:1055D000FCF789FC012000900220019069461448E4
:1055E000FCF706FE08B1FCF77EFC042000900320C7
:1055F000019069460E48FCF7FBFD08B1FCF773FC0F
:10560000052000900420019069460948FCF7F0FD50
:1056100008B1FCF768FC082000900520019069465D
:105620000348FCF7E5FD08B1FCF75DFC1FBD000079
:1056300078030020002001400100000F08B500BFE2
:10564000002000900A48006840F480000849086083
:105650000846006800F48000009000BF0022114658
:105660003820FEF757FA3820FEF744FA08BD00004C
:105670003038024010B503490348FCF737FC0349B2
:10568000087010BD410000209099010840000020E2
:1056900000B587B0142102A8FBF778F900BF0020FD
:1056A00001903748006840F004003549086008461A
:1056B000006800F00400019000BF00BF00200190CE
:1056C0000846006840F0800008600846006800F066
:1056D0008000019000BF00BF0020019008460068D4
:1056E00040F0010008600846006800F001000190E9
:1056F00000BF00BF002001900846006840F0020093
:1057000008600846006800F00200019000BFB22067
:1057100002904FF4441003900020049002A919480D
:10572000FDF796FC012002904FF4441003900020F6
:10573000049002A91448FDF78BFC002211460620B4
:10574000FEF7E8F90620FEF7D5F9002211460720FA
:10575000FEF7E0F90720FEF7CDF9002211460A20F6
:10576000FEF7D8F90A20FEF7C5F9002211461720E6
:10577000FEF7D0F91720FEF7BDF907B000BD000015
:1057800030380240000002400004024010B50122FF
:105790000A490B4800F0C5FD08B1FCF7A4FB094914
:1057A000074802F085FA08B1FCF79DFB044802F0B7
:1057B000E8FA08B1FCF797FB10BD0000AD02010844
:1057C000202500205000002010B5024802F00CF9FE
:1057D00010BD00002025002000BFFEE700BFFEE74F
:1057E00010B50248FDF73FFF10BD0000F82800206B
:1057F0007047704710B5FEF709F910BD03480068FF
:1058000040F47000014908607047000088ED00E036
:1058100010B50748006800F0010040B105480CF0E1
:1058200000FA0348006820F001000149086010BD3B
:1058300010480140C830002010B50748006800F04B
:10584000010038B103F0DEF80348006820F00100E1
:105850000149086010BD0000104401402DE9F84FD7
:1058600004462068006920F44050E168084321683C
:1058700008612169A068084361690843E169084338
:1058800000902068C06849F20C6188430099084381
:105890002168C8602068406920F44070A16908430D
:1058A0002168486176492068884203D0754920689C
:1058B000884203D1FEF758FA814602E0FEF744FA27
:1058C0008146E069B0F5004F6CD102206168A0FB11
:1058D000015003461920A9FB007001462A463846AC
:1058E000FAF75BFD6421B0FBF1F04FEA001A0220E9
:1058F0006168A0FB01510B461920A9FB00712A46E3
:105900003846FAF74AFD834602206168A0FB015041
:1059100003461920A9FB00712A463846FAF73DFDD7
:105920006421B0FBF1F000EBC00101EB0010ABEB28
:105930008000322101EBC0006421B0FBF1F000F0E7
:10594000F8000AEB400A02206168A0FB0150034600
:105950001920A9FB007001462A463846FAF71DFDBA
:10596000834602206168A0FB015003461920A9FB71
:1059700000712A463846FAF710FD6421B0FBF1F0B9
:1059800000EBC00101EB0010ABEB8000322101EB1A
:10599000C0006421B0FBF1F000F007005044216822
:1059A00088606AE004206168A0FB0150034619206A
:1059B000A9FB007001462A463846FAF7EEFC8246FB
:1059C00004206168A0FB015003461920A9FB007068
:1059D00001462A463846FAF7E0FC6421B0FBF1F0B4
:1059E00000EBC00101EB0010AAEB8000322101EBBB
:1059F00000106421B0FBF1F000F0F00A04206168AF
:105A0000A0FB017003461920A9FB00513A46284625
:105A1000FAF7C3FC6421B0FBF1F00AEB001A042092
:105A20006168A0FB01510B461920A9FB00712A46B1
:105A30003846FAF7B2FC834604206168A0FB0150A7
:105A400003461920A9FB007001462A463846FAF79A
:105A5000A4FC6421B0FBF1F000EBC00101EB0010ED
:105A6000ABEB8000322101EB00106421B0FBF1F0C0
:105A700000F00F00504421688860BDE8F88F0000F6
:105A800000100140001401402DE9F04104460D468C
:105A900017469846069E34E0701C88B32EB1FDF779
:105AA000BBFBA0EB0800B0422BD900BF00BF2168B0
:105AB0000C3151E8001F21F4D07021680C3141E80D
:105AC0000002002AF3D100BF00BF00BF21681431DB
:105AD00051E8001F21F001002168143141E8000263
