:020000040000FA
:1000000002EF64F03AEF00F0056ED8CF06F0E0CFD3
:1000100007F00001E9CF0DF0EACF08F0E1CF09F0D9
:10002000E2CF0AF0D9CF0BF0DACF0CF0F3CF14F017
:10003000F4CF15F0FACF16F000C00FF001C010F0A9
:1000400002C011F003C012F004C013F09DA02CEF09
:1000500000F09EB042EF12F0F2A832EF00F0F2B2E0
:10006000DDEF10F0F2A638EF00F0F2B0E0EF0FF0A5
:1000700002EF00F00FC000F010C001F011C002F05C
:1000800012C003F013C004F00E8E0DC0E9FF08C0CB
:10009000EAFF09C0E1FF0AC0E2FF0BC0D9FF0CC0B4
:1000A000DAFF14C0F3FF15C0F4FF16C0FAFF0550C5
:1000B00007C0E0FF06C0D8FF1000F2CF0EF0F29E9E
:1000C000F76AD40FF66E000EF7220900F5500EBE47
:1000D000F28E1200280C0106F2CF0EF0F29EF76AA3
:1000E000F20FF66E000EF7220900F5500EBEF28EEA
:1000F0001200202A2A2A20434944455045202A2A12
:100100002A200000F2CF0EF0F29EF76A1E0FF66E64
:10011000010EF7220900F5500EBEF28E12002045A6
:100120005132323845202076312E312020200000F7
:10013000F2CF0EF0F29EF76A4A0FF66E010EF7222A
:100140000900F5500EBEF28E1200204944494F4D71
:10015000412F4C414E47554147450000F2CF0EF02C
:10016000F29EF76A760FF66E010EF7220900F5503F
:100170000EBEF28E1200506F72742020456E672002
:100180002020457370200000F2CF0EF0F29EF76A37
:10019000A20FF66E010EF7220900F5500EBEF28E88
:1001A00012002A2A2043524F4E4F4D4554524F20A1
:1001B0002A2A0000F2CF0EF0F29EF76ACE0FF66EFA
:1001C000010EF7220900F5500EBEF28E1200204DEE
:1001D000554C544946554E43494F4E414C20000022
:1001E000F2CF0EF0F29EF76AFA0FF66E010EF722CA
:1001F0000900F5500EBEF28E12004553434F4C4895
:100200004120412046554E43414F0000F2CF0EF0B1
:10021000F29EF76A260FF66E020EF7220900F550DD
:100220000EBEF28E120066756E63616F2020202074
:1002300020616A7564610000F2CF0EF0F29EF76AE9
:10024000520FF66E020EF7220900F5500EBEF28E26
:100250001200463120203220612020352073656E47
:1002600073200000F2CF0EF0F29EF76A7E0FF66E5A
:10027000020EF7220900F5500EBEF28E1200202069
:10028000202020206F6B2020202020200000F2CF93
:100290000EF0F29EF76AA80FF66E020EF722090022
:1002A000F5500EBEF28E120046322020566D2020F0
:1002B000312073656E736F720000F2CF0EF0F29E04
:1002C000F76AD40FF66E020EF7220900F5500EBE43
:1002D000F28E12004633202031307061737320316A
:1002E00073656E730000F2CF0EF0F29EF76A000F96
:1002F000F66E030EF7220900F5500EBEF28E1200C4
:1003000046342050656E642F4D4853203173656E1E
:100310000000F2CF0EF0F29EF76A2C0FF66E030E7D
:10032000F7220900F5500EBEF28E1200463520204D
:10033000426F62206520312073656E730000F2CF3A
:100340000EF0F29EF76A580FF66E030EF7220900C0
:10035000F5500EBEF28E12004636204D4369726390
:10036000756C61723173656E0000F2CF0EF0F29E13
:10037000F76A840FF66E030EF7220900F5500EBEE1
:10038000F28E120046372043686F712D496E6C2043
:100390003273656E0000F2CF0EF0F29EF76AB00F76
:1003A000F66E030EF7220900F5500EBEF28E120013
:1003B00046382043686F712D456C73203273656E2B
:1003C0000000F2CF0EF0F29EF76ADC0FF66E030E1D
:1003D000F7220900F5500EBEF28E12004639205663
:1003E00020536F6D203273656E7341630000F2CF4E
:1003F0000EF0F29EF76A080FF66E040EF72209005F
:10040000F5500EBEF28E12004631302020742020AE
:100410006D616E75616C20200000F2CF0EF0F29ECF
:10042000F76A340FF66E040EF7220900F5500EBE7F
:10043000F28E1200494E53455249522044495354BA
:100440002E3F20200000F2CF0EF0F29EF76A600FE0
:10045000F66E040EF7220900F5500EBEF28E120061
:10046000206E616F202020202020202073696D20C5
:100470000000F2CF0EF0F29EF76A8C0FF66E040EBB
:10048000F7220900F5500EBEF28E12006420656E50
:100490007472652053302065205331200000F2CF64
:1004A0000EF0F29EF76AB80FF66E040EF7220900FE
:1004B000F5500EBEF28E12006D6D202020206F6B65
:1004C0000000F2CF0EF0F29EF76ADC0FF66E040E1B
:1004D000F7220900F5500EBEF28E1200206B672045
:1004E00020206F6B0000F2CF0EF0F29EF76A000F33
:1004F000F66E050EF7220900F5500EBEF28E1200C0
:100500006420656E7472652053302065205332205C
:100510000000F2CF0EF0F29EF76A2C0FF66E050E79
:10052000F7220900F5500EBEF28E12006420656EAF
:100530007472652053302065205333200000F2CFC1
:100540000EF0F29EF76A580FF66E050EF7220900BC
:10055000F5500EBEF28E12006420656E7472652036
:1005600053302065205334200000F2CF0EF0F29E6D
:10057000F76A840FF66E050EF7220900F5500EBEDD
:10058000F28E12004E6F2E2064652073656E736FBD
:100590007265733F0000F2CF0EF0F29EF76AB00F63
:1005A000F66E050EF7220900F5500EBEF28E12000F
:1005B0002032202020202020202020202020352014
:1005C0000000F2CF0EF0F29EF76ADC0FF66E050E19
:1005D000F7220900F5500EBEF28E1200494E534527
:1005E000524952204C4152475552413F0000F2CFF0
:1005F0000EF0F29EF76A080FF66E060EF72209005B
:10060000F5500EBEF28E12004C4152475552412019
:10061000444F204F424A2E200000F2CF0EF0F29EAF
:10062000F76A340FF66E060EF7220900F5500EBE7B
:10063000F28E12006420656E74726520533020655E
:10064000205331000000F2CF0EF0F29EF76A600FE7
:10065000F66E060EF7220900F5500EBEF28E12005D
:100660006420656E747265206D69632E20202020E1
:100670000000F2CF0EF0F29EF76A8C0FF66E060EB7
:10068000F7220900F5500EBEF28E1200496E746515
:100690007276616C6F733A20316131300000F2CFB5
:1006A0000EF0F29EF76AB80FF66E060EF7220900FA
:1006B000F5500EBEF28E120020202020206F6B20FD
:1006C00000000000000000000000F2CF0EF0F29EDB
:1006D000F76AE40FF66E060EF7220900F5500EBE1B
:1006E000F28E1200494E4943494520455850455223
:1006F000494D2E200000F2CF0EF0F29EF76A100F47
:10070000F66E070EF7220900F5500EBEF28E1200AB
:1007100020202020202020202063616E63656C61F2
:100720000000F2CF0EF0F29EF76A3C0FF66E070E55
:10073000F7220900F5500EBEF28E1200743D000043
:10074000F2CF0EF0F29EF76A5A0FF66E070EF722FE
:100750000900F5500EBEF28E12004558502E20466C
:10076000494E414C495A41444F200000F2CF0EF00F
:10077000F29EF76A860FF66E070EF7220900F55013
:100780000EBEF28E1200766572202072657065745E
:1007900069722020463F0000F2CF0EF0F29EF76A09
:1007A000B20FF66E070EF7220900F5500EBEF28E5C
:1007B00012002020524553554C5441444F28532990
:1007C00020200000F2CF0EF0F29EF76ADE0FF66EE8
:1007D000070EF7220900F5500EBEF28E12002074AB
:1007E0002020202076656C20202073616972000033
:1007F000F2CF0EF0F29EF76A0A0FF66E080EF7229D
:100800000900F5500EBEF28E120020742020202028
:10081000202020202020736169720000F2CF0EF0AA
:10082000F29EF76A360FF66E080EF7220900F550B1
:100830000EBEF28E120074302C313A00F2CF0EF060
:10084000F29EF76A560FF66E080EF7220900F55071
:100850000EBEF28E120074302C323A00F2CF0EF03F
:10086000F29EF76A760FF66E080EF7220900F55031
:100870000EBEF28E120074302C333A00F2CF0EF01E
:10088000F29EF76A960FF66E080EF7220900F550F1
:100890000EBEF28E120074302C343A00F2CF0EF0FD
:1008A000F29EF76AB60FF66E080EF7220900F550B1
:1008B0000EBEF28E120074312C323A00F2CF0EF0DE
:1008C000F29EF76AD60FF66E080EF7220900F55071
:1008D0000EBEF28E120074322C333A00F2CF0EF0BC
:1008E000F29EF76AF60FF66E080EF7220900F55031
:1008F0000EBEF28E120074332C343A00F2CF0EF09A
:10090000F29EF76A160FF66E090EF7220900F550EF
:100910000EBEF28E1200566D302C313A0000F2CF2E
:100920000EF0F29EF76A380FF66E090EF7220900F4
:10093000F5500EBEF28E1200566D302C323A000089
:10094000F2CF0EF0F29EF76A5A0FF66E090EF722FA
:100950000900F5500EBEF28E1200566D302C333A5F
:100960000000F2CF0EF0F29EF76A7C0FF66E090ED1
:10097000F7220900F5500EBEF28E1200566D302C93
:10098000343A0000F2CF0EF0F29EF76A9E0FF66E38
:10099000090EF7220900F5500EBEF28E1200566DB8
:1009A000312C323A0000F2CF0EF0F29EF76AC00FFF
:1009B000F66E090EF7220900F5500EBEF28E1200F7
:1009C000566D322C333A0000F2CF0EF0F29EF76AE9
:1009D000E20FF66E090EF7220900F5500EBEF28EF8
:1009E0001200566D332C343A0000F2CF0EF0F29E16
:1009F000F76A040FF66E0A0EF7220900F5500EBED4
:100A0000F28E12006573636F6C68612061206675F9
:100A10006E63616F0000F2CF0EF0F29EF76A300F46
:100A2000F66E0A0EF7220900F5500EBEF28E120085
:100A300065207072657373696F6E65206F6B2E2E03
:100A40000000F2CF0EF0F29EF76A5C0FF66E0A0E0F
:100A5000F7220900F5500EBEF28E12006578697318
:100A600074656D203132207469706F730000F2CFAD
:100A70000EF0F29EF76A880FF66E0A0EF722090052
:100A8000F5500EBEF28E1200202064652066756E51
:100A9000636F65732E2020200000F2CF0EF0F29ECF
:100AA000F76AB40FF66E0A0EF7220900F5500EBE73
:100AB000F28E1200566D3D00F2CF0EF0F29EF76AF4
:100AC000D20FF66E0A0EF7220900F5500EBEF28E16
:100AD000120020742020206672657120202073612E
:100AE00069720000F2CF0EF0F29EF76AFE0FF66E0A
:100AF0000A0EF7220900F5500EBEF28E1200612098
:100B00003D00F2CF0EF0F29EF76A1C0FF66E0B0E50
:100B1000F7220900F5500EBEF28E120056663D0017
:100B2000F2CF0EF0F29EF76A3A0FF66E0B0EF72236
:100B30000900F5500EBEF28E1200743A5330202098
:100B4000743A53312020736169720000F2CF0EF0C5
:100B5000F29EF76A660FF66E0B0EF7220900F5504B
:100B60000EBEF28E1200463131207465737465201A
:100B700073656E736F720000F2CF0EF0F29EF76A2B
:100B8000920FF66E0B0EF7220900F5500EBEF28E94
:100B900012002020202020202020202020207361EF
:100BA00069720000F2CF0EF0F29EF76ABE0FF66E89
:100BB0000B0EF7220900F5500EBEF28E12004631E0
:100BC0003220204563205472616E736C2E20000029
:100BD000F2CF0EF0F29EF76AEA0FF66E0B0EF722D6
:100BE0000900F5500EBEF28E1200434F4D5052498F
:100BF0004D2E20444F204F424A2E0000F2CF0EF0DF
:100C0000F29EF76A160FF66E0C0EF7220900F550E9
:100C10000EBEF28E1200204D4153534120444F200E
:100C20004F424A2E20200000F2CF0EF0F29EF76ACB
:100C3000420FF66E0C0EF7220900F5500EBEF28E32
:100C4000120045633D00F2CF0EF0F29EF76A600F8E
:100C5000F66E0C0EF7220900F5500EBEF28E120051
:100C60004D554C544946554E4354494F4E414C20E6
:100C70000000F2CF0EF0F29EF76A8C0FF66E0C0EAB
:100C8000F7220900F5500EBEF28E1200202020201F
:100C900054494D4552202020202020200000F2CF32
:100CA0000EF0F29EF76AB80FF66E0C0EF7220900EE
:100CB000F5500EBEF28E12002053454C4543542091
:100CC00046554E4354494F4E0000F2CF0EF0F29E6F
:100CD000F76AE40FF66E0C0EF7220900F5500EBE0F
:100CE000F28E120046756E6374696F6E20202020AC
:100CF00068656C700000F2CF0EF0F29EF76A100F7C
:100D0000F66E0D0EF7220900F5500EBEF28E12009F
:100D100046312020203220746F20352073656E7399
:100D20000000F2CF0EF0F29EF76A3C0FF66E0D0E49
:100D3000F7220900F5500EBEF28E12004634205004
:100D4000656E642F53484D203173656E0000F2CFFD
:100D50000EF0F29EF76A680FF66E0D0EF72209008C
:100D6000F5500EBEF28E12004635202020436F69EA
:100D70006C20312073656E730000F2CF0EF0F29E8E
:100D8000F76A940FF66E0D0EF7220900F5500EBEAD
:100D9000F28E1200463620432E4D6F74696F6E201E
:100DA0003173656E0000F2CF0EF0F29EF76AC00F4D
:100DB000F66E0D0EF7220900F5500EBEF28E1200EF
:100DC000463720496E652D636F6C6C6973696F6E71
:100DD0000000F2CF0EF0F29EF76AEC0FF66E0D0EE9
:100DE000F7220900F5500EBEF28E1200463820455B
:100DF0006C732D636F6C6C6973696F6E0000F2CF5A
:100E00000EF0F29EF76A180FF66E0E0EF72209002A
:100E1000F5500EBEF28E1200463920535620324154
:100E2000636F757353656E730000F2CF0EF0F29E20
:100E3000F76A440FF66E0E0EF7220900F5500EBE4B
:100E4000F28E1200494E53455254204449535441A6
:100E50004E43453F0000F2CF0EF0F29EF76A700F4E
:100E6000F66E0E0EF7220900F5500EBEF28E12003D
:100E7000206E6F20202020202020202079657320E4
:100E80000000F2CF0EF0F29EF76A9C0FF66E0E0E87
:100E9000F7220900F5500EBEF28E12006420206287
:100EA00065747765656E2053302D53310000F2CFA5
:100EB0000EF0F29EF76AC80FF66E0E0EF7220900CA
:100EC000F5500EBEF28E12006420206265747765C4
:100ED000656E2053302D53320000F2CF0EF0F29E9B
:100EE000F76AF40FF66E0E0EF7220900F5500EBEEB
:100EF000F28E12006420206265747765656E20535F
:100F0000302D53330000F2CF0EF0F29EF76A200F1F
:100F1000F66E0F0EF7220900F5500EBEF28E12008B
:100F20006420206265747765656E2053302D5334DC
:100F30000000F2CF0EF0F29EF76A4C0FF66E0F0E25
:100F4000F7220900F5500EBEF28E12004E6F2E20D1
:100F500053454E534F5253203F2020200000F2CFE4
:100F60000EF0F29EF76A780FF66E0F0EF722090068
:100F7000F5500EBEF28E1200494E53455254205782
:100F800049445448203F20200000F2CF0EF0F29E4A
:100F9000F76AA40FF66E0F0EF7220900F5500EBE89
:100FA000F28E12004F424A45435420574944544858
:100FB000202020200000F2CF0EF0F29EF76AD00F22
:100FC000F66E0F0EF7220900F5500EBEF28E1200DB
:100FD00064206265747765656E434F494C2D5330CC
:100FE0000000F2CF0EF0F29EF76AFC0FF66E0F0EC5
:100FF000F7220900F5500EBEF28E120064206265E1
:10100000747765656E206D69632020200000F2CF43
:101010000EF0F29EF76A280FF66E100EF722090006
:10102000F5500EBEF28E1200496E74657276616CD8
:10103000733A2031746F31300000F2CF0EF0F29E1F
:10104000F76A540FF66E100EF7220900F5500EBE27
:10105000F28E120053544152542045585045524983
:101060004D454E540000F2CF0EF0F29EF76A800F0D
:10107000F66E100EF7220900F5500EBEF28E120029
:101080002020202020202020202063616E63656CBA
:101090000000F2CF0EF0F29EF76AAC0FF66E100E63
:1010A000F7220900F5500EBEF28E12004558502E60
:1010B0002046494E49534845442020200000F2CFA5
:1010C0000EF0F29EF76AD80FF66E100EF7220900A6
:1010D000F5500EBEF28E12007365652020726570A9
:1010E000656174202020463F0000F2CF0EF0F29E92
:1010F000F76A040FF66E110EF7220900F5500EBEC6
:10110000F28E1200202020524553554C542853296A
:10111000202020200000F2CF0EF0F29EF76A300F60
:10112000F66E110EF7220900F5500EBEF28E120077
:1011300020742020202076656C2020207175697431
:101140000000F2CF0EF0F29EF76A5C0FF66E110E01
:10115000F7220900F5500EBEF28E120020742020F6
:101160002020202020202020717569740000F2CFFB
:101170000EF0F29EF76A880FF66E110EF722090044
:10118000F5500EBEF28E120043686F6F73652066D5
:10119000756E6374696F6E200000F2CF0EF0F29EE0
:1011A000F76AB40FF66E110EF7220900F5500EBE65
:1011B000F28E1200616E64207072657373206F6B23
:1011C0002E2E20200000F2CF0EF0F29EF76AE00FE4
:1011D000F66E110EF7220900F5500EBEF28E1200C7
:1011E000746865726520617265203132202020208C
:1011F0000000F2CF0EF0F29EF76A0C0FF66E120EA0
:10120000F7220900F5500EBEF28E12006469666680
:101210006572656E742074797065732E0000F2CF6C
:101220000EF0F29EF76A380FF66E120EF7220900E2
:10123000F5500EBEF28E12002074202020667265DA
:1012400071202020717569740000F2CF0EF0F29EBB
:10125000F76A640FF66E120EF7220900F5500EBE03
:10126000F28E1200743A53302020743A5331202009
:10127000717569740000F2CF0EF0F29EF76A900F5C
:10128000F66E120EF7220900F5500EBEF28E120015
:101290004631312073656E736F72207465737420EC
:1012A0000000F2CF0EF0F29EF76ABC0FF66E120E3F
:1012B000F7220900F5500EBEF28E120020202020E9
:1012C0002020202020202020717569740000F2CF9A
:1012D0000EF0F29EF76AE80FF66E120EF722090082
:1012E000F5500EBEF28E1200204F424A4543542064
:1012F000204C454E475448200000F2CF0EF0F29E9D
:10130000F76A140FF66E130EF7220900F5500EBEA1
:10131000F28E120020204F424A45435420204D4176
:10132000535320200000F2CF0EF0F29EF76A400FD8
:10133000F66E130EF7220900F5500EBEF28E120063
:10134000204D554C544946554E4354494F4E414CFF
:101350000000F2CF0EF0F29EF76A6C0FF66E130EDD
:10136000F7220900F5500EBEF28E12004553434F8E
:101370004A4120202046554E43494F4E0000F2CFAF
:101380000EF0F29EF76A980FF66E130EF722090020
:10139000F5500EBEF28E120046756E63696F6E20B8
:1013A00020202061797564610000F2CF0EF0F29E7A
:1013B000F76AC40FF66E130EF7220900F5500EBE41
:1013C000F28E12004631202020203220612035206C
:1013D00073656E730000F2CF0EF0F29EF76AF00FA5
:1013E000F66E130EF7220900F5500EBEF28E1200B3
:1013F0004633202031307061736F203173656E7316
:101400000000F2CF0EF0F29EF76A1C0FF66E140E7B
:10141000F7220900F5500EBEF28E1200463520204C
:10142000426F62207920312073656E730000F2CF25
:101430000EF0F29EF76A480FF66E140EF7220900BE
:10144000F5500EBEF28E120046372043686F712DA4
:10145000496E65203273656E0000F2CF0EF0F29E89
:10146000F76A740FF66E140EF7220900F5500EBEDF
:10147000F28E12004639205653203273656E734146
:10148000636F75730000F2CF0EF0F29EF76AA00F43
:10149000F66E140EF7220900F5500EBEF28E120001
:1014A000494E53455254415220444953542E203FF3
:1014B0000000F2CF0EF0F29EF76ACC0FF66E140E1B
:1014C000F7220900F5500EBEF28E1200206E6F203A
:1014D0002020202020202020207369200000F2CF2F
:1014E0000EF0F29EF76AF80FF66E140EF72209005E
:1014F000F5500EBEF28E1200642020656E74726587
:1015000020533020792053310000F2CF0EF0F29EAC
:10151000F76A240FF66E150EF7220900F5500EBE7D
:10152000F28E1200642020656E74726520533020A4
:10153000792053320000F2CF0EF0F29EF76A500F7E
:10154000F66E150EF7220900F5500EBEF28E12004F
:10155000642020656E7472652053302079205333E7
:101560000000F2CF0EF0F29EF76A7C0FF66E150EB9
:10157000F7220900F5500EBEF28E1200642020659D
:101580006E74726520533020792053340000F2CFFE
:101590000EF0F29EF76AA80FF66E150EF7220900FC
:1015A000F5500EBEF28E1200494E53455254415230
:1015B00020414E43485552410000F2CF0EF0F29EBA
:1015C000F76AD40FF66E150EF7220900F5500EBE1D
:1015D000F28E1200414E43485552412044454C2062
:1015E0004F424A2E0000F2CF0EF0F29EF76A000F33
:1015F000F66E160EF7220900F5500EBEF28E12009E
:101600006420656E74726520626F622079205330A9
:101610000000F2CF0EF0F29EF76A2C0FF66E160E57
:10162000F7220900F5500EBEF28E12006420656E9E
:10163000747265206D696320202020200000F2CFA5
:101640000EF0F29EF76A580FF66E160EF72209009A
:10165000F5500EBEF28E1200494E494349415220C8
:101660004558504552494D2E0000F2CF0EF0F29EE3
:10167000F76A840FF66E160EF7220900F5500EBEBB
:10168000F28E120020524553554C5441444F28537A
:10169000292020200000F2CF0EF0F29EF76AB00F52
:1016A000F66E160EF7220900F5500EBEF28E1200ED
:1016B00020742020202076656C202073616C697274
:1016C0000000F2CF0EF0F29EF76ADC0FF66E160EF7
:1016D000F7220900F5500EBEF28E12002074202071
:1016E0002020202020202073616C69720000F2CF3E
:1016F0000EF0F29EF76A080FF66E170EF722090039
:10170000F5500EBEF28E12004573636F6A612020A1
:101710002066756E63696F6E0000F2CF0EF0F29E68
:10172000F76A340FF66E170EF7220900F5500EBE59
:10173000F28E1200792070726573696F6E65206F8A
:101740006B2E2E200000F2CF0EF0F29EF76A600F93
:10175000F66E170EF7220900F5500EBEF28E12003B
:101760006578697374656E203132207469706F73A7
:101770000000F2CF0EF0F29EF76A8C0FF66E170E95
:10178000F7220900F5500EBEF28E12006465206645
:10179000756E63696F6E65732E2020200000F2CF96
:1017A0000EF0F29EF76AB80FF66E170EF7220900D8
:1017B000F5500EBEF28E1200207420202066726555
:1017C00071202073616C69720000F2CF0EF0F29EFE
:1017D000F76AE40FF66E170EF7220900F5500EBEF9
:1017E000F28E1200743A53302020743A5331207331
:1017F000616C69720000F2CF0EF0F29EF76A100F72
:10180000F66E180EF7220900F5500EBEF28E120089
:1018100046313120207072756562612073656E7388
:101820000000F2CF0EF0F29EF76A3C0FF66E180E33
:10183000F7220900F5500EBEF28E12002020202063
:101840002020202020202073616C69720000F2CFDC
:101850000EF0F29EF76A680FF66E180EF722090076
:10186000F5500EBEF28E1200204C4152474F2044DC
:10187000454C204F424A2E200000F2CF0EF0F29E3F
:10188000F76A940FF66E180EF7220900F5500EBE97
:10189000F28E1200204D415341202044454C204FF0
:1018A000424A2E200000F2CF0EF0F29EF76AC00FDF
:1018B000F66E180EF7220900F5500EBEF28E1200D9
:1018C00020202000F2CF0EF0F29EF76ADE0FF66EB7
:1018D000180EF7220900F5500EBEF28E12002020DD
:1018E000202020200000F2CF0EF0F29EF76A000FB9
:1018F000F66E190EF7220900F5500EBEF28E120098
:101900002000F2CF0EF0F29EF76A1C0FF66E190E51
:10191000F7220900F5500EBEF28E120020200000C2
:10192000F2CF0EF0F29EF76A3A0FF66E190EF7221A
:101930000900F5500EBEF28E120020533000F2CF97
:101940000EF0F29EF76A580FF66E190EF722090094
:10195000F5500EBEF28E12002053313E0000F2CF41
:101960000EF0F29EF76A780FF66E190EF722090054
:10197000F5500EBEF28E120053303E00F2CF0EF044
:10198000F29EF76A960FF66E190EF7220900F550CF
:101990000EBEF28E120053303C00F2CF0EF0F29EDB
:1019A000F76AB40FF66E190EF7220900F5500EBE55
:1019B000F28E120053313E00F2CF0EF0F29ED00FA5
:1019C000F66E190EF7220900F5500EBEF28E1200C7
:1019D00001000000F0000000F4031100020001000B
:1019E000010015000300020002001F0004000300B4
:1019F0000300290005000400040033000600050070
:101A000005003D000700060006004700080007002B
:101A1000070051000900080008005C000A000900E6
:101A20000900630084030A0064000B000C000B0033
:101A30000B000C000D000C000C000D000E000D0042
:101A40000D000E000F000E000E000F0064000F00CE
:101A5000640015001600150015001600640016003D
:101A60006400330034003300330034006400340079
:101A700064006400000064009600AA006A006E0022
:101A80009C006E009700960096006E0098009700EC
:101A900097006E009900980098006E009A009900D7
:101AA00099006E009B009A009A006E009C009B00BB
:101AB0009B006E0096009C00B0006E00AB00AA0078
:101AC000AA006E00AC00AB00AB006E00AD00AC0035
:101AD000AC006E00AE00AD00AD006E00AF00AE0019
:101AE000AE006E00B000AF00AF006E00AA00B00004
:101AF00064005B005C005B0009005C0064005C004B
:101B0000120011001300110095006E009500950061
:101B1000A9006E00A900A9002602F9010100F80140
:101B2000C201D6016A009A0129026A002702260230
:101B300026026A002802270227026A0029022802D8
:101B400028026A0026022902E5046A00FB00FA0066
:101B5000FA006A00E504FB00EE0202036A00C60216
:101B6000B7036A00B703B603B6036A00B603B70348
:101B700096006F006A006F00FC006A00FC00FC0029
:101B800025026A00250225026300630064006300E9
:101B90000A008603F4038403860386030000860399
:101BA0008403FD030100F403F403FD03FE03FD03BE
:101BB000FD03FE036400FE03FB006A00FA00E50477
:101BC000F2CF0EF0F29EF76ADA0FF66E1B0EF722D6
:101BD0000900F5500EBEF28E1200533A3000F2CFDB
:101BE0000EF0F29EF76AF80FF66E1B0EF722090050
:101BF000F5500EBEF28E12006F200000F2CF0EF0F4
:101C0000F29EF76A160FF66E1C0EF7220900F550C9
:101C10000EBEF28E120078200000F2CF0EF0F29E7F
:101C2000F76A340FF66E1C0EF7220900F5500EBE4F
:101C3000F28E12003100F2CF0EF0F29EF76A500FD2
:101C4000F66E1C0EF7220900F5500EBEF28E120041
:101C50003200F2CF0EF0F29EF76A6C0FF66E1C0E99
:101C6000F7220900F5500EBEF28E12003300F2CFBB
:101C70000EF0F29EF76A880FF66E1C0EF72209002E
:101C8000F5500EBEF28E12003400F2CF0EF0F29E2E
:101C9000F76AA40FF66E1C0EF7220900F5500EBE6F
:101CA000F28E12006F00F2CF0EF0F29EF76AC00FB4
:101CB000F66E1C0EF7220900F5500EBEF28E1200D1
:101CC0007800F2CF0EF0F29EF76ADC0FF66E1C0E73
:101CD000F7220900F5500EBEF28E120053303E532B
:101CE0003100F2CF0EF0F29EF76AFC0FF66E1C0E7A
:101CF000F7220900F5500EBEF28E120053303E530B
:101D00003200F2CF0EF0F29EF76A1C0FF66E1D0E37
:101D1000F7220900F5500EBEF28E120053303E53EA
:101D20003300F2CF0EF0F29EF76A3C0FF66E1D0EF6
:101D3000F7220900F5500EBEF28E120053303E53CA
:101D40003400F2CF0EF0F29EF76A5C0FF66E1D0EB5
:101D5000F7220900F5500EBEF28E12007061737307
:101D60000000F2CF0EF0F29EF76A7C0FF66E1D0EA9
:101D7000F7220900F5500EBEF28E1200496E743A39
:101D80000000F2CF0EF0F29EF76A9C0FF66E1D0E69
:101D9000F7220900F5500EBEF28E12003E00F2CF7F
:101DA0000EF0F29EF76AB80FF66E1D0EF7220900CC
:101DB000F5500EBEF28E12003C00F2CF0EF0F29EF5
:101DC000F76AD40FF66E1D0EF7220900F5500EBE0D
:101DD000F28E12007400F2CF0EF0F29EF76AF00F4E
:101DE000F66E1D0EF7220900F5500EBEF28E12009F
:101DF00031300000F2CF0EF0F29EF76A0E0FF66E51
:101E00001E0EF7220900F5500EBEF28E1200302C85
:101E10000000F2CF0EF0F29EF76A2C0FF66E1E0E47
:101E2000F7220900F5500EBEF28E12003D00F2CFEF
:101E30000EF0F29EF76A480FF66E1E0EF7220900AA
:101E4000F5500EBEF28E120020730000F2CF0EF09D
:101E5000F29EF76A660FF66E1E0EF7220900F55025
:101E60000EBEF28E12006600F2CF0EF0F29EF76AFE
:101E7000820FF66E1E0EF7220900F5500EBEF28E8E
:101E8000120020487A00F2CF0EF0F29EF76AA00FFF
:101E9000F66E1E0EF7220900F5500EBEF28E1200ED
:101EA000207320200000F2CF0EF0F29EF76AC00FE0
:101EB000F66E1E0EF7220900F5500EBEF28E1200CD
:101EC00020732000F2CF0EF0F29EF76ADE0FF66E5E
:101ED0001E0EF7220900F5500EBEF28E12006D2F75
:101EE0007300F2CF0EF0F29EF76AFC0FF66E1E0E34
:101EF000F7220900F5500EBEF28E1200207320204A
:101F00002000F2CF0EF0F29EF76A1C0FF66E1F0E45
:101F1000F7220900F5500EBEF28E1200206D2F73CD
:101F20000000F2CF0EF0F29EF76A3C0FF66E1F0E25
:101F3000F7220900F5500EBEF28E1200206D2F73AD
:101F400020200000F2CF0EF0F29EF76A5E0FF66ED0
:101F50001F0EF7220900F5500EBEF28E1200206D02
:101F60002F733200F2CF0EF0F29EF76A7E0FF66EFC
:101F70001F0EF7220900F5500EBEF28E1200206DE2
:101F80002F732000F2CF0EF0F29EF76A9E0FF66ECE
:101F90001F0EF7220900F5500EBEF28E12007300DC
:101FA000F2CF0EF0F29EF76ABA0FF66E1F0EF7220E
:101FB0000900F5500EBEF28E120020204A202000AB
:101FC00081CF58F01950090817E1392C14D0585016
:101FD0003D1411E0396A48C05CF047C05BF046C070
:101FE0005AF045C059F044C088F043C087F042C061
:101FF00086F041C085F0A1D0192C5CD058503D141A
:1020000014E0010E396E48C05CF047C05BF046C07A
:102010005AF045C059F044C088F043C087F042C030
:1020200086F041C085F03D6A44D058503E1414E01B
:10203000020E396E48C060F047C05FF046C05EF0E7
:1020400045C05DF044C08CF043C08BF042C08AF0C4
:1020500041C089F03E6A2DD058503F1414E0030E61
:10206000396E48C064F047C063F046C062F045C0B6
:1020700061F044C090F043C08FF042C08EF041C088
:102080008DF03F6A16D05850401413E0040E396E9C
:1020900048C068F047C067F046C066F045C065F0CC
:1020A00044C094F043C093F042C092F041C091F01C
:1020B000406A43D01950070802E0000E01D0010E1B
:1020C0000101CE6F1950080802E0000E01D0010E88
:1020D000CE1132E02650BF082FE1275002082CE134
:1020E00058503D1429E02A50040DF350036AB10FF3
:1020F000E96E000E0320EA6E45C0EFFF46C0ECFF1C
:1021000047C0ECFF48C0ECFF2A50040DF350036AAF
:10211000DD0FE96E000E0320EA6E41C0EFFF42C002
:10212000ECFF43C0ECFF44C0ECFF2A2A2A500A0807
:1021300003E1F296010E546E0001F290F2903AEF34
:1021400000F0850ECD6EFF0ECF6E040ECE6E9D801C
:10215000486A476A466A456A446A436A426A416A0B
:10216000010E3C6E100E3D6E400E3E6E800E3F6EB8
:10217000200E406EF292000C206A1F6A1E6A1D6AD1
:102180001C6A1A6A1B6A000CFF0E936EF296F29894
:10219000000C48C04CF047C04BF046C04AF045C068
:1021A00049F044C050F043C04FF042C04EF041C02F
:1021B0004DF09D90CD6AE8DF000C81CFCEF1265026
:1021C000640821E127521FE11950090808E1B9DF2D
:1021D000D3DF010E396E276A650E266E14D0B1DF8B
:1021E000396ACADF1950030806E1486A476A020ED5
:1021F000466EBC0E456E276A650E266E296A2A6AEF
:102200003B6A536A546A195002081CE1F19CF2922D
:102210002650CA0817E1275215E1BBDF48C05CF021
:1022200047C05BF046C05AF045C059F044C088F042
:1022300043C087F042C086F041C085F0276A6A0E2D
:10224000266EF19C19500C081CE1F19CF29226506C
:10225000CA0817E1275215E19CDF48C05CF047C06F
:102260005BF046C05AF045C059F044C088F043C006
:1022700087F042C086F041C085F0276A6A0E266E5C
:10228000F19C26502E0838E1272C36D02950040D19
:10229000F350036A590FE96E000E0320EA6E45C041
:1022A000EFFF46C0ECFF47C0ECFF48C0ECFF2950F1
:1022B000040DF350036A850FE96E000E0320EA6EE9
:1022C00041C0EFFF42C0ECFF43C0ECFF44C0ECFF55
:1022D000292A1950060808E1486A476A466A456A89
:1022E000446A436A426A416A2B50295C05E14CDF2B
:1022F00050DF276A6A0E266E265092083BE1272C93
:1023000039D03B2C35D02950040DF350036A590FB6
:10231000E96E000E0320EA6E45C0EFFF46C0ECFFF9
:1023200047C0ECFF48C0ECFF2950040DF350036A8E
:10233000850FE96E000E0320EA6E41C0EFFF42C038
:10234000ECFF43C0ECFF44C0ECFF292A486A476A0F
:10235000466A456A446A436A426A416A29500A08E1
:1023600005E112DF16DF276A6A0E266E3B6A02D08D
:10237000010E3B6E2650F70818E1272C16D048C0F6
:102380005CF047C05BF046C05AF045C059F044C00D
:1023900088F043C087F042C086F041C085F0F9DE86
:1023A000010E276EF80E266EC2902650BE0835E14B
:1023B0002750020832E12950040DF350036A590FE7
:1023C000E96E000E0320EA6E45C0EFFF46C0ECFF49
:1023D00047C0ECFF48C0ECFF2950040DF350036ADE
:1023E000850FE96E000E0320EA6E41C0EFFF42C088
:1023F000ECFF43C0ECFF44C0ECFF292A29500A0837
:102400000CE12A6A296A020E276EBF0E266E195049
:10241000070803E1F298010E536E2650BF082FE122
:10242000275002082CE11950080829E12950040D11
:10243000F350036A090FE96E010E0320EA6E45C0EE
:10244000EFFF46C0ECFF47C0ECFF48C0ECFF29504F
:10245000040DF350036A350FE96E010E0320EA6E96
:1024600041C0EFFF42C0ECFF43C0ECFF44C0ECFFB3
:10247000292A29500A0803E1F298010E536EF292BC
:102480003AEF00F0FF0ECF6E040ECE6E45501008EE
:1024900011E1465027080EE147520CE148520AE18B
:1024A000486A476A466A456A010E4126000E422282
:1024B00043224422050E4526000E4622472248228A
:1024C000050E1A261A500A081FE11A6A1B2A1B5009
:1024D0000A081AE11B6A1C2A1C500A0815E11C6A2A
:1024E0001D2A1D500A0810E11D6A1E2A1E500A08E6
:1024F0000BE11E6A1F2A1F500A0806E11F6A202AE4
:1025000020500A0801E1206A9E903AEF00F0000096
:102510000000000C0101C539F00B006E0F0E831492
:102520000010836E0001F3DF8380F1DF8390000CE5
:10253000F00E956E8384EBDF8380E9DF83380F0B29
:102540000101C56F83900001E2DF8380E0DF833803
:102550000F0B0101C46F8390000E956EC539006E9C
:10256000F00E00160050C411016E0001000C8392A1
:10257000DFDF01C0C4F1010101AE02D00001F8D7D4
:10258000C2A18392C2B183820001C1DF8394BFDF05
:1025900083900101C339C46F0F0EC417C4C1C5F1C4
:1025A0000001B8DF0101C3510F0BC46FC56F0001FB
:1025B000B1DF000C000E956E8392839483901D0E04
:1025C000006E002EFED700D0010E01017E6F7E51FD
:1025D00003080CE3030EC56F00019CDF1D0E006EA7
:1025E000002EFED700D001017E2BF1D7020EC56F61
:1025F000000190DF01017E6B7E51030813E3036A43
:102600007E51F2CF7FF1F29E00015DEC00F00101FE
:102610007FBFF28E806FC26BC36F0001A8DF010124
:102620007E2BEAD700014CEF64F00101932D01D01D
:1026300003D0400E946F01D0946B010E925D9427ED
:1026400094518009956FC26BC36F000190DF000C3D
:10265000010E0101926F936F0001E7DF000C010E84
:102660000101C26FC1C1C3F1000181DF000C010E85
:102670000101926F020E936F0001D7DF000CE8DFBB
:1026800001017E6B7E5100016CEC00F0000908E056
:1026900001017E2BC16F0001E2DF0101F3D70001D0
:1026A000E6DF01017E6B7E51000182EC00F0000943
:1026B00007E001017E2BC16F0001D1DF0101F3D7DB
:1026C000000154EF64F0010EEA6E830EE96EEF50E4
:1026D0000EE0070E016E006A002EFED7012EFBD71A
:1026E000C70E006E002EFED70000EF2EF2D7000CB2
:1026F000AFDF0101826B8251000198EC00F000090C
:1027000008E00101822BC16F0001A9DF0101F3D7AD
:102710000001ADDF0101826B82510001AEEC00F0DF
:10272000000907E00101822BC16F000198DF010160
:10273000F3D70001000CF00E946E00D000D000D052
:10274000010E826E00D000D000D082CF7FF1FF0E4C
:10275000946E01017F51110803E1310E016E86D0A4
:102760007F51210803E1340E016E80D07F51410872
:1027700003E1370E016E7AD07F51810803E12A0E02
:10278000016E74D0F00E946E00D000D000D0020E16
:10279000826E00D000D000D082CF7FF1FF0E946E09
:1027A0007F51120803E1320E016E60D07F51220882
:1027B00003E1350E016E5AD07F51420803E1380E15
:1027C000016E54D07F51820803E1300E016E4ED06D
:1027D000F00E946E00D000D000D0040E826E00D0B7
:1027E00000D000D082CF7FF1FF0E946E7F5114088D
:1027F00003E1330E016E3AD07F51240803E1360E17
:10280000016E34D07F51440803E1390E016E2ED0A1
:102810007F51840803E1230E016E28D0F00E946EE0
:1028200000D000D000D0080E826E00D000D000D0C2
:1028300082CF7FF1FF0E946E7F51180803E1410EA5
:10284000016E14D07F51280803E1420E016E0ED0B4
:102850007F51480803E1430E016E08D07F5188087C
:1028600003E1440E016E02D0260E016E00013AEF24
:1028700014F061D701C07EF101017E51260815E0F8
:102880007E51245C0EE1252C07D0010E236E900EA4
:10289000226E256A260E286E2250D8B42306220600
:1028A00003D0236A190E226E03D0236A190E226EFA
:1028B000225206E1235204E17EC128F0010E256E6A
:1028C0007EC124F00001000C01017E51310A00019B
:1028D00005E0030A0AE0010A0FE015D0010E216E9F
:1028E000000E016E026E14D013D0020E216E000E87
:1028F000016E026E0DD00CD0030E216E000E016E23
:10290000026E06D005D0010E016E000E026E00D0E0
:102910006AEF64F0212C23D09BDE01017E6B7E5197
:102920000001C4EC00F0000908E001017E2BC16F3A
:10293000000195DE0101F3D7000199DE01017E6BF4
:102940007E510001DAEC00F0000908E001017E2B65
:10295000C16F000184DE0101F3D700014AD021508C
:10296000020823E175DE01017E6B7E51000123EC3C
:1029700006F0000908E001017E2BC16F00016FDE47
:102980000101F3D7000173DE01017E6B7E5100016E
:1029900039EC06F0000908E001017E2BC16F00014F
:1029A0005EDE0101F3D7000124D02150030821E1AC
:1029B0004FDE01017E6B7E510001C4EC00F0000986
:1029C00008E001017E2BC16F000149DE0101F3D750
:1029D00000014DDE01017E6B7E51000193EC09F098
:1029E000000907E001017E2BC16F000138DE010103
:1029F000F3D7000175EF64F0212C23D029DE01010B
:102A0000826B82510001F0EC00F0000908E0010146
:102A1000822BC16F000123DE0101F3D7000127DE05
:102A20000101826B8251000106EC01F0000908E00F
:102A30000101822BC16F000112DE0101F3D70001F9
:102A40004AD02150020823E103DE0101826B82514A
:102A500000014FEC06F0000908E00101822BC16F74
:102A60000001FDDD0101F3D7000101DE0101826BF0
:102A70008251000165EC06F0000908E00101822B9B
:102A8000C16F0001ECDD0101F3D7000124D021501A
:102A9000030821E1DDDD0101826B82510001A9EC17
:102AA00009F0000908E00101822BC16F0001D7DDA8
:102AB0000101F3D70001DBDD0101826B82510001CE
:102AC000BFEC09F0000907E00101822BC16F000192
:102AD000C6DD0101F3D70001000C2D6A2C6A2F6AB4
:102AE0002E6A316A306A336A326A356A346A446AF5
:102AF000436A426A416A486A476A466A456A4C6A5A
:102B00004B6A4A6A496A506A4F6A4E6A4D6A566A07
:102B1000536A546A010E2B6E000C0101C26B010E48
:102B2000C36F000124DD000C01018451310A000152
:102B300005E0030A26E0010A4BE071D0010182356D
:102B4000856F8335866F8537863785378637F80EEC
:102B5000851786C103F08551F2CF87F1F29E86C1B9
:102B6000F7FF0001DCEC0CF00900F5CF03F00101E8
:102B700087BFF28E016E03C002F075D00001CDDF79
:102B800072D001018235856F8335866F8537863730
:102B900085378637F80E8517020E8525016E000EE3
:102BA0008621036E0150F2CF87F1F29E03C0F7FF3A
:102BB0000001DCEC0CF00900F5CF03F0010187BF48
:102BC000F28E016E03C002F04ED00001A6DF4BD0A2
:102BD00001018235856F8335866F85378637853766
:102BE0008637F80E8517040E8525016E000E8621A6
:102BF000036E0150F2CF87F1F29E03C0F7FF000190
:102C0000DCEC0CF00900F5CF03F0010187BFF28E78
:102C1000016E03C002F027D000017FDF24D0010144
:102C20008235856F8335866F85378637853786375A
:102C3000F80E8517060E8525016E000E8621036E9F
:102C40000150F2CF87F1F29E03C0F7FF0001DCECE8
:102C50000CF00900F5CF03F0010187BFF28E016E81
:102C600003C002F000D00001000C212C1CD0FFDCBE
:102C70003C0E0101C16F0001F2DC0101826B825147
:102C8000000132EC01F0000908E00101822BC16F64
:102C90000001E5DC0101F3D700013E0E0101C16F27
:102CA0000001DDDC3DD0215002081CE1E0DC3C0EDF
:102CB0000101C16F0001D3DC0101826B825100016F
:102CC00032EC01F0000908E00101822BC16F000124
:102CD000C6DC0101F3D700013E0E0101C16F000106
:102CE000BEDC1ED0215003081BE1C1DC3C0E0101FB
:102CF000C16F0001B4DC0101826B8251000132EC32
:102D000001F0000908E00101822BC16F0001A7DC7E
:102D10000101F3D700013E0E0101C16F00019FDCEC
:102D2000000C212C13D094DC0101826B8251000134
:102D30001CEC01F0000908E00101822BC16F0001C9
:102D40008EDC0101F3D7000190DF2BD02150020867
:102D500013E17EDC0101826B825100017BEC06F005
:102D6000000908E00101822BC16F000178DC01013C
:102D7000F3D700017ADF15D02150030812E168DC97
:102D80000101826B82510001D5EC09F0000908E0D5
:102D90000101822BC16F000162DC0101F3D7000148
:102DA00064DF39EF2BF0212C13D052DC0101826B50
:102DB0008251000147EC01F0000908E00101822B7B
:102DC000C16F00014CDC0101F3D700014EDF2BD0B5
:102DD0002150020813E13CDC0101826B82510001A9
:102DE00047EC01F0000908E00101822BC16F0001EE
:102DF00036DC0101F3D7000138DF15D0215003087C
:102E000012E126DC0101826B8251000147EC01F0E6
:102E1000000908E00101822BC16F000120DC0101E3
:102E2000F3D7000122DF4DEF2BF0212C13D010DC63
:102E30000101826B825100015DEC01F0000908E0A4
:102E40000101822BC16F00010ADC0101F3D70001EF
:102E50000CDF2FD02150020815E128EC13F00101FE
:102E6000826B825100015DEC01F0000909E0010173
:102E7000822BC16F00012FEC13F00101F2D700018A
:102E8000F4DE17D02150030814E128EC13F00101FF
:102E9000826B82510001EBEC09F0000909E00101AD
:102EA000822BC16F00012FEC13F00101F2D700015A
:102EB000DCDE61EF2BF0212C15D028EC13F00101A2
:102EC000826B8251000173EC01F0000909E00101FD
:102ED000822BC16F00012FEC13F00101F2D700012A
:102EE000C4DE2FD02150020815E128EC13F00101B7
:102EF000826B8251000191EC06F0000909E00101AA
:102F0000822BC16F00012FEC13F00101F2D70001F9
:102F1000ACDE17D02150030814E128EC13F00101B6
:102F2000826B8251000173EC01F0000909E001019C
:102F3000822BC16F00012FEC13F00101F2D70001C9
:102F400094DE75EF2BF0212C15D028EC13F0010145
:102F5000826B8251000189EC01F0000909E0010156
:102F6000822BC16F00012FEC13F00101F2D7000199
:102F70007CDE2FD02150020815E128EC13F001016E
:102F8000826B82510001A7EC06F0000909E0010103
:102F9000822BC16F00012FEC13F00101F2D7000169
:102FA00064DE17D02150030814E128EC13F001016E
:102FB000826B8251000101EC0AF0000909E0010175
:102FC000822BC16F00012FEC13F00101F2D7000139
:102FD0004CDE89EF2BF0212C15D028EC13F00101E9
:102FE000826B825100019FEC01F0000909E00101B0
:102FF000822BC16F00012FEC13F00101F2D7000109
:1030000034DE2FD02150020815E128EC13F0010125
:10301000826B82510001BDEC06F0000909E001015C
:10302000822BC16F00012FEC13F00101F2D70001D8
:103030001CDE17D02150030814E128EC13F0010125
:10304000826B825100019FEC01F0000909E001014F
:10305000822BC16F00012FEC13F00101F2D70001A8
:1030600004DE9DEF2BF0212C15D028EC13F001018C
:10307000826B82510001B5EC01F0000909E0010109
:10308000822BC16F00012FEC13F00101F2D7000178
:10309000ECDD2FD02150020815E128EC13F00101DE
:1030A000826B82510001D3EC06F0000909E00101B6
:1030B000822BC16F00012FEC13F00101F2D7000148
:1030C000D4DD17D02150030814E128EC13F00101DE
:1030D000826B8251000117EC0AF0000909E001013E
:1030E000822BC16F00012FEC13F00101F2D7000118
:1030F000BCDDB1EF2BF0212C15D028EC13F0010131
:10310000826B82510001CBEC01F0000909E0010162
:10311000822BC16F00012FEC13F00101F2D70001E7
:10312000A4DD2FD02150020815E128EC13F0010195
:10313000826B82510001E9EC06F0000909E001010F
:10314000822BC16F00012FEC13F00101F2D70001B7
:103150008CDD17D02150030814E128EC13F0010195
:10316000826B82510001CBEC01F0000909E0010102
:10317000822BC16F00012FEC13F00101F2D7000187
:1031800074DDC5EF2BF0212C15D028EC13F00101D4
:10319000826B82510001E1EC01F0000909E00101BC
:1031A000822BC16F00012FEC13F00101F2D7000157
:1031B0005CDD2FD02150020815E128EC13F001014D
:1031C000826B82510001FFEC06F0000909E0010169
:1031D000822BC16F00012FEC13F00101F2D7000127
:1031E00044DD17D02150030814E128EC13F001014D
:1031F000826B825100012DEC0AF0000909E0010107
:10320000822BC16F00012FEC13F00101F2D70001F6
:103210002CDDD9EF2BF0212C15D028EC13F0010177
:10322000826B82510001F7EC01F0000909E0010115
:10323000822BC16F00012FEC13F00101F2D70001C6
:1032400014DD2FD02150020815E128EC13F0010104
:10325000826B82510001F7EC01F0000909E00101E5
:10326000822BC16F00012FEC13F00101F2D7000196
:10327000FCDC17D02150030814E128EC13F0010105
:10328000826B82510001F7EC01F0000909E00101B5
:10329000822BC16F00012FEC13F00101F2D7000166
:1032A000E4DCEDEF2BF0212C27D028EC13F001010A
:1032B000826B825100010DEC02F0000909E001016E
:1032C000822BC16F00012FEC13F00101F2D7000136
:1032D00037EC13F00101826B8251000123EC02F004
:1032E000000909E00101822BC16F00012FEC13F0EE
:1032F0000101F2D7000152D02150020827E128EC49
:1033000013F00101826B8251000115EC07F00009F6
:1033100009E00101822BC16F00012FEC13F00101C4
:10332000F2D7000137EC13F00101826B82510001EA
:103330002BEC07F0000909E00101822BC16F0001AD
:103340002FEC13F00101F2D7000128D0215003081F
:1033500025E128EC13F00101826B8251000143EC5E
:103360000AF0000909E00101822BC16F00012FEC76
:1033700013F00101F2D7000137EC13F00101826B69
:103380008251000159EC0AF0000908E00101822B8A
:10339000C16F00012FEC13F00101F2D70001000C06
:1033A00082C192F1020E0101936F000115EC13F03E
:1033B000010E0101C26FFF0EC36F0001B7EC12F0E6
:1033C00082C192F1020E0101936F000115EC13F01E
:1033D000000C016A026A006A036A0101955102E168
:1033E000945118E0100E966FD890923793370036AC
:1033F00003369551035C02E19451005C07E394515C
:10340000005ED8A003069551035ED88001360236CF
:10341000962FEAD70001000C010192519403F3CFDB
:1034200001F0F4CF00F09503F3500026935194037C
:10343000F3500020026E0001000C0101C051F60F94
:1034400055E20A0F000178EF1AF0300E0101C16F4A
:1034500000012FEC13F0010149D0310E0101C16FC1
:1034600000012FEC13F0010141D0320E0101C16FB8
:1034700000012FEC13F0010139D0330E0101C16FAF
:1034800000012FEC13F0010131D0340E0101C16FA6
:1034900000012FEC13F0010129D0350E0101C16F9D
:1034A00000012FEC13F0010121D0360E0101C16F94
:1034B00000012FEC13F0010119D0370E0101C16F8B
:1034C00000012FEC13F0010111D0380E0101C16F82
:1034D00000012FEC13F0010109D0390E0101C16F79
:1034E00000012FEC13F0010101D001010001000CDB
:1034F000F2CF0EF0F29EE824150FF66E350EF76E41
:10350000D8B0F72A0A00F550FA6E0800F5500EBE42
:10351000F28EF96E4A345A346A347A348A349A34E0
:10352000AA34BA34CA34DA3483C193F182C192F135
:10353000030E0101956FE80E946F00014ADF02C08F
:1035400085F101C084F1030E0101936FE80E926FC3
:1035500085C195F184C194F100015EDF0150010144
:10356000825D8C6F025083598D6F8DC193F18CC138
:1035700092F1956B640E946F00012BDF02C087F10E
:1035800001C086F10101936B640E926F87C195F1C2
:1035900086C194F1000140DF015001018C5D8E6F06
:1035A00002508D598F6F8FC193F18EC192F1956B3F
:1035B0000A0E946F00010DDF02C089F101C088F18D
:1035C0000101936B0A0E926F89C195F188C194F144
:1035D000000122DF015001018E5D906F02508F5972
:1035E000916F91C18BF190C18AF1050E926F020E1D
:1035F000936F000115EC13F084C1C0F11EDF86C18A
:10360000C0F11BDF88C1C0F118DF8AC1C0F115DF2E
:10361000000C212C46D028EC13F00101826B825162
:10362000000139EC02F0000909E00101822BC16FB1
:1036300000012FEC13F00101F2D7000137EC13F079
:103640003C0E0101C16F00012FEC13F00101826BF0
:103650008251000153EC0CF0000909E00101822BBA
:10366000C16F00012FEC13F00101F2D70001090E28
:103670000101926F020E936F000115EC13F001012E
:10368000826B825100014FEC02F0000909E0010158
:10369000822BC16F00012FEC13F00101F2D7000162
:1036A00090D02150020846E128EC13F00101826B12
:1036B0008251000141EC07F0000909E00101822B71
:1036C000C16F00012FEC13F00101F2D7000137ECBC
:1036D00013F03C0E0101C16F00012FEC13F001014A
:1036E000826B8251000153EC0CF0000909E00101EA
:1036F000822BC16F00012FEC13F00101F2D7000102
:10370000090E0101926F020E936F000115EC13F088
:103710000101826B825100014FEC02F0000909E0C7
:103720000101822BC16F00012FEC13F00101F2D7D0
:10373000000147D02150030844E128EC13F00101B7
:10374000826B825100016FEC0AF0000909E001016F
:10375000822BC16F00012FEC13F00101F2D70001A1
:1037600037EC13F03C0E0101C16F00012FEC13F098
:103770000101826B8251000153EC0CF0000909E059
:103780000101822BC16F00012FEC13F00101F2D770
:103790000001090E0101926F020E936F000115ECFA
:1037A00013F00101826B825100014FEC02F000091D
:1037B00008E00101822BC16F00012FEC13F0010121
:1037C000F2D7000136EF2CF001018251410A0001CD
:1037D00003E0750A05E008D0FF0E016E08D007D09F
:1037E000010E016E04D003D0000E016E00D0000C5B
:1037F0008CC192F18DC193F115EC13F098EC12F09D
:1038000001C090F1010101AE02D00001F7D783821F
:10381000000198EC12F001C08EF1839201018E51EB
:10382000300A000113E0010A14E0030A16E0010A5D
:1038300018E0070A1AE0010A1CE0030A1EE0010A68
:1038400020E00F0A22E0010A24E027D001018F6B5B
:1038500026D0010E01018F6F22D0020E01018F6F61
:103860001ED0030E01018F6F1AD0040E01018F6F5D
:1038700016D0050E01018F6F12D0060E01018F6F59
:103880000ED0070E01018F6F0AD0080E01018F6F55
:1038900006D0090E01018F6F02D001018F6B8FC11D
:1038A00001F00001000C83C18CF1020E01018D6F4B
:1038B00000019EDF01C085F183C192F1020E01017A
:1038C000936F000115EC13F0010182518525846F7F
:1038D00084BF05D08451090802E2856B08D084BFFB
:1038E00001D003D0090E856F02D084C185F185C156
:1038F000C0F10001A2DD83C192F1020E0101936FBC
:10390000000115EC13F0000C050E01018C6F020E86
:103910008D6F00016DDF0101836B01C082F1060E26
:103920008C6F020E8D6F000163DF0101856B01C09A
:1039300084F1070E8C6F020E8D6F000159DF0101BB
:10394000876B01C086F1080E8C6F020E8D6F00012F
:103950004FDF0101896B01C088F183C193F182C1FE
:1039600092F1030E956FE80E946F000155DD02C0D1
:103970008BF101C08AF185C193F184C192F10101FB
:10398000956B640E946F000147DD015001018A2799
:1039900002508B2387C193F186C192F1956B0A0E79
:1039A000946F000139DD015001018A2702508B23F9
:1039B00088518A2789518B238AC101F08BC102F07B
:1039C0000001000C01018251350A000103E0030AE5
:1039D00005E008D0FF0E016E08D007D0010E016E81
:1039E00004D003D0000E016E00D0000C0101825102
:1039F0008325846F8451080803E2050E826F08D086
:103A00008451040803E3080E826F02D084C182F15E
:103A100082C192F1020E936F000115EC13F00101C7
:103A200082C101F00001000C212C46D028EC13F0DB
:103A30000101826B8251000173EC02F0000909E080
:103A40000101822BC16F00012FEC13F00101F2D7AD
:103A5000000137EC13F03C0E0101C16F00012FECA7
:103A600013F00101826B8251000153EC0CF000094C
:103A700009E00101822BC16F00012FEC13F001015D
:103A8000F2D70001090E0101926F020E936F00013F
:103A900015EC13F00101826B825100014FEC02F032
:103AA000000909E00101822BC16F00012FEC13F026
:103AB0000101F2D7000190D02150020846E128EC24
:103AC00013F00101826B8251000157EC07F00009ED
:103AD00009E00101822BC16F00012FEC13F00101FD
:103AE000F2D7000137EC13F03C0E0101C16F000169
:103AF0002FEC13F00101826B8251000153EC0CF0AA
:103B0000000909E00101822BC16F00012FEC13F0C5
:103B10000101F2D70001090E0101926F020E936FAD
:103B2000000115EC13F00101826B825100014FEC92
:103B300002F0000909E00101822BC16F00012FECA6
:103B400013F00101F2D7000147D02150030844E1EE
:103B500028EC13F00101826B8251000185EC0AF020
:103B6000000909E00101822BC16F00012FEC13F065
:103B70000101F2D7000137EC13F03C0E0101C16FD7
:103B800000012FEC13F00101826B8251000153EC14
:103B90000CF0000909E00101822BC16F00012FEC3C
:103BA00013F00101F2D70001090E0101926F020E1C
:103BB000936F000115EC13F00101826B825100013B
:103BC0004FEC02F0000908E00101822BC16F0001F7
:103BD0002FEC13F00101F2D700018AEF2CF0212C19
:103BE00046D028EC13F00101826B8251000189EC70
:103BF00002F0000909E00101822BC16F00012FECE6
:103C000013F00101F2D7000137EC13F03C0E010173
:103C1000C16F00012FEC13F00101826B8251000192
:103C200053EC0CF0000909E00101822BC16F000187
:103C30002FEC13F00101F2D70001090E0101926F80
:103C4000020E936F000115EC13F00101826B82519B
:103C500000014FEC02F0000909E00101822BC16F65
:103C600000012FEC13F00101F2D7000190D0215098
:103C7000020846E128EC13F00101826B8251000139
:103C80006DEC07F0000909E00101822BC16F000112
:103C90002FEC13F00101F2D7000137EC13F03C0ECA
:103CA0000101C16F00012FEC13F00101826B825101
:103CB000000153EC0CF0000909E00101822BC16FF7
:103CC00000012FEC13F00101F2D70001090E0101F0
:103CD000926F020E936F000115EC13F00101826BDD
:103CE000825100014FEC02F0000909E00101822B32
:103CF000C16F00012FEC13F00101F2D7000147D092
:103D00002150030844E128EC13F00101826B825139
:103D100000019BEC0AF0000909E00101822BC16F50
:103D200000012FEC13F00101F2D7000137EC13F082
:103D30003C0E0101C16F00012FEC13F00101826BF9
:103D40008251000153EC0CF0000909E00101822BC3
:103D5000C16F00012FEC13F00101F2D70001090E31
:103D60000101926F020E936F000115EC13F0010137
:103D7000826B825100014FEC02F0000908E0010162
:103D8000822BC16F00012FEC13F00101F2D700016B
:103D9000D3EF2CF0212C46D028EC13F00101826BDC
:103DA000825100019FEC02F0000909E00101822B21
:103DB000C16F00012FEC13F00101F2D7000137ECC5
:103DC00013F03C0E0101C16F00012FEC13F0010153
:103DD000826B8251000153EC0CF0000909E00101F3
:103DE000822BC16F00012FEC13F00101F2D700010B
:103DF000090E0101926F020E936F000115EC13F092
:103E00000101826B825100014FEC02F0000909E0D0
:103E10000101822BC16F00012FEC13F00101F2D7D9
:103E2000000190D02150020846E128EC13F0010176
:103E3000826B8251000183EC07F0000909E0010167
:103E4000822BC16F00012FEC13F00101F2D70001AA
:103E500037EC13F03C0E0101C16F00012FEC13F0A1
:103E60000101826B8251000153EC0CF0000909E062
:103E70000101822BC16F00012FEC13F00101F2D779
:103E80000001090E0101926F020E936F000115EC03
:103E900013F00101826B825100014FEC02F0000926
:103EA00009E00101822BC16F00012FEC13F0010129
:103EB000F2D7000147D02150030844E128EC13F069
:103EC0000101826B82510001B1EC0AF0000909E0A6
:103ED0000101822BC16F00012FEC13F00101F2D719
:103EE000000137EC13F03C0E0101C16F00012FEC13
:103EF00013F00101826B8251000153EC0CF00009B8
:103F000009E00101822BC16F00012FEC13F00101C8
:103F1000F2D70001090E0101926F020E936F0001AA
:103F200015EC13F00101826B825100014FEC02F09D
:103F3000000908E00101822BC16F00012FEC13F092
:103F40000101F2D700011CEF2DF0212C27D028EC25
:103F500013F00101826B82510001B5EC02F00009FF
:103F600009E00101822BC16F00012FEC13F0010168
:103F7000F2D7000137EC13F00101826B825100018E
:103F8000CBEC02F0000909E00101822BC16F0001B6
:103F90002FEC13F00101F2D7000152D0215002089A
:103FA00027E128EC13F00101826B8251000199ECAA
:103FB00007F0000909E00101822BC16F00012FEC1D
:103FC00013F00101F2D7000137EC13F00101826B0D
:103FD00082510001CBEC02F0000909E00101822BC3
:103FE000C16F00012FEC13F00101F2D7000128D0BE
:103FF0002150030825E128EC13F00101826B825166
:104000000001B5EC02F0000909E00101822BC16F4B
:1040100000012FEC13F00101F2D7000137EC13F08F
:104020000101826B82510001CBEC02F0000908E033
:104030000101822BC16F00012FEC13F00101F2D7B7
:10404000000154EF2DF0212C27D028EC13F00101B2
:10405000826B82510001E1EC02F0000909E00101EC
:10406000822BC16F00012FEC13F00101F2D7000188
:1040700037EC13F00101826B8251000123EC02F056
:10408000000909E00101822BC16F00012FEC13F040
:104090000101F2D7000152D02150020827E128EC9B
:1040A00013F00101826B82510001AFEC07F00009AF
:1040B00009E00101822BC16F00012FEC13F0010117
:1040C000F2D7000137EC13F00101826B825100013D
:1040D0002BEC07F0000909E00101822BC16F000100
:1040E0002FEC13F00101F2D7000128D02150030872
:1040F00025E128EC13F00101826B82510001C7EC2D
:104100000AF0000909E00101822BC16F00012FECC8
:1041100013F00101F2D7000137EC13F00101826BBB
:104120008251000159EC0AF0000908E00101822BDC
:10413000C16F00012FEC13F00101F2D7000176EFFF
:104140002DF0212C46D028EC13F00101826B825116
:104150000001F7EC02F0000909E00101822BC16FB8
:1041600000012FEC13F00101F2D7000137EC13F03E
:104170003C0E0101C16F00012FEC13F00101826BB5
:104180008251000153EC0CF0000909E00101822B7F
:10419000C16F00012FEC13F00101F2D70001090EED
:1041A0000101926F020E936F000115EC13F00101F3
:1041B000826B825100014FEC02F0000909E001011D
:1041C000822BC16F00012FEC13F00101F2D7000127
:1041D00090D02150020846E128EC13F00101826BD7
:1041E00082510001C5EC07F0000909E00101822BB2
:1041F000C16F00012FEC13F00101F2D7000137EC81
:1042000013F03C0E0101C16F00012FEC13F001010E
:10421000826B8251000153EC0CF0000909E00101AE
:10422000822BC16F00012FEC13F00101F2D70001C6
:10423000090E0101926F020E936F000115EC13F04D
:104240000101826B825100014FEC02F0000909E08C
:104250000101822BC16F00012FEC13F00101F2D795
:10426000000147D02150030844E128EC13F001017C
:10427000826B82510001DDEC0AF0000909E00101C6
:10428000822BC16F00012FEC13F00101F2D7000166
:1042900037EC13F03C0E0101C16F00012FEC13F05D
:1042A0000101826B8251000153EC0CF0000909E01E
:1042B0000101822BC16F00012FEC13F00101F2D735
:1042C0000001090E0101926F020E936F000115ECBF
:1042D00013F00101826B825100014FEC02F00009E2
:1042E00008E00101822BC16F00012FEC13F00101E6
:1042F000F2D70001ABEF2DF0212C46D028EC13F0C3
:104300000101826B825100010DEC03F0000909E00C
:104310000101822BC16F00012FEC13F00101F2D7D4
:10432000000137EC13F03C0E0101C16F00012FECCE
:1043300013F00101826B8251000153EC0CF0000973
:1043400009E00101822BC16F00012FEC13F0010184
:10435000F2D70001090E0101926F020E936F000166
:1043600015EC13F00101826B825100014FEC02F059
:10437000000909E00101822BC16F00012FEC13F04D
:104380000101F2D7000190D02150020846E128EC4B
:1043900013F00101826B82510001DBEC07F0000990
:1043A00009E00101822BC16F00012FEC13F0010124
:1043B000F2D7000137EC13F03C0E0101C16F000190
:1043C0002FEC13F00101826B8251000153EC0CF0D1
:1043D000000909E00101822BC16F00012FEC13F0ED
:1043E0000101F2D70001090E0101926F020E936FD5
:1043F000000115EC13F00101826B825100014FECBA
:1044000002F0000909E00101822BC16F00012FECCD
:1044100013F00101F2D7000147D02150030844E115
:1044200028EC13F00101826B82510001F3EC0AF0D9
:10443000000909E00101822BC16F00012FEC13F08C
:104440000101F2D7000137EC13F03C0E0101C16FFE
:1044500000012FEC13F00101826B8251000153EC3B
:104460000CF0000909E00101822BC16F00012FEC63
:1044700013F00101F2D70001090E0101926F020E43
:10448000936F000115EC13F00101826B8251000162
:104490004FEC02F0000908E00101822BC16F00011E
:1044A0002FEC13F00101F2D700012DEF2EF0212C9B
:1044B00046D028EC13F00101826B8251000123ECFD
:1044C00003F0000909E00101822BC16F00012FEC0C
:1044D00013F00101F2D7000137EC13F03C0E01019B
:1044E000C16F00012FEC13F00101826B82510001BA
:1044F00053EC0CF0000909E00101822BC16F0001AF
:104500002FEC13F00101F2D70001090E0101926FA7
:10451000020E936F000115EC13F00101826B8251C2
:1045200000014FEC02F0000909E00101822BC16F8C
:1045300000012FEC13F00101F2D7000190D02150BF
:10454000020846E128EC13F00101826B8251000160
:10455000F1EC07F0000909E00101822BC16F0001B5
:104560002FEC13F00101F2D7000137EC13F03C0EF1
:104570000101C16F00012FEC13F00101826B825128
:10458000000153EC0CF0000909E00101822BC16F1E
:1045900000012FEC13F00101F2D70001090E010117
:1045A000926F020E936F000115EC13F00101826B04
:1045B000825100014FEC02F0000909E00101822B59
:1045C000C16F00012FEC13F00101F2D7000147D0B9
:1045D0002150030844E128EC13F00101826B825161
:1045E000000109EC0BF0000909E00101822BC16F09
:1045F00000012FEC13F00101F2D7000137EC13F0AA
:104600003C0E0101C16F00012FEC13F00101826B20
:104610008251000153EC0CF0000909E00101822BEA
:10462000C16F00012FEC13F00101F2D70001090E58
:104630000101926F020E936F000115EC13F001015E
:10464000826B825100014FEC02F0000908E0010189
:10465000822BC16F00012FEC13F00101F2D7000192
:104660008EEF2EF0070E0101926F020E936F000184
:1046700015EC13F083C193F182C192F10101956BA6
:104680000A0E946F0001E9EC19F002C085F101C037
:1046900084F10101936B0A0E926F85C195F184C17B
:1046A00094F100010CEC1AF001500101825D866F5B
:1046B00002508359876F84C1C0F100011DEC1AF0CC
:1046C00086C1C0F11DEC1AF0D7EF2EF0212C40D09E
:1046D00028EC13F00101826B8251000139EC03F0E8
:1046E000000909E00101822BC16F00012FEC13F0DA
:1046F0000101F2D7000137EC13F00101826B825106
:10470000000162EC0CF0000909E00101822BC16F8D
:1047100000012FEC13F00101F2D70001090E010195
:10472000926F020E936F000115EC13F00101826B82
:10473000825100014FEC03F0000909E00101822BD6
:10474000C16F00012FEC13F00101F2D7000184D0FA
:104750002150020840E128EC13F00101826B8251E4
:10476000000107EC08F0000909E00101822BC16F8C
:1047700000012FEC13F00101F2D7000137EC13F028
:104780000101826B8251000162EC0CF0000909E02A
:104790000101822BC16F00012FEC13F00101F2D750
:1047A0000001090E0101926F020E936F000115ECDA
:1047B00013F00101826B825100014FEC03F00009FC
:1047C00009E00101822BC16F00012FEC13F0010100
:1047D000F2D7000141D0215003083EE128EC13F04C
:1047E0000101826B8251000139EC03F0000909E0FC
:1047F0000101822BC16F00012FEC13F00101F2D7F0
:10480000000137EC13F00101826B8251000162EC70
:104810000CF0000909E00101822BC16F00012FECAF
:1048200013F00101F2D70001090E0101926F020E8F
:10483000936F000115EC13F00101826B82510001AE
:104840004FEC03F0000908E00101822BC16F000169
:104850002FEC13F00101F2D70001D9EF2EF0070E73
:1048600001018C6F020E8D6F0001F8EC1BF001014D
:10487000836B01C082F1080E8C6F020E8D6F0001F8
:10488000F8EC1BF00101856B01C084F183C193F149
:1048900082C192F1956B0A0E946F00010CEC1AF034
:1048A00002C087F101C086F101018451862785513C
:1048B000872386C101F087C102F00001E7EF2EF0E7
:1048C000010182518325846F8451080803E2070E99
:1048D000826F08D08451060803E3080E826F02D06D
:1048E00084C182F182C192F1020E936F000115EC36
:1048F00013F0010182C101F00001F9EF2EF0212C2B
:1049000027D028EC13F00101826B8251000165EC85
:1049100003F0000909E00101822BC16F00012FECB7
:1049200013F00101F2D7000137EC13F00101826BA3
:10493000825100017BEC03F0000909E00101822BA8
:10494000C16F00012FEC13F00101F2D7000152D02A
:104950002150020827E128EC13F00101826B8251FB
:1049600000011DEC08F0000909E00101822BC16F74
:1049700000012FEC13F00101F2D7000137EC13F026
:104980000101826B8251000133EC08F0000909E05B
:104990000101822BC16F00012FEC13F00101F2D74E
:1049A000000128D02150030825E128EC13F0010173
:1049B000826B825100011FEC0BF0000909E001013C
:1049C000822BC16F00012FEC13F00101F2D700011F
:1049D00037EC13F00101826B825100017BEC03F094
:1049E000000908E00101822BC16F00012FEC13F0D8
:1049F0000101F2D700011BEF2FF0FF0E936EF29230
:104A0000F286F288F18C000C212C65D028EC13F092
:104A10000101826B82510001F5EC04F0000909E00C
:104A20000101822BC16F00012FEC13F00101F2D7BD
:104A3000000137EC13F00101826B825100010BEC95
:104A400005F0000909E00101822BC16F00012FEC84
:104A500013F00101F2D70001080E0101826FFA0E76
:104A6000836F000163EC13F00101822FF8D700017E
:104A700028EC13F00101826B8251000121EC05F05A
:104A8000000909E00101822BC16F00012FEC13F036
:104A90000101F2D7000137EC13F00101826B825162
:104AA000000137EC05F0000909E00101822BC16F1C
:104AB00000012FEC13F00101F2D70001080E0101F3
:104AC000826FFA0E836F000163EC13F00101822FF5
:104AD000F8D7CFD000012150020865E128EC13F08F
:104AE0000101826B82510001B7EC08F0000909E076
:104AF0000101822BC16F00012FEC13F00101F2D7ED
:104B0000000137EC13F00101826B82510001CDEC02
:104B100008F0000909E00101822BC16F00012FECB0
:104B200013F00101F2D70001080E0101826FFA0EA5
:104B3000836F000163EC13F00101822FF8D70001AD
:104B400028EC13F00101826B82510001E3EC08F0C4
:104B5000000909E00101822BC16F00012FEC13F065
:104B60000101F2D7000137EC13F00101826B825191
:104B70000001F9EC08F0000909E00101822BC16F86
:104B800000012FEC13F00101F2D70001080E010122
:104B9000826FFA0E836F000163EC13F00101822F24
:104BA000F8D767D000012150030863E128EC13F027
:104BB0000101826B8251000177EC0BF0000909E0E2
:104BC0000101822BC16F00012FEC13F00101F2D71C
:104BD000000137EC13F00101826B825100018DEC72
:104BE0000BF0000909E00101822BC16F00012FECDD
:104BF00013F00101F2D70001080E0101826FFA0ED5
:104C0000836F000163EC13F00101822FF8D70001DC
:104C100028EC13F00101826B82510001A3EC0BF030
:104C2000000909E00101822BC16F00012FEC13F094
:104C30000101F2D7000137EC13F00101826B8251C0
:104C40000001B9EC0BF0000909E00101822BC16FF2
:104C500000012FEC13F00101F2D70001080E010151
:104C6000826FFA0E836F000163EC13F00101822F53
:104C7000F8D7000143EF2FF0212C16D028EC13F0C9
:104C80000101826B82510001A6EC05F0000909E0E8
:104C90000101822BC16F00012FEC13F00101F2D74B
:104CA000000135EC16F031D02150020816E128EC55
:104CB00013F00101826B825100013BEC09F0000905
:104CC00009E00101822BC16F00012FEC13F00101FB
:104CD000F2D7000135EC16F018D02150030815E189
:104CE00028EC13F00101826B82510001FBEC0BF008
:104CF000000909E00101822BC16F00012FEC13F0C4
:104D00000101F2D7000135EC16F049EF2FF0212C0C
:104D100014D037EC13F00101826B82510001BCEC1E
:104D200005F0000909E00101822BC16F00012FECA1
:104D300013F00101F2D700012CD02150020814E138
:104D400037EC13F00101826B8251000151EC09F044
:104D5000000909E00101822BC16F00012FEC13F063
:104D60000101F2D7000115D02150030812E137EC00
:104D700013F00101826B8251000111EC0CF000096B
:104D800008E00101822BC16F00012FEC13F001013B
:104D9000F2D700016AEF2FF0212C16D028EC13F087
:104DA0000101826B82510001D2EC05F0000909E09B
:104DB0000101822BC16F00012FEC13F00101F2D72A
:104DC000000135EC16F031D02150020816E128EC34
:104DD00013F00101826B82510001D2EC05F0000951
:104DE00009E00101822BC16F00012FEC13F00101DA
:104DF000F2D7000135EC16F018D02150030815E168
:104E000028EC13F00101826B82510001D2EC05F015
:104E1000000909E00101822BC16F00012FEC13F0A2
:104E20000101F2D7000135EC16F0C8EF30F0212C6B
:104E300046D028EC13F00101826B82510001E8ECAE
:104E400005F0000909E00101822BC16F00012FEC80
:104E500013F00101F2D7000137EC13F03C0E010111
:104E6000C16F00012FEC13F00101826B8251000130
:104E700053EC0CF0000909E00101822BC16F000125
:104E80002FEC13F00101F2D70001090E0101926F1E
:104E9000020E936F000115EC13F00101826B825139
:104EA00000014FEC02F0000909E00101822BC16F03
:104EB00000012FEC13F00101F2D7000190D0215036
:104EC000020846E128EC13F00101826B82510001D7
:104ED00067EC09F0000909E00101822BC16F0001B4
:104EE0002FEC13F00101F2D7000137EC13F03C0E68
:104EF0000101C16F00012FEC13F00101826B82519F
:104F0000000153EC0CF0000909E00101822BC16F94
:104F100000012FEC13F00101F2D70001090E01018D
:104F2000926F020E936F000115EC13F00101826B7A
:104F3000825100014FEC02F0000909E00101822BCF
:104F4000C16F00012FEC13F00101F2D7000147D02F
:104F50002150030844E128EC13F00101826B8251D7
:104F6000000127EC0CF0000909E00101822BC16F60
:104F700000012FEC13F00101F2D7000137EC13F020
:104F80003C0E0101C16F00012FEC13F00101826B97
:104F90008251000153EC0CF0000909E00101822B61
:104FA000C16F00012FEC13F00101F2D70001090ECF
:104FB0000101926F020E936F000115EC13F00101D5
:104FC000826B825100014FEC02F0000908E0010100
:104FD000822BC16F00012FEC13F00101F2D7000109
:104FE000F2EF30F083C193F182C192F1030E01011F
:104FF000956FE80E946F0001E9EC19F002C085F19D
:1050000001C084F1030E0101936FE80E926F85C118
:1050100095F184C194F100010CEC1AF001500101EA
:10502000825D8C6F025083598D6F8DC193F18CC15D
:1050300092F1956B640E946F0001E9EC19F002C0D7
:1050400087F101C086F10101936B640E926F87C1F5
:1050500095F186C194F100010CEC1AF001500101A8
:105060008C5D8E6F02508D598F6F8FC193F18EC101
:1050700092F1956B0A0E946F0001E9EC19F002C0F1
:1050800089F101C088F10101936B0A0E926F89C109
:1050900095F188C194F100010CEC1AF00150010166
:1050A0008E5D906F02508F59916F91C18BF190C1BD
:1050B0008AF1060E926F020E936F000115EC13F049
:1050C00086C1C0F11DEC1AF088C1C0F11DEC1AF0C8
:1050D0008AC1C0F11DEC1AF0040E0101926F020E9C
:1050E000936F000115EC13F084C1C0F11DEC1AF0B0
:1050F0003CEF31F0212C43D028EC13F00101826BFE
:1051000082510001FEEC05F0000909E00101822B4B
:10511000C16F00012FEC13F00101F2D7000137EC51
:1051200013F03C0E0101C16F00012FEC13F0090ECA
:105130000101926F020E936F000115EC13F0010153
:10514000826B8251000161EC02F0000909E001016B
:10515000822BC16F00012FEC13F00101F2D7000187
:10516000050E0101926F020E936F000115EC13F012
:105170002C0E0101C16F00012FEC13F08BD02150D8
:10518000020843E128EC13F00101826B8251000117
:105190007DEC09F0000909E00101822BC16F0001DB
:1051A0002FEC13F00101F2D7000137EC13F03C0EA5
:1051B0000101C16F00012FEC13F0090E0101926F84
:1051C000020E936F000115EC13F00101826B825106
:1051D000000161EC02F0000909E00101822BC16FBE
:1051E00000012FEC13F00101F2D70001050E0101BF
:1051F000926F020E936F000115EC13F02C0E01015B
:10520000C16F00012FEC13F045D02150030842E19B
:1052100028EC13F00101826B825100013DEC0CF08F
:10522000000909E00101822BC16F00012FEC13F08E
:105230000101F2D7000137EC13F03C0E0101C16F00
:1052400000012FEC13F0090E0101926F020E936F13
:10525000000115EC13F00101826B8251000161EC39
:1052600002F0000909E00101822BC16F00012FEC5F
:1052700013F00101F2D70001050E0101926F020E39
:10528000936F000115EC13F02C0E0101C16F0001AA
:105290002FEC13F03EEF31F0040E01018C6F020E83
:1052A0008D6F0001F8EC1BF00101836B01C082F1EE
:1052B000060E8C6F020E8D6F0001F8EC1BF00101E1
:1052C000856B01C084F1070E8C6F020E8D6F00019B
:1052D000F8EC1BF00101876B01C086F1080E8C6FA2
:1052E000020E8D6F0001F8EC1BF00101896B01C00B
:1052F00088F183C193F182C192F1030E956FE80E9C
:10530000946F00010CEC1AF002C08BF101C08AF11D
:1053100085C193F184C192F10101956B640E946F84
:1053200000010CEC1AF0015001018A2702508B2376
:1053300087C193F186C192F1956B0A0E946F0001BB
:105340000CEC1AF0015001018A2702508B2388517E
:105350008A2789518B238AC101F08BC102F0000199
:105360004CEF31F0010182518325846F845105088F
:1053700008E18251040803E1060E846F02D0040E96
:10538000846F8451080803E2040E826F08D08451B0
:10539000030803E3080E826F02D084C182F182C148
:1053A00092F1020E936F000115EC13F0010182C11E
:1053B00001F0000160EF31F001017EC100F07F518A
:1053C000036E05E100520001D8B43ED10101035043
:1053D00006E1010E005C0001D8B449D1010103507F
:1053E00006E1020E005C0001D8B455D10101035062
:1053F00006E1030E005C0001D8B461D10101035045
:1054000006E1040E005C0001D8B46DD10101035027
:1054100006E1050E005C0001D8B479D1010103500A
:1054200006E1060E005C0001D8B485D101010350ED
:1054300006E1070E005C0001D8B491D101010350D0
:1054400006E1080E005C0001D8B49DD101010350B3
:1054500006E1090E005C0001D8B4A9D10101035096
:1054600006E10A0E005C0001D8B4B5D10101035079
:1054700006E10B0E005C0001D8B4C1D1010103505C
:1054800006E10C0E005C0001D8B4DBD10101035031
:1054900006E10D0E005C0001D8B427D201010350D3
:1054A00006E10E0E005C0001D8B468D20101035081
:1054B00006E10F0E005C0001D8B4A9D2010103502F
:1054C00006E1110E005C0001D8B4EAD201010350DC
:1054D00006E1120E005C0001D8B4F6D201010350BF
:1054E00006E1130E005C0001D8B4F6D201010350AE
:1054F00006E1150E005C0001D8B4F6D2010103509C
:1055000006E1160E005C0001D8B410D3010103506F
:1055100006E11F0E005C0001D8B455D30101035011
:1055200006E1290E005C0001D8B457D301010350F5
:1055300006E1330E005C0001D8B456D301010350DC
:1055400006E1340E005C0001D8B472D301010350AF
:1055500007E13D0E005C0001D8B460EF2EF00101C0
:10556000035007E1470E005C0001D8B469EF2EF04C
:105570000101035007E1510E005C0001D8B470EF47
:105580002EF00101035007E15C0E005C0001D8B46D
:1055900077EF2EF00101035007E1630E005C00017C
:1055A000D8B4C1EF2EF00101035007E1640E005C96
:1055B0000001D8B419EF2FF00101035007E1F00EFC
:1055C000005C0001D8B441EF2FF00101030E035C31
:1055D00007E1840E005C0001D8B447EF2FF0010111
:1055E000030E035C07E1860E005C0001D8B45AEF9D
:1055F0002FF00101030E035C07E1DE0E005C0001E9
:10560000D8B4B5EF30F00101030E035C07E1F40EEE
:10561000005C0001D8B4C6EF30F00101030E035C5A
:1056200007E1FD0E005C0001D8B4D9EF30F00101B4
:10563000030E035C07E1FE0E005C0001D8B429EF05
:1056400031F0010175EF31F0FCEC14F0050E556EF0
:105650000101836B826B28C084F1000194EC15F08A
:1056600002C027F001C026F0010175EF31F091EF83
:1056700016F06DEC15F00101836B010E826F28C0EE
:1056800084F1000194EC15F002C027F001C026F06F
:10569000010175EF31F0D3EF16F06DEC15F001015B
:1056A000836B020E826F28C084F1000194EC15F028
:1056B00002C027F001C026F0010175EF31F015EFAF
:1056C00017F06DEC15F00101836B030E826F28C09B
:1056D00084F1000194EC15F002C027F001C026F01F
:1056E000010175EF31F05BEF17F06DEC15F0010182
:1056F000836B040E826F28C084F1000194EC15F0D6
:1057000002C027F001C026F0010175EF31F0A3EFD0
:1057100017F06DEC15F00101836B050E826F28C048
:1057200084F1000194EC15F002C027F001C026F0CE
:10573000010175EF31F0EBEF17F06DEC15F00101A1
:10574000836B060E826F28C084F1000194EC15F083
:1057500002C027F001C026F0010175EF31F033EFF0
:1057600018F06DEC15F00101836B070E826F28C0F5
:1057700084F1000194EC15F002C027F001C026F07E
:10578000010175EF31F07BEF18F06DEC15F00101C0
:10579000836B080E826F28C084F1000194EC15F031
:1057A00002C027F001C026F0010175EF31F0C3EF10
:1057B00018F06DEC15F00101836B090E826F28C0A3
:1057C00084F1000194EC15F002C027F001C026F02E
:1057D000010175EF31F00BEF19F06DEC15F00101DF
:1057E000836B0A0E826F28C084F1000194EC15F0DF
:1057F00002C027F001C026F0010175EF31F053EC33
:1058000019F0566A6DEC15F00101836B0B0E826F77
:1058100028C084F1000194EC15F002C027F001C00B
:1058200026F02650640803E1275201E1566A26500B
:105830000C0804E1275202E1010E566E010175EFDA
:1058400031F0525060080AE2FF0A03E15150A80803
:1058500005E238C082F1D0EC19F01AD02DC083F1E6
:105860002CC082F194EC1AF009EF1BF028C082F1F1
:10587000E4EC1BF001C081F181C182F138C083F1F9
:1058800053EC1CF084EC1CF002C02DF001C02CF095
:10589000640E5126000E522228C082F1E2EC1CF068
:1058A00001C080F138C082F180C183F1F6EC1CF0B8
:1058B00001C038F00101836B0C0E826F28C084F1A7
:1058C000000194EC15F002C027F001C026F05550FD
:1058D000020808E126500D0805E1275203E1276A76
:1058E000640E266E010175EF31F0525060080AE235
:1058F000FF0A03E15150A80805E238C082F1D0EC5C
:1059000019F01AD02FC083F12EC082F194EC1AF056
:1059100014EF1DF028C082F1E4EC1BF001C081F10E
:1059200081C182F138C083F153EC1CF084EC1CF08F
:1059300002C02FF001C02EF0640E5126000E52223C
:1059400028C082F1E2EC1CF001C080F138C082F185
:1059500080C183F1F6EC1CF001C038F00101836BCB
:105960000D0E826F28C084F1000194EC15F002C086
:1059700027F001C026F0010175EF31F052506008A8
:105980000AE2FF0A03E15150A80805E238C082F19B
:10599000D0EC19F01AD031C083F130C082F194EC10
:1059A0001AF0EFEF1DF028C082F1E4EC1BF001C00B
:1059B00081F181C182F138C083F153EC1CF084EC99
:1059C0001CF002C031F001C030F0640E5126000E10
:1059D000522228C082F1E2EC1CF001C080F138C0F4
:1059E00082F180C183F1F6EC1CF001C038F00101B6
:1059F000836B0E0E826F28C084F1000194EC15F0C9
:105A000002C027F001C026F0010175EF31F05250BD
:105A100060080AE2FF0A03E15150A80805E238C015
:105A200082F1D0EC19F01AD033C083F132C082F188
:105A300094EC1AF0CAEF1EF028C082F1E4EC1BF0DF
:105A400001C081F181C182F138C083F153EC1CF0B7
:105A500084EC1CF002C033F001C032F0640E512619
:105A6000000E522228C082F1E2EC1CF001C080F14D
:105A700038C082F180C183F1F6EC1CF001C038F02F
:105A80000101836B0F0E826F28C084F1000194EC3A
:105A900015F002C027F001C026F0010175EF31F0CA
:105AA000010E196EA5EF1FF00101836B260E826FA8
:105AB00028C084F1000194EC15F002C027F001C069
:105AC00026F0010175EF31F0020E556E276A0B0EBC
:105AD000266E010175EF31F0050E556E276A0B0E2B
